{
  "address": "0x25D9B7c8559B6056e93Ef5Df6C2752298C011DbD",
  "abi": [
    {
      "inputs": [],
      "stateMutability": "nonpayable",
      "type": "constructor"
    },
    {
      "inputs": [
        {
          "internalType": "string",
          "name": "message",
          "type": "string"
        }
      ],
      "name": "TransferForbidden",
      "type": "error"
    },
    {
      "anonymous": false,
      "inputs": [
        {
          "indexed": true,
          "internalType": "address",
          "name": "owner",
          "type": "address"
        },
        {
          "indexed": true,
          "internalType": "address",
          "name": "approved",
          "type": "address"
        },
        {
          "indexed": true,
          "internalType": "uint256",
          "name": "tokenId",
          "type": "uint256"
        }
      ],
      "name": "Approval",
      "type": "event"
    },
    {
      "anonymous": false,
      "inputs": [
        {
          "indexed": true,
          "internalType": "address",
          "name": "owner",
          "type": "address"
        },
        {
          "indexed": true,
          "internalType": "address",
          "name": "operator",
          "type": "address"
        },
        {
          "indexed": false,
          "internalType": "bool",
          "name": "approved",
          "type": "bool"
        }
      ],
      "name": "ApprovalForAll",
      "type": "event"
    },
    {
      "anonymous": false,
      "inputs": [
        {
          "indexed": true,
          "internalType": "address",
          "name": "user",
          "type": "address"
        },
        {
          "indexed": false,
          "internalType": "uint256",
          "name": "tokenId",
          "type": "uint256"
        }
      ],
      "name": "ClaimedSBT",
      "type": "event"
    },
    {
      "anonymous": false,
      "inputs": [
        {
          "indexed": false,
          "internalType": "string",
          "name": "contractUri",
          "type": "string"
        }
      ],
      "name": "ContractURIUpdated",
      "type": "event"
    },
    {
      "anonymous": false,
      "inputs": [
        {
          "indexed": false,
          "internalType": "string",
          "name": "_defaultTokenURI",
          "type": "string"
        }
      ],
      "name": "DefaultTokenURIUpdated",
      "type": "event"
    },
    {
      "anonymous": false,
      "inputs": [
        {
          "indexed": false,
          "internalType": "uint256",
          "name": "tokenId",
          "type": "uint256"
        }
      ],
      "name": "Locked",
      "type": "event"
    },
    {
      "anonymous": false,
      "inputs": [],
      "name": "MetisSBTInitialized",
      "type": "event"
    },
    {
      "anonymous": false,
      "inputs": [
        {
          "indexed": true,
          "internalType": "address",
          "name": "_metisVote",
          "type": "address"
        }
      ],
      "name": "MetisVoteSet",
      "type": "event"
    },
    {
      "anonymous": false,
      "inputs": [
        {
          "indexed": true,
          "internalType": "address",
          "name": "to",
          "type": "address"
        },
        {
          "indexed": false,
          "internalType": "uint256",
          "name": "tokenId",
          "type": "uint256"
        },
        {
          "indexed": false,
          "internalType": "string",
          "name": "uri",
          "type": "string"
        }
      ],
      "name": "MintSBT",
      "type": "event"
    },
    {
      "anonymous": false,
      "inputs": [
        {
          "indexed": true,
          "internalType": "address",
          "name": "previousOwner",
          "type": "address"
        },
        {
          "indexed": true,
          "internalType": "address",
          "name": "newOwner",
          "type": "address"
        }
      ],
      "name": "OwnershipTransferred",
      "type": "event"
    },
    {
      "anonymous": false,
      "inputs": [
        {
          "indexed": true,
          "internalType": "address",
          "name": "from",
          "type": "address"
        },
        {
          "indexed": true,
          "internalType": "address",
          "name": "to",
          "type": "address"
        },
        {
          "indexed": true,
          "internalType": "uint256",
          "name": "tokenId",
          "type": "uint256"
        }
      ],
      "name": "Transfer",
      "type": "event"
    },
    {
      "anonymous": false,
      "inputs": [
        {
          "indexed": false,
          "internalType": "uint256",
          "name": "tokenId",
          "type": "uint256"
        }
      ],
      "name": "Unlocked",
      "type": "event"
    },
    {
      "anonymous": false,
      "inputs": [
        {
          "indexed": false,
          "internalType": "uint256",
          "name": "_tokenId",
          "type": "uint256"
        },
        {
          "indexed": false,
          "internalType": "uint256",
          "name": "_electionId",
          "type": "uint256"
        }
      ],
      "name": "VoteAdded",
      "type": "event"
    },
    {
      "inputs": [],
      "name": "METIS_VOTE",
      "outputs": [
        {
          "internalType": "address",
          "name": "",
          "type": "address"
        }
      ],
      "stateMutability": "view",
      "type": "function"
    },
    {
      "inputs": [],
      "name": "_tokenIdCounter",
      "outputs": [
        {
          "internalType": "uint256",
          "name": "_value",
          "type": "uint256"
        }
      ],
      "stateMutability": "view",
      "type": "function"
    },
    {
      "inputs": [
        {
          "internalType": "uint256",
          "name": "_electionId",
          "type": "uint256"
        },
        {
          "internalType": "uint256",
          "name": "_tokenId",
          "type": "uint256"
        }
      ],
      "name": "addVote",
      "outputs": [],
      "stateMutability": "nonpayable",
      "type": "function"
    },
    {
      "inputs": [
        {
          "internalType": "address",
          "name": "to",
          "type": "address"
        },
        {
          "internalType": "uint256",
          "name": "tokenId",
          "type": "uint256"
        }
      ],
      "name": "approve",
      "outputs": [],
      "stateMutability": "nonpayable",
      "type": "function"
    },
    {
      "inputs": [
        {
          "internalType": "uint256",
          "name": "",
          "type": "uint256"
        }
      ],
      "name": "availableToMint",
      "outputs": [
        {
          "internalType": "bool",
          "name": "",
          "type": "bool"
        }
      ],
      "stateMutability": "view",
      "type": "function"
    },
    {
      "inputs": [
        {
          "internalType": "address",
          "name": "owner",
          "type": "address"
        }
      ],
      "name": "balanceOf",
      "outputs": [
        {
          "internalType": "uint256",
          "name": "",
          "type": "uint256"
        }
      ],
      "stateMutability": "view",
      "type": "function"
    },
    {
      "inputs": [
        {
          "internalType": "uint256",
          "name": "_tokenId",
          "type": "uint256"
        }
      ],
      "name": "claimSBT",
      "outputs": [],
      "stateMutability": "nonpayable",
      "type": "function"
    },
    {
      "inputs": [],
      "name": "contractUri",
      "outputs": [
        {
          "internalType": "string",
          "name": "",
          "type": "string"
        }
      ],
      "stateMutability": "view",
      "type": "function"
    },
    {
      "inputs": [],
      "name": "defaultTokenUri",
      "outputs": [
        {
          "internalType": "string",
          "name": "",
          "type": "string"
        }
      ],
      "stateMutability": "view",
      "type": "function"
    },
    {
      "inputs": [
        {
          "internalType": "uint256",
          "name": "tokenId",
          "type": "uint256"
        }
      ],
      "name": "getApproved",
      "outputs": [
        {
          "internalType": "address",
          "name": "",
          "type": "address"
        }
      ],
      "stateMutability": "view",
      "type": "function"
    },
    {
      "inputs": [
        {
          "internalType": "address",
          "name": "owner",
          "type": "address"
        },
        {
          "internalType": "address",
          "name": "operator",
          "type": "address"
        }
      ],
      "name": "isApprovedForAll",
      "outputs": [
        {
          "internalType": "bool",
          "name": "",
          "type": "bool"
        }
      ],
      "stateMutability": "view",
      "type": "function"
    },
    {
      "inputs": [
        {
          "internalType": "uint256",
          "name": "tokenId",
          "type": "uint256"
        }
      ],
      "name": "locked",
      "outputs": [
        {
          "internalType": "bool",
          "name": "",
          "type": "bool"
        }
      ],
      "stateMutability": "view",
      "type": "function"
    },
    {
      "inputs": [
        {
          "internalType": "address",
          "name": "_to",
          "type": "address"
        },
        {
          "internalType": "string",
          "name": "_uri",
          "type": "string"
        }
      ],
      "name": "mint",
      "outputs": [
        {
          "internalType": "uint256",
          "name": "",
          "type": "uint256"
        }
      ],
      "stateMutability": "nonpayable",
      "type": "function"
    },
    {
      "inputs": [],
      "name": "name",
      "outputs": [
        {
          "internalType": "string",
          "name": "",
          "type": "string"
        }
      ],
      "stateMutability": "view",
      "type": "function"
    },
    {
      "inputs": [],
      "name": "owner",
      "outputs": [
        {
          "internalType": "address",
          "name": "",
          "type": "address"
        }
      ],
      "stateMutability": "view",
      "type": "function"
    },
    {
      "inputs": [
        {
          "internalType": "uint256",
          "name": "tokenId",
          "type": "uint256"
        }
      ],
      "name": "ownerOf",
      "outputs": [
        {
          "internalType": "address",
          "name": "",
          "type": "address"
        }
      ],
      "stateMutability": "view",
      "type": "function"
    },
    {
      "inputs": [],
      "name": "renounceOwnership",
      "outputs": [],
      "stateMutability": "nonpayable",
      "type": "function"
    },
    {
      "inputs": [],
      "name": "safeLazyMint",
      "outputs": [
        {
          "internalType": "uint256",
          "name": "",
          "type": "uint256"
        }
      ],
      "stateMutability": "nonpayable",
      "type": "function"
    },
    {
      "inputs": [
        {
          "internalType": "uint256",
          "name": "quantity",
          "type": "uint256"
        }
      ],
      "name": "safeLazyMintBatch",
      "outputs": [
        {
          "internalType": "uint256",
          "name": "",
          "type": "uint256"
        }
      ],
      "stateMutability": "nonpayable",
      "type": "function"
    },
    {
      "inputs": [
        {
          "internalType": "address",
          "name": "",
          "type": "address"
        },
        {
          "internalType": "address",
          "name": "",
          "type": "address"
        },
        {
          "internalType": "uint256",
          "name": "",
          "type": "uint256"
        }
      ],
      "name": "safeTransferFrom",
      "outputs": [],
      "stateMutability": "pure",
      "type": "function"
    },
    {
      "inputs": [
        {
          "internalType": "address",
          "name": "",
          "type": "address"
        },
        {
          "internalType": "address",
          "name": "",
          "type": "address"
        },
        {
          "internalType": "uint256",
          "name": "",
          "type": "uint256"
        },
        {
          "internalType": "bytes",
          "name": "",
          "type": "bytes"
        }
      ],
      "name": "safeTransferFrom",
      "outputs": [],
      "stateMutability": "pure",
      "type": "function"
    },
    {
      "inputs": [
        {
          "internalType": "address",
          "name": "operator",
          "type": "address"
        },
        {
          "internalType": "bool",
          "name": "approved",
          "type": "bool"
        }
      ],
      "name": "setApprovalForAll",
      "outputs": [],
      "stateMutability": "nonpayable",
      "type": "function"
    },
    {
      "inputs": [
        {
          "internalType": "string",
          "name": "_contractUri",
          "type": "string"
        }
      ],
      "name": "setContractURI",
      "outputs": [],
      "stateMutability": "nonpayable",
      "type": "function"
    },
    {
      "inputs": [
        {
          "internalType": "string",
          "name": "_defaultTokenURI",
          "type": "string"
        }
      ],
      "name": "setDefaultTokenURI",
      "outputs": [],
      "stateMutability": "nonpayable",
      "type": "function"
    },
    {
      "inputs": [
        {
          "internalType": "address",
          "name": "_metisVote",
          "type": "address"
        }
      ],
      "name": "setMetisVote",
      "outputs": [],
      "stateMutability": "nonpayable",
      "type": "function"
    },
    {
      "inputs": [
        {
          "internalType": "bytes4",
          "name": "interfaceId",
          "type": "bytes4"
        }
      ],
      "name": "supportsInterface",
      "outputs": [
        {
          "internalType": "bool",
          "name": "",
          "type": "bool"
        }
      ],
      "stateMutability": "view",
      "type": "function"
    },
    {
      "inputs": [],
      "name": "symbol",
      "outputs": [
        {
          "internalType": "string",
          "name": "",
          "type": "string"
        }
      ],
      "stateMutability": "view",
      "type": "function"
    },
    {
      "inputs": [
        {
          "internalType": "uint256",
          "name": "tokenId",
          "type": "uint256"
        }
      ],
      "name": "tokenURI",
      "outputs": [
        {
          "internalType": "string",
          "name": "",
          "type": "string"
        }
      ],
      "stateMutability": "view",
      "type": "function"
    },
    {
      "inputs": [
        {
          "internalType": "address",
          "name": "",
          "type": "address"
        },
        {
          "internalType": "address",
          "name": "",
          "type": "address"
        },
        {
          "internalType": "uint256",
          "name": "",
          "type": "uint256"
        }
      ],
      "name": "transferFrom",
      "outputs": [],
      "stateMutability": "pure",
      "type": "function"
    },
    {
      "inputs": [
        {
          "internalType": "address",
          "name": "newOwner",
          "type": "address"
        }
      ],
      "name": "transferOwnership",
      "outputs": [],
      "stateMutability": "nonpayable",
      "type": "function"
    },
    {
      "inputs": [
        {
          "internalType": "uint256",
          "name": "",
          "type": "uint256"
        },
        {
          "internalType": "uint256",
          "name": "",
          "type": "uint256"
        }
      ],
      "name": "votes",
      "outputs": [
        {
          "internalType": "bool",
          "name": "",
          "type": "bool"
        }
      ],
      "stateMutability": "view",
      "type": "function"
    }
  ],
  "transactionHash": "0x328e7592e2d318883be21f01453c4271004f36b0f189c0097dd483b1b9697999",
  "args": [],
  "numDeployments": 1,
  "solcInputHash": "1e2787d9559bc05a7ef1a07dc275b0c9",
  "bytecode": "0x60806040523480156200001157600080fd5b506040518060400160405280600881526020017f4d657469735342540000000000000000000000000000000000000000000000008152506040518060400160405280600481526020017f4d534254000000000000000000000000000000000000000000000000000000008152506200009e620000926200010d60201b60201c565b6200011560201b60201c565b8160019081620000af919062000469565b508060029081620000c1919062000469565b505050620000db6008620001d960201b620015a41760201c565b7f59c56e1d2c6bccfd4f520889c4e61985f0c8313d3bf5c79be5f8283631dfadcb60405160405180910390a162000550565b600033905090565b60008060009054906101000a900473ffffffffffffffffffffffffffffffffffffffff169050816000806101000a81548173ffffffffffffffffffffffffffffffffffffffff021916908373ffffffffffffffffffffffffffffffffffffffff1602179055508173ffffffffffffffffffffffffffffffffffffffff168173ffffffffffffffffffffffffffffffffffffffff167f8be0079c531659141344cd1fd0a4f28419497f9722a3daafe3b4186f6b6457e060405160405180910390a35050565b6001816000016000828254019250508190555050565b600081519050919050565b7f4e487b7100000000000000000000000000000000000000000000000000000000600052604160045260246000fd5b7f4e487b7100000000000000000000000000000000000000000000000000000000600052602260045260246000fd5b600060028204905060018216806200027157607f821691505b60208210810362000287576200028662000229565b5b50919050565b60008190508160005260206000209050919050565b60006020601f8301049050919050565b600082821b905092915050565b600060088302620002f17fffffffffffffffffffffffffffffffffffffffffffffffffffffffffffffffff82620002b2565b620002fd8683620002b2565b95508019841693508086168417925050509392505050565b6000819050919050565b6000819050919050565b60006200034a620003446200033e8462000315565b6200031f565b62000315565b9050919050565b6000819050919050565b620003668362000329565b6200037e620003758262000351565b848454620002bf565b825550505050565b600090565b6200039562000386565b620003a28184846200035b565b505050565b5b81811015620003ca57620003be6000826200038b565b600181019050620003a8565b5050565b601f8211156200041957620003e3816200028d565b620003ee84620002a2565b81016020851015620003fe578190505b620004166200040d85620002a2565b830182620003a7565b50505b505050565b600082821c905092915050565b60006200043e600019846008026200041e565b1980831691505092915050565b60006200045983836200042b565b9150826002028217905092915050565b6200047482620001ef565b67ffffffffffffffff81111562000490576200048f620001fa565b5b6200049c825462000258565b620004a9828285620003ce565b600060209050601f831160018114620004e15760008415620004cc578287015190505b620004d885826200044b565b86555062000548565b601f198416620004f1866200028d565b60005b828110156200051b57848901518255600182019150602085019450602081019050620004f4565b868310156200053b578489015162000537601f8916826200042b565b8355505b6001600288020188555050505b505050505050565b613d6080620005606000396000f3fe608060405234801561001057600080fd5b50600436106101e55760003560e01c80638da5cb5b1161010f578063c6e36a32116100a2578063dd5ffa1e11610071578063dd5ffa1e146105a2578063e985e9c5146105c0578063f2fde38b146105f0578063fcca991b1461060c576101e5565b8063c6e36a32146104f4578063c87b56dd14610524578063d0def52114610554578063d6836d1614610584576101e5565b8063a22cb465116100de578063a22cb4651461046e578063b45a3c0e1461048a578063b88d4fde146104ba578063c0e24d5e146104d6576101e5565b80638da5cb5b146103fa578063938e3d7b1461041857806395d89b4114610434578063a125c82414610452576101e5565b806342842e0e116101875780636df5bc83116101565780636df5bc831461038657806370a08231146103a2578063715018a6146103d257806384c4bd4b146103dc576101e5565b806342842e0e146102ee5780634e7018ba1461030a5780635bd8c4db146103265780636352211e14610356576101e5565b8063081812fc116101c3578063081812fc14610268578063095ea7b3146102985780632147afea146102b457806323b872dd146102d2576101e5565b806301ffc9a7146101ea57806306779e431461021a57806306fdde031461024a575b600080fd5b61020460048036038101906101ff9190612618565b610628565b6040516102119190612660565b60405180910390f35b610234600480360381019061022f91906126b1565b61063a565b60405161024191906126ed565b60405180910390f35b6102526106bc565b60405161025f9190612798565b60405180910390f35b610282600480360381019061027d91906126b1565b61074e565b60405161028f91906127fb565b60405180910390f35b6102b260048036038101906102ad9190612842565b610794565b005b6102bc6108ab565b6040516102c991906127fb565b60405180910390f35b6102ec60048036038101906102e79190612882565b6108d1565b005b61030860048036038101906103039190612882565b61090c565b005b610324600480360381019061031f91906128d5565b610947565b005b610340600480360381019061033b91906126b1565b610a45565b60405161034d9190612660565b60405180910390f35b610370600480360381019061036b91906126b1565b610a65565b60405161037d91906127fb565b60405180910390f35b6103a0600480360381019061039b91906126b1565b610aeb565b005b6103bc60048036038101906103b791906128d5565b610d75565b6040516103c991906126ed565b60405180910390f35b6103da610e2c565b005b6103e4610e40565b6040516103f191906126ed565b60405180910390f35b610402610e4c565b60405161040f91906127fb565b60405180910390f35b610432600480360381019061042d9190612a37565b610e75565b005b61043c610ec8565b6040516104499190612798565b60405180910390f35b61046c60048036038101906104679190612a37565b610f5a565b005b61048860048036038101906104839190612aac565b610fac565b005b6104a4600480360381019061049f91906126b1565b610fc2565b6040516104b19190612660565b60405180910390f35b6104d460048036038101906104cf9190612b8d565b610fec565b005b6104de611027565b6040516104eb9190612798565b60405180910390f35b61050e60048036038101906105099190612c10565b6110b5565b60405161051b9190612660565b60405180910390f35b61053e600480360381019061053991906126b1565b6110e4565b60405161054b9190612798565b60405180910390f35b61056e60048036038101906105699190612c50565b6110f6565b60405161057b91906126ed565b60405180910390f35b61058c611168565b60405161059991906126ed565b60405180910390f35b6105aa6111bd565b6040516105b79190612798565b60405180910390f35b6105da60048036038101906105d59190612cac565b61124b565b6040516105e79190612660565b60405180910390f35b61060a600480360381019061060591906128d5565b6112df565b005b61062660048036038101906106219190612c10565b611362565b005b6000610633826115ba565b9050919050565b600061064461169c565b6000610650600861171a565b905060005b838110156106b257610667600861171a565b91506001600d600084815260200190815260200160002060006101000a81548160ff02191690831515021790555061069f60086115a4565b80806106aa90612d1b565b915050610655565b5080915050919050565b6060600180546106cb90612d92565b80601f01602080910402602001604051908101604052809291908181526020018280546106f790612d92565b80156107445780601f1061071957610100808354040283529160200191610744565b820191906000526020600020905b81548152906001019060200180831161072757829003601f168201915b5050505050905090565b600061075982611728565b6005600083815260200190815260200160002060009054906101000a900473ffffffffffffffffffffffffffffffffffffffff169050919050565b600061079f82610a65565b90508073ffffffffffffffffffffffffffffffffffffffff168373ffffffffffffffffffffffffffffffffffffffff160361080f576040517f08c379a000000000000000000000000000000000000000000000000000000000815260040161080690612e35565b60405180910390fd5b8073ffffffffffffffffffffffffffffffffffffffff1661082e611773565b73ffffffffffffffffffffffffffffffffffffffff16148061085d575061085c81610857611773565b61124b565b5b61089c576040517f08c379a000000000000000000000000000000000000000000000000000000000815260040161089390612ec7565b60405180910390fd5b6108a6838361177b565b505050565b600b60009054906101000a900473ffffffffffffffffffffffffffffffffffffffff1681565b6040517fa744719900000000000000000000000000000000000000000000000000000000815260040161090390612f33565b60405180910390fd5b6040517fa744719900000000000000000000000000000000000000000000000000000000815260040161093e90612f33565b60405180910390fd5b61094f61169c565b600073ffffffffffffffffffffffffffffffffffffffff168173ffffffffffffffffffffffffffffffffffffffff16036109be576040517f08c379a00000000000000000000000000000000000000000000000000000000081526004016109b590612f9f565b60405180910390fd5b80600b60006101000a81548173ffffffffffffffffffffffffffffffffffffffff021916908373ffffffffffffffffffffffffffffffffffffffff1602179055508073ffffffffffffffffffffffffffffffffffffffff167f231d477d54441294893850f1659d67c94a6b4135121d64aedf9ec4e7342a6e5c60405160405180910390a250565b600d6020528060005260406000206000915054906101000a900460ff1681565b600080610a7183611834565b9050600073ffffffffffffffffffffffffffffffffffffffff168173ffffffffffffffffffffffffffffffffffffffff1603610ae2576040517f08c379a0000000000000000000000000000000000000000000000000000000008152600401610ad99061300b565b60405180910390fd5b80915050919050565b6000610af633610d75565b14610b36576040517f08c379a0000000000000000000000000000000000000000000000000000000008152600401610b2d90613077565b60405180910390fd5b600d600082815260200190815260200160002060009054906101000a900460ff16610b96576040517f08c379a0000000000000000000000000000000000000000000000000000000008152600401610b8d90613109565b60405180910390fd5b600c600082815260200190815260200160002060009054906101000a900460ff1615610bf7576040517f08c379a0000000000000000000000000000000000000000000000000000000008152600401610bee90613175565b60405180910390fd5b6000600d600083815260200190815260200160002060006101000a81548160ff0219169083151502179055506001600c600083815260200190815260200160002060006101000a81548160ff021916908315150217905550610c593382611871565b610ced81600a8054610c6a90612d92565b80601f0160208091040260200160405190810160405280929190818152602001828054610c9690612d92565b8015610ce35780601f10610cb857610100808354040283529160200191610ce3565b820191906000526020600020905b815481529060010190602001808311610cc657829003601f168201915b505050505061188f565b7f032bc66be43dbccb7487781d168eb7bda224628a3b2c3388bdf69b532a3a161181604051610d1c91906126ed565b60405180910390a13373ffffffffffffffffffffffffffffffffffffffff167f5fb46cbb0a8c3d663d6513c20033986830d071462486d78fddce8699b360542d82604051610d6a91906126ed565b60405180910390a250565b60008073ffffffffffffffffffffffffffffffffffffffff168273ffffffffffffffffffffffffffffffffffffffff1603610de5576040517f08c379a0000000000000000000000000000000000000000000000000000000008152600401610ddc90613207565b60405180910390fd5b600460008373ffffffffffffffffffffffffffffffffffffffff1673ffffffffffffffffffffffffffffffffffffffff168152602001908152602001600020549050919050565b610e3461169c565b610e3e60006118fc565b565b60088060000154905081565b60008060009054906101000a900473ffffffffffffffffffffffffffffffffffffffff16905090565b610e7d61169c565b8060099081610e8c91906133d3565b507f905d981207a7d0b6c62cc46ab0be2a076d0298e4a86d0ab79882dbd01ac373786009604051610ebd9190613529565b60405180910390a150565b606060028054610ed790612d92565b80601f0160208091040260200160405190810160405280929190818152602001828054610f0390612d92565b8015610f505780601f10610f2557610100808354040283529160200191610f50565b820191906000526020600020905b815481529060010190602001808311610f3357829003601f168201915b5050505050905090565b610f6261169c565b80600a9081610f7191906133d3565b507f1b1b4769b1db894fd6850dcd99a0f574534d3b16b5cc0cee72af296ad192fdfb81604051610fa19190612798565b60405180910390a150565b610fbe610fb7611773565b83836119c0565b5050565b6000600c600083815260200190815260200160002060009054906101000a900460ff169050919050565b6040517fa744719900000000000000000000000000000000000000000000000000000000815260040161101e90612f33565b60405180910390fd5b6009805461103490612d92565b80601f016020809104026020016040519081016040528092919081815260200182805461106090612d92565b80156110ad5780601f10611082576101008083540402835291602001916110ad565b820191906000526020600020905b81548152906001019060200180831161109057829003601f168201915b505050505081565b600e6020528160005260406000206020528060005260406000206000915091509054906101000a900460ff1681565b60606110ef82611b2c565b9050919050565b600061110061169c565b600061110c8484611c3e565b90508373ffffffffffffffffffffffffffffffffffffffff167f408e6700c8c8bf1093a9f3dad1e45f50c0ef36787da829f31d76ad2861ad0512828560405161115692919061354b565b60405180910390a28091505092915050565b600061117261169c565b600061117e600861171a565b90506001600d600083815260200190815260200160002060006101000a81548160ff0219169083151502179055506111b660086115a4565b8091505090565b600a80546111ca90612d92565b80601f01602080910402602001604051908101604052809291908181526020018280546111f690612d92565b80156112435780601f1061121857610100808354040283529160200191611243565b820191906000526020600020905b81548152906001019060200180831161122657829003601f168201915b505050505081565b6000600660008473ffffffffffffffffffffffffffffffffffffffff1673ffffffffffffffffffffffffffffffffffffffff16815260200190815260200160002060008373ffffffffffffffffffffffffffffffffffffffff1673ffffffffffffffffffffffffffffffffffffffff16815260200190815260200160002060009054906101000a900460ff16905092915050565b6112e761169c565b600073ffffffffffffffffffffffffffffffffffffffff168173ffffffffffffffffffffffffffffffffffffffff1603611356576040517f08c379a000000000000000000000000000000000000000000000000000000000815260040161134d906135ed565b60405180910390fd5b61135f816118fc565b50565b600b60009054906101000a900473ffffffffffffffffffffffffffffffffffffffff1673ffffffffffffffffffffffffffffffffffffffff163373ffffffffffffffffffffffffffffffffffffffff16146113f2576040517f08c379a00000000000000000000000000000000000000000000000000000000081526004016113e99061367f565b60405180910390fd5b600d600082815260200190815260200160002060009054906101000a900460ff1615611453576040517f08c379a000000000000000000000000000000000000000000000000000000000815260040161144a906136eb565b60405180910390fd5b600c600082815260200190815260200160002060009054906101000a900460ff166114b3576040517f08c379a00000000000000000000000000000000000000000000000000000000081526004016114aa90613757565b60405180910390fd5b600073ffffffffffffffffffffffffffffffffffffffff166114d482610a65565b73ffffffffffffffffffffffffffffffffffffffff160361152a576040517f08c379a0000000000000000000000000000000000000000000000000000000008152600401611521906137c3565b60405180910390fd5b6001600e6000848152602001908152602001600020600083815260200190815260200160002060006101000a81548160ff0219169083151502179055507fd4d383f8ed189d1368006d33d0ae7bf1e4fe9f3f86f205ae60d7a50bbba58b3881836040516115989291906137e3565b60405180910390a15050565b6001816000016000828254019250508190555050565b60007f80ac58cd000000000000000000000000000000000000000000000000000000007bffffffffffffffffffffffffffffffffffffffffffffffffffffffff1916827bffffffffffffffffffffffffffffffffffffffffffffffffffffffff1916148061168557507f5b5e139f000000000000000000000000000000000000000000000000000000007bffffffffffffffffffffffffffffffffffffffffffffffffffffffff1916827bffffffffffffffffffffffffffffffffffffffffffffffffffffffff1916145b80611695575061169482611d17565b5b9050919050565b6116a4611773565b73ffffffffffffffffffffffffffffffffffffffff166116c2610e4c565b73ffffffffffffffffffffffffffffffffffffffff1614611718576040517f08c379a000000000000000000000000000000000000000000000000000000000815260040161170f90613858565b60405180910390fd5b565b600081600001549050919050565b61173181611d81565b611770576040517f08c379a00000000000000000000000000000000000000000000000000000000081526004016117679061300b565b60405180910390fd5b50565b600033905090565b816005600083815260200190815260200160002060006101000a81548173ffffffffffffffffffffffffffffffffffffffff021916908373ffffffffffffffffffffffffffffffffffffffff160217905550808273ffffffffffffffffffffffffffffffffffffffff166117ee83610a65565b73ffffffffffffffffffffffffffffffffffffffff167f8c5be1e5ebec7d5bd14f71427d1e84f3dd0314c0f7b2291e5b200ac8c7c3b92560405160405180910390a45050565b60006003600083815260200190815260200160002060009054906101000a900473ffffffffffffffffffffffffffffffffffffffff169050919050565b61188b828260405180602001604052806000815250611dc2565b5050565b61189882611d81565b6118d7576040517f08c379a00000000000000000000000000000000000000000000000000000000081526004016118ce906138ea565b60405180910390fd5b806007600084815260200190815260200160002090816118f791906133d3565b505050565b60008060009054906101000a900473ffffffffffffffffffffffffffffffffffffffff169050816000806101000a81548173ffffffffffffffffffffffffffffffffffffffff021916908373ffffffffffffffffffffffffffffffffffffffff1602179055508173ffffffffffffffffffffffffffffffffffffffff168173ffffffffffffffffffffffffffffffffffffffff167f8be0079c531659141344cd1fd0a4f28419497f9722a3daafe3b4186f6b6457e060405160405180910390a35050565b8173ffffffffffffffffffffffffffffffffffffffff168373ffffffffffffffffffffffffffffffffffffffff1603611a2e576040517f08c379a0000000000000000000000000000000000000000000000000000000008152600401611a2590613956565b60405180910390fd5b80600660008573ffffffffffffffffffffffffffffffffffffffff1673ffffffffffffffffffffffffffffffffffffffff16815260200190815260200160002060008473ffffffffffffffffffffffffffffffffffffffff1673ffffffffffffffffffffffffffffffffffffffff16815260200190815260200160002060006101000a81548160ff0219169083151502179055508173ffffffffffffffffffffffffffffffffffffffff168373ffffffffffffffffffffffffffffffffffffffff167f17307eab39ab6107e8899845ad3d59bd9653f200f220920489ca2b5937696c3183604051611b1f9190612660565b60405180910390a3505050565b6060611b3782611728565b6000600760008481526020019081526020016000208054611b5790612d92565b80601f0160208091040260200160405190810160405280929190818152602001828054611b8390612d92565b8015611bd05780601f10611ba557610100808354040283529160200191611bd0565b820191906000526020600020905b815481529060010190602001808311611bb357829003601f168201915b505050505090506000611be1611e1d565b90506000815103611bf6578192505050611c39565b600082511115611c2b578082604051602001611c139291906139b2565b60405160208183030381529060405292505050611c39565b611c3484611e34565b925050505b919050565b6000611c4861169c565b611c528383611e9c565b6000611c5e600861171a565b90506001600c600083815260200190815260200160002060006101000a81548160ff0219169083151502179055506000600d600083815260200190815260200160002060006101000a81548160ff021916908315150217905550611cc28482611871565b611ccc818461188f565b611cd660086115a4565b7f032bc66be43dbccb7487781d168eb7bda224628a3b2c3388bdf69b532a3a161181604051611d0591906126ed565b60405180910390a18091505092915050565b60007f01ffc9a7000000000000000000000000000000000000000000000000000000007bffffffffffffffffffffffffffffffffffffffffffffffffffffffff1916827bffffffffffffffffffffffffffffffffffffffffffffffffffffffff1916149050919050565b60008073ffffffffffffffffffffffffffffffffffffffff16611da383611834565b73ffffffffffffffffffffffffffffffffffffffff1614159050919050565b611dcc8383611fa6565b611dd960008484846121c3565b611e18576040517f08c379a0000000000000000000000000000000000000000000000000000000008152600401611e0f90613a48565b60405180910390fd5b505050565b606060405180602001604052806000815250905090565b6060611e3f82611728565b6000611e49611e1d565b90506000815111611e695760405180602001604052806000815250611e94565b80611e738461234a565b604051602001611e849291906139b2565b6040516020818303038152906040525b915050919050565b611ea461169c565b600073ffffffffffffffffffffffffffffffffffffffff168273ffffffffffffffffffffffffffffffffffffffff1603611f13576040517f08c379a0000000000000000000000000000000000000000000000000000000008152600401611f0a90613ab4565b60405180910390fd5b6000611f1e83610d75565b14611f5e576040517f08c379a0000000000000000000000000000000000000000000000000000000008152600401611f5590613077565b60405180910390fd5b6000815111611fa2576040517f08c379a0000000000000000000000000000000000000000000000000000000008152600401611f9990613b20565b60405180910390fd5b5050565b600073ffffffffffffffffffffffffffffffffffffffff168273ffffffffffffffffffffffffffffffffffffffff1603612015576040517f08c379a000000000000000000000000000000000000000000000000000000000815260040161200c90613b8c565b60405180910390fd5b61201e81611d81565b1561205e576040517f08c379a000000000000000000000000000000000000000000000000000000000815260040161205590613bf8565b60405180910390fd5b61206c600083836001612418565b61207581611d81565b156120b5576040517f08c379a00000000000000000000000000000000000000000000000000000000081526004016120ac90613bf8565b60405180910390fd5b6001600460008473ffffffffffffffffffffffffffffffffffffffff1673ffffffffffffffffffffffffffffffffffffffff16815260200190815260200160002060008282540192505081905550816003600083815260200190815260200160002060006101000a81548173ffffffffffffffffffffffffffffffffffffffff021916908373ffffffffffffffffffffffffffffffffffffffff160217905550808273ffffffffffffffffffffffffffffffffffffffff16600073ffffffffffffffffffffffffffffffffffffffff167fddf252ad1be2c89b69c2b068fc378daa952ba7f163c4a11628f55a4df523b3ef60405160405180910390a46121bf60008383600161242a565b5050565b60006121e48473ffffffffffffffffffffffffffffffffffffffff16612430565b1561233d578373ffffffffffffffffffffffffffffffffffffffff1663150b7a0261220d611773565b8786866040518563ffffffff1660e01b815260040161222f9493929190613c6d565b6020604051808303816000875af192505050801561226b57506040513d601f19601f820116820180604052508101906122689190613cce565b60015b6122ed573d806000811461229b576040519150601f19603f3d011682016040523d82523d6000602084013e6122a0565b606091505b5060008151036122e5576040517f08c379a00000000000000000000000000000000000000000000000000000000081526004016122dc90613a48565b60405180910390fd5b805181602001fd5b63150b7a0260e01b7bffffffffffffffffffffffffffffffffffffffffffffffffffffffff1916817bffffffffffffffffffffffffffffffffffffffffffffffffffffffff191614915050612342565b600190505b949350505050565b60606000600161235984612453565b01905060008167ffffffffffffffff8111156123785761237761290c565b5b6040519080825280601f01601f1916602001820160405280156123aa5781602001600182028036833780820191505090505b509050600082602001820190505b60011561240d578080600190039150507f3031323334353637383961626364656600000000000000000000000000000000600a86061a8153600a858161240157612400613cfb565b5b049450600085036123b8575b819350505050919050565b612424848484846125a6565b50505050565b50505050565b6000808273ffffffffffffffffffffffffffffffffffffffff163b119050919050565b600080600090507a184f03e93ff9f4daa797ed6e38ed64bf6a1f01000000000000000083106124b1577a184f03e93ff9f4daa797ed6e38ed64bf6a1f01000000000000000083816124a7576124a6613cfb565b5b0492506040810190505b6d04ee2d6d415b85acef810000000083106124ee576d04ee2d6d415b85acef810000000083816124e4576124e3613cfb565b5b0492506020810190505b662386f26fc10000831061251d57662386f26fc10000838161251357612512613cfb565b5b0492506010810190505b6305f5e1008310612546576305f5e100838161253c5761253b613cfb565b5b0492506008810190505b612710831061256b57612710838161256157612560613cfb565b5b0492506004810190505b6064831061258e576064838161258457612583613cfb565b5b0492506002810190505b600a831061259d576001810190505b80915050919050565b50505050565b6000604051905090565b600080fd5b600080fd5b60007fffffffff0000000000000000000000000000000000000000000000000000000082169050919050565b6125f5816125c0565b811461260057600080fd5b50565b600081359050612612816125ec565b92915050565b60006020828403121561262e5761262d6125b6565b5b600061263c84828501612603565b91505092915050565b60008115159050919050565b61265a81612645565b82525050565b60006020820190506126756000830184612651565b92915050565b6000819050919050565b61268e8161267b565b811461269957600080fd5b50565b6000813590506126ab81612685565b92915050565b6000602082840312156126c7576126c66125b6565b5b60006126d58482850161269c565b91505092915050565b6126e78161267b565b82525050565b600060208201905061270260008301846126de565b92915050565b600081519050919050565b600082825260208201905092915050565b60005b83811015612742578082015181840152602081019050612727565b60008484015250505050565b6000601f19601f8301169050919050565b600061276a82612708565b6127748185612713565b9350612784818560208601612724565b61278d8161274e565b840191505092915050565b600060208201905081810360008301526127b2818461275f565b905092915050565b600073ffffffffffffffffffffffffffffffffffffffff82169050919050565b60006127e5826127ba565b9050919050565b6127f5816127da565b82525050565b600060208201905061281060008301846127ec565b92915050565b61281f816127da565b811461282a57600080fd5b50565b60008135905061283c81612816565b92915050565b60008060408385031215612859576128586125b6565b5b60006128678582860161282d565b92505060206128788582860161269c565b9150509250929050565b60008060006060848603121561289b5761289a6125b6565b5b60006128a98682870161282d565b93505060206128ba8682870161282d565b92505060406128cb8682870161269c565b9150509250925092565b6000602082840312156128eb576128ea6125b6565b5b60006128f98482850161282d565b91505092915050565b600080fd5b600080fd5b7f4e487b7100000000000000000000000000000000000000000000000000000000600052604160045260246000fd5b6129448261274e565b810181811067ffffffffffffffff821117156129635761296261290c565b5b80604052505050565b60006129766125ac565b9050612982828261293b565b919050565b600067ffffffffffffffff8211156129a2576129a161290c565b5b6129ab8261274e565b9050602081019050919050565b82818337600083830152505050565b60006129da6129d584612987565b61296c565b9050828152602081018484840111156129f6576129f5612907565b5b612a018482856129b8565b509392505050565b600082601f830112612a1e57612a1d612902565b5b8135612a2e8482602086016129c7565b91505092915050565b600060208284031215612a4d57612a4c6125b6565b5b600082013567ffffffffffffffff811115612a6b57612a6a6125bb565b5b612a7784828501612a09565b91505092915050565b612a8981612645565b8114612a9457600080fd5b50565b600081359050612aa681612a80565b92915050565b60008060408385031215612ac357612ac26125b6565b5b6000612ad18582860161282d565b9250506020612ae285828601612a97565b9150509250929050565b600067ffffffffffffffff821115612b0757612b0661290c565b5b612b108261274e565b9050602081019050919050565b6000612b30612b2b84612aec565b61296c565b905082815260208101848484011115612b4c57612b4b612907565b5b612b578482856129b8565b509392505050565b600082601f830112612b7457612b73612902565b5b8135612b84848260208601612b1d565b91505092915050565b60008060008060808587031215612ba757612ba66125b6565b5b6000612bb58782880161282d565b9450506020612bc68782880161282d565b9350506040612bd78782880161269c565b925050606085013567ffffffffffffffff811115612bf857612bf76125bb565b5b612c0487828801612b5f565b91505092959194509250565b60008060408385031215612c2757612c266125b6565b5b6000612c358582860161269c565b9250506020612c468582860161269c565b9150509250929050565b60008060408385031215612c6757612c666125b6565b5b6000612c758582860161282d565b925050602083013567ffffffffffffffff811115612c9657612c956125bb565b5b612ca285828601612a09565b9150509250929050565b60008060408385031215612cc357612cc26125b6565b5b6000612cd18582860161282d565b9250506020612ce28582860161282d565b9150509250929050565b7f4e487b7100000000000000000000000000000000000000000000000000000000600052601160045260246000fd5b6000612d268261267b565b91507fffffffffffffffffffffffffffffffffffffffffffffffffffffffffffffffff8203612d5857612d57612cec565b5b600182019050919050565b7f4e487b7100000000000000000000000000000000000000000000000000000000600052602260045260246000fd5b60006002820490506001821680612daa57607f821691505b602082108103612dbd57612dbc612d63565b5b50919050565b7f4552433732313a20617070726f76616c20746f2063757272656e74206f776e6560008201527f7200000000000000000000000000000000000000000000000000000000000000602082015250565b6000612e1f602183612713565b9150612e2a82612dc3565b604082019050919050565b60006020820190508181036000830152612e4e81612e12565b9050919050565b7f4552433732313a20617070726f76652063616c6c6572206973206e6f7420746f60008201527f6b656e206f776e6572206f7220617070726f76656420666f7220616c6c000000602082015250565b6000612eb1603d83612713565b9150612ebc82612e55565b604082019050919050565b60006020820190508181036000830152612ee081612ea4565b9050919050565b7f4e4f205452414e534645522046524f4d20414c4c4f5745440000000000000000600082015250565b6000612f1d601883612713565b9150612f2882612ee7565b602082019050919050565b60006020820190508181036000830152612f4c81612f10565b9050919050565b7f4d657469735342543a20494e56414c4944204144445245535300000000000000600082015250565b6000612f89601983612713565b9150612f9482612f53565b602082019050919050565b60006020820190508181036000830152612fb881612f7c565b9050919050565b7f4552433732313a20696e76616c696420746f6b656e2049440000000000000000600082015250565b6000612ff5601883612713565b915061300082612fbf565b602082019050919050565b6000602082019050818103600083015261302481612fe8565b9050919050565b7f4d657469735342543a205573657220616c726561647920686173205342540000600082015250565b6000613061601e83612713565b915061306c8261302b565b602082019050919050565b6000602082019050818103600083015261309081613054565b9050919050565b7f4d657469735342543a20546f6b656e206e6f7420617661696c61626c6520746f60008201527f206d696e74000000000000000000000000000000000000000000000000000000602082015250565b60006130f3602583612713565b91506130fe82613097565b604082019050919050565b60006020820190508181036000830152613122816130e6565b9050919050565b7f4d657469735342543a20546f6b656e206c6f636b656400000000000000000000600082015250565b600061315f601683612713565b915061316a82613129565b602082019050919050565b6000602082019050818103600083015261318e81613152565b9050919050565b7f4552433732313a2061646472657373207a65726f206973206e6f74206120766160008201527f6c6964206f776e65720000000000000000000000000000000000000000000000602082015250565b60006131f1602983612713565b91506131fc82613195565b604082019050919050565b60006020820190508181036000830152613220816131e4565b9050919050565b60008190508160005260206000209050919050565b60006020601f8301049050919050565b600082821b905092915050565b6000600883026132897fffffffffffffffffffffffffffffffffffffffffffffffffffffffffffffffff8261324c565b613293868361324c565b95508019841693508086168417925050509392505050565b6000819050919050565b60006132d06132cb6132c68461267b565b6132ab565b61267b565b9050919050565b6000819050919050565b6132ea836132b5565b6132fe6132f6826132d7565b848454613259565b825550505050565b600090565b613313613306565b61331e8184846132e1565b505050565b5b818110156133425761333760008261330b565b600181019050613324565b5050565b601f8211156133875761335881613227565b6133618461323c565b81016020851015613370578190505b61338461337c8561323c565b830182613323565b50505b505050565b600082821c905092915050565b60006133aa6000198460080261338c565b1980831691505092915050565b60006133c38383613399565b9150826002028217905092915050565b6133dc82612708565b67ffffffffffffffff8111156133f5576133f461290c565b5b6133ff8254612d92565b61340a828285613346565b600060209050601f83116001811461343d576000841561342b578287015190505b61343585826133b7565b86555061349d565b601f19841661344b86613227565b60005b828110156134735784890151825560018201915060208501945060208101905061344e565b86831015613490578489015161348c601f891682613399565b8355505b6001600288020188555050505b505050505050565b600081546134b281612d92565b6134bc8186612713565b945060018216600081146134d757600181146134ed57613520565b60ff198316865281151560200286019350613520565b6134f685613227565b60005b83811015613518578154818901526001820191506020810190506134f9565b808801955050505b50505092915050565b6000602082019050818103600083015261354381846134a5565b905092915050565b600060408201905061356060008301856126de565b8181036020830152613572818461275f565b90509392505050565b7f4f776e61626c653a206e6577206f776e657220697320746865207a65726f206160008201527f6464726573730000000000000000000000000000000000000000000000000000602082015250565b60006135d7602683612713565b91506135e28261357b565b604082019050919050565b60006020820190508181036000830152613606816135ca565b9050919050565b7f4d657469735342543a204f4e4c59204d4554495320564f544520434f4e54524160008201527f4354000000000000000000000000000000000000000000000000000000000000602082015250565b6000613669602283612713565b91506136748261360d565b604082019050919050565b600060208201905081810360008301526136988161365c565b9050919050565b7f4d657469735342543a20546f6b656e206973206672656520746f206d696e7400600082015250565b60006136d5601f83612713565b91506136e08261369f565b602082019050919050565b60006020820190508181036000830152613704816136c8565b9050919050565b7f4d657469735342543a20746f6b656e206973206672656520746f206d696e7400600082015250565b6000613741601f83612713565b915061374c8261370b565b602082019050919050565b6000602082019050818103600083015261377081613734565b9050919050565b7f4d657469735342543a20746f6b656e20686173206e6f206f776e657200000000600082015250565b60006137ad601c83612713565b91506137b882613777565b602082019050919050565b600060208201905081810360008301526137dc816137a0565b9050919050565b60006040820190506137f860008301856126de565b61380560208301846126de565b9392505050565b7f4f776e61626c653a2063616c6c6572206973206e6f7420746865206f776e6572600082015250565b6000613842602083612713565b915061384d8261380c565b602082019050919050565b6000602082019050818103600083015261387181613835565b9050919050565b7f45524337323155524953746f726167653a2055524920736574206f66206e6f6e60008201527f6578697374656e7420746f6b656e000000000000000000000000000000000000602082015250565b60006138d4602e83612713565b91506138df82613878565b604082019050919050565b60006020820190508181036000830152613903816138c7565b9050919050565b7f4552433732313a20617070726f766520746f2063616c6c657200000000000000600082015250565b6000613940601983612713565b915061394b8261390a565b602082019050919050565b6000602082019050818103600083015261396f81613933565b9050919050565b600081905092915050565b600061398c82612708565b6139968185613976565b93506139a6818560208601612724565b80840191505092915050565b60006139be8285613981565b91506139ca8284613981565b91508190509392505050565b7f4552433732313a207472616e7366657220746f206e6f6e20455243373231526560008201527f63656976657220696d706c656d656e7465720000000000000000000000000000602082015250565b6000613a32603283612713565b9150613a3d826139d6565b604082019050919050565b60006020820190508181036000830152613a6181613a25565b9050919050565b7f4d657469735342543a20496e76616c6964206164647265737300000000000000600082015250565b6000613a9e601983612713565b9150613aa982613a68565b602082019050919050565b60006020820190508181036000830152613acd81613a91565b9050919050565b7f4d657469735342543a20456d7074792055524900000000000000000000000000600082015250565b6000613b0a601383612713565b9150613b1582613ad4565b602082019050919050565b60006020820190508181036000830152613b3981613afd565b9050919050565b7f4552433732313a206d696e7420746f20746865207a65726f2061646472657373600082015250565b6000613b76602083612713565b9150613b8182613b40565b602082019050919050565b60006020820190508181036000830152613ba581613b69565b9050919050565b7f4552433732313a20746f6b656e20616c7265616479206d696e74656400000000600082015250565b6000613be2601c83612713565b9150613bed82613bac565b602082019050919050565b60006020820190508181036000830152613c1181613bd5565b9050919050565b600081519050919050565b600082825260208201905092915050565b6000613c3f82613c18565b613c498185613c23565b9350613c59818560208601612724565b613c628161274e565b840191505092915050565b6000608082019050613c8260008301876127ec565b613c8f60208301866127ec565b613c9c60408301856126de565b8181036060830152613cae8184613c34565b905095945050505050565b600081519050613cc8816125ec565b92915050565b600060208284031215613ce457613ce36125b6565b5b6000613cf284828501613cb9565b91505092915050565b7f4e487b7100000000000000000000000000000000000000000000000000000000600052601260045260246000fdfea26469706673582212205d5a6987cd9b84e11f866279549891e31aa3f31abe336c3d27158c6b6f6ee3e164736f6c63430008120033",
  "devdoc": {
    "events": {
      "Approval(address,address,uint256)": {
        "details": "Emitted when `owner` enables `approved` to manage the `tokenId` token."
      },
      "ApprovalForAll(address,address,bool)": {
        "details": "Emitted when `owner` enables or disables (`approved`) `operator` to manage all of its assets."
      },
      "Locked(uint256)": {
        "details": "If a token is minted and the status is locked, this event should be emitted.",
        "params": {
          "tokenId": "The identifier for a token."
        }
      },
      "Transfer(address,address,uint256)": {
        "details": "Emitted when `tokenId` token is transferred from `from` to `to`."
      },
      "Unlocked(uint256)": {
        "details": "If a token is minted and the status is unlocked, this event should be emitted.",
        "params": {
          "tokenId": "The identifier for a token."
        }
      }
    },
    "kind": "dev",
    "methods": {
      "approve(address,uint256)": {
        "details": "See {IERC721-approve}."
      },
      "balanceOf(address)": {
        "details": "See {IERC721-balanceOf}."
      },
      "getApproved(uint256)": {
        "details": "See {IERC721-getApproved}."
      },
      "isApprovedForAll(address,address)": {
        "details": "See {IERC721-isApprovedForAll}."
      },
      "locked(uint256)": {
        "details": "SBTs assigned to zero address are considered invalid, and queries about them do throw.",
        "params": {
          "tokenId": "The identifier for an SBT."
        }
      },
      "name()": {
        "details": "See {IERC721Metadata-name}."
      },
      "owner()": {
        "details": "Returns the address of the current owner."
      },
      "ownerOf(uint256)": {
        "details": "See {IERC721-ownerOf}."
      },
      "renounceOwnership()": {
        "details": "Leaves the contract without owner. It will not be possible to call `onlyOwner` functions anymore. Can only be called by the current owner. NOTE: Renouncing ownership will leave the contract without an owner, thereby removing any functionality that is only available to the owner."
      },
      "safeLazyMint()": {
        "returns": {
          "_0": "id of the next NFT to be minted"
        }
      },
      "safeLazyMintBatch(uint256)": {
        "params": {
          "quantity": "amount of NFTs to be minted"
        },
        "returns": {
          "_0": "id of the next NFT to be minted"
        }
      },
      "setApprovalForAll(address,bool)": {
        "details": "See {IERC721-setApprovalForAll}."
      },
      "setContractURI(string)": {
        "params": {
          "_contractUri": "contractUri"
        }
      },
      "supportsInterface(bytes4)": {
        "details": "See {IERC165-supportsInterface}."
      },
      "symbol()": {
        "details": "See {IERC721Metadata-symbol}."
      },
      "tokenURI(uint256)": {
        "custom:notice": "The following function is override required by Solidity."
      },
      "transferOwnership(address)": {
        "details": "Transfers ownership of the contract to a new account (`newOwner`). Can only be called by the current owner."
      }
    },
    "stateVariables": {
      "_tokenIdCounter": {
        "details": "Public counter to make internal security checks"
      },
      "contractUri": {
        "details": "ContractUri"
      }
    },
    "version": 1
  },
  "userdoc": {
    "events": {
      "Locked(uint256)": {
        "notice": "Emitted when the locking status is changed to locked."
      },
      "Unlocked(uint256)": {
        "notice": "Emitted when the locking status is changed to unlocked."
      }
    },
    "kind": "user",
    "methods": {
      "locked(uint256)": {
        "notice": "Returns the locking status of an Soulbound Token"
      },
      "safeLazyMint()": {
        "notice": "Lazy Mint NFTs"
      },
      "safeLazyMintBatch(uint256)": {
        "notice": "Laxy Batch Mint NFTs"
      },
      "setContractURI(string)": {
        "notice": "Modify contractUri for NFT collection"
      }
    },
    "version": 1
  },
  "storageLayout": {
    "storage": [
      {
        "astId": 7,
        "contract": "contracts/MetisSBT.sol:MetisSBT",
        "label": "_owner",
        "offset": 0,
        "slot": "0",
        "type": "t_address"
      },
      {
        "astId": 138,
        "contract": "contracts/MetisSBT.sol:MetisSBT",
        "label": "_name",
        "offset": 0,
        "slot": "1",
        "type": "t_string_storage"
      },
      {
        "astId": 140,
        "contract": "contracts/MetisSBT.sol:MetisSBT",
        "label": "_symbol",
        "offset": 0,
        "slot": "2",
        "type": "t_string_storage"
      },
      {
        "astId": 144,
        "contract": "contracts/MetisSBT.sol:MetisSBT",
        "label": "_owners",
        "offset": 0,
        "slot": "3",
        "type": "t_mapping(t_uint256,t_address)"
      },
      {
        "astId": 148,
        "contract": "contracts/MetisSBT.sol:MetisSBT",
        "label": "_balances",
        "offset": 0,
        "slot": "4",
        "type": "t_mapping(t_address,t_uint256)"
      },
      {
        "astId": 152,
        "contract": "contracts/MetisSBT.sol:MetisSBT",
        "label": "_tokenApprovals",
        "offset": 0,
        "slot": "5",
        "type": "t_mapping(t_uint256,t_address)"
      },
      {
        "astId": 158,
        "contract": "contracts/MetisSBT.sol:MetisSBT",
        "label": "_operatorApprovals",
        "offset": 0,
        "slot": "6",
        "type": "t_mapping(t_address,t_mapping(t_address,t_bool))"
      },
      {
        "astId": 1186,
        "contract": "contracts/MetisSBT.sol:MetisSBT",
        "label": "_tokenURIs",
        "offset": 0,
        "slot": "7",
        "type": "t_mapping(t_uint256,t_string_storage)"
      },
      {
        "astId": 2850,
        "contract": "contracts/MetisSBT.sol:MetisSBT",
        "label": "_tokenIdCounter",
        "offset": 0,
        "slot": "8",
        "type": "t_struct(Counter)1683_storage"
      },
      {
        "astId": 2853,
        "contract": "contracts/MetisSBT.sol:MetisSBT",
        "label": "contractUri",
        "offset": 0,
        "slot": "9",
        "type": "t_string_storage"
      },
      {
        "astId": 2855,
        "contract": "contracts/MetisSBT.sol:MetisSBT",
        "label": "defaultTokenUri",
        "offset": 0,
        "slot": "10",
        "type": "t_string_storage"
      },
      {
        "astId": 2857,
        "contract": "contracts/MetisSBT.sol:MetisSBT",
        "label": "METIS_VOTE",
        "offset": 0,
        "slot": "11",
        "type": "t_address"
      },
      {
        "astId": 2861,
        "contract": "contracts/MetisSBT.sol:MetisSBT",
        "label": "lockedSBTs",
        "offset": 0,
        "slot": "12",
        "type": "t_mapping(t_uint256,t_bool)"
      },
      {
        "astId": 2865,
        "contract": "contracts/MetisSBT.sol:MetisSBT",
        "label": "availableToMint",
        "offset": 0,
        "slot": "13",
        "type": "t_mapping(t_uint256,t_bool)"
      },
      {
        "astId": 2871,
        "contract": "contracts/MetisSBT.sol:MetisSBT",
        "label": "votes",
        "offset": 0,
        "slot": "14",
        "type": "t_mapping(t_uint256,t_mapping(t_uint256,t_bool))"
      }
    ],
    "types": {
      "t_address": {
        "encoding": "inplace",
        "label": "address",
        "numberOfBytes": "20"
      },
      "t_bool": {
        "encoding": "inplace",
        "label": "bool",
        "numberOfBytes": "1"
      },
      "t_mapping(t_address,t_bool)": {
        "encoding": "mapping",
        "key": "t_address",
        "label": "mapping(address => bool)",
        "numberOfBytes": "32",
        "value": "t_bool"
      },
      "t_mapping(t_address,t_mapping(t_address,t_bool))": {
        "encoding": "mapping",
        "key": "t_address",
        "label": "mapping(address => mapping(address => bool))",
        "numberOfBytes": "32",
        "value": "t_mapping(t_address,t_bool)"
      },
      "t_mapping(t_address,t_uint256)": {
        "encoding": "mapping",
        "key": "t_address",
        "label": "mapping(address => uint256)",
        "numberOfBytes": "32",
        "value": "t_uint256"
      },
      "t_mapping(t_uint256,t_address)": {
        "encoding": "mapping",
        "key": "t_uint256",
        "label": "mapping(uint256 => address)",
        "numberOfBytes": "32",
        "value": "t_address"
      },
      "t_mapping(t_uint256,t_bool)": {
        "encoding": "mapping",
        "key": "t_uint256",
        "label": "mapping(uint256 => bool)",
        "numberOfBytes": "32",
        "value": "t_bool"
      },
      "t_mapping(t_uint256,t_mapping(t_uint256,t_bool))": {
        "encoding": "mapping",
        "key": "t_uint256",
        "label": "mapping(uint256 => mapping(uint256 => bool))",
        "numberOfBytes": "32",
        "value": "t_mapping(t_uint256,t_bool)"
      },
      "t_mapping(t_uint256,t_string_storage)": {
        "encoding": "mapping",
        "key": "t_uint256",
        "label": "mapping(uint256 => string)",
        "numberOfBytes": "32",
        "value": "t_string_storage"
      },
      "t_string_storage": {
        "encoding": "bytes",
        "label": "string",
        "numberOfBytes": "32"
      },
      "t_struct(Counter)1683_storage": {
        "encoding": "inplace",
        "label": "struct Counters.Counter",
        "members": [
          {
            "astId": 1682,
            "contract": "contracts/MetisSBT.sol:MetisSBT",
            "label": "_value",
            "offset": 0,
            "slot": "0",
            "type": "t_uint256"
          }
        ],
        "numberOfBytes": "32"
      },
      "t_uint256": {
        "encoding": "inplace",
        "label": "uint256",
        "numberOfBytes": "32"
      }
    }
  }
}