{
  "address": "0xbDdB952E7F13e55d1f6Ba7dEB82724d410529487",
  "abi": [
    {
      "inputs": [
        {
          "internalType": "address",
          "name": "_metisSBT",
          "type": "address"
        }
      ],
      "stateMutability": "nonpayable",
      "type": "constructor"
    },
    {
      "inputs": [
        {
          "internalType": "address",
          "name": "_candidate",
          "type": "address"
        }
      ],
      "name": "NotACandidate",
      "type": "error"
    },
    {
      "inputs": [],
      "name": "VoterNotRegistered",
      "type": "error"
    },
    {
      "anonymous": false,
      "inputs": [
        {
          "indexed": false,
          "internalType": "uint256",
          "name": "_electionId",
          "type": "uint256"
        },
        {
          "indexed": false,
          "internalType": "bytes32",
          "name": "_party",
          "type": "bytes32"
        },
        {
          "indexed": true,
          "internalType": "address",
          "name": "_person",
          "type": "address"
        }
      ],
      "name": "CandidateAdded",
      "type": "event"
    },
    {
      "anonymous": false,
      "inputs": [
        {
          "indexed": false,
          "internalType": "uint256",
          "name": "_electionId",
          "type": "uint256"
        },
        {
          "indexed": true,
          "internalType": "address",
          "name": "_candidate",
          "type": "address"
        },
        {
          "indexed": false,
          "internalType": "uint256",
          "name": "votes",
          "type": "uint256"
        }
      ],
      "name": "ElectionClosed",
      "type": "event"
    },
    {
      "anonymous": false,
      "inputs": [
        {
          "indexed": false,
          "internalType": "bytes32",
          "name": "_position",
          "type": "bytes32"
        },
        {
          "indexed": false,
          "internalType": "uint256",
          "name": "_startTime",
          "type": "uint256"
        },
        {
          "indexed": false,
          "internalType": "uint256",
          "name": "_endTime",
          "type": "uint256"
        }
      ],
      "name": "ElectionCreated",
      "type": "event"
    },
    {
      "anonymous": false,
      "inputs": [
        {
          "indexed": false,
          "internalType": "uint256",
          "name": "_electionId",
          "type": "uint256"
        },
        {
          "indexed": false,
          "internalType": "uint256",
          "name": "_oldEndTime",
          "type": "uint256"
        },
        {
          "indexed": false,
          "internalType": "uint256",
          "name": "_newEndTime",
          "type": "uint256"
        }
      ],
      "name": "ElectionEndTimeUpdated",
      "type": "event"
    },
    {
      "anonymous": false,
      "inputs": [
        {
          "indexed": false,
          "internalType": "uint256",
          "name": "_electionId",
          "type": "uint256"
        },
        {
          "indexed": false,
          "internalType": "uint256",
          "name": "_oldStartTime",
          "type": "uint256"
        },
        {
          "indexed": false,
          "internalType": "uint256",
          "name": "_newStartTime",
          "type": "uint256"
        }
      ],
      "name": "ElectionStartTimeUpdated",
      "type": "event"
    },
    {
      "anonymous": false,
      "inputs": [
        {
          "indexed": true,
          "internalType": "address",
          "name": "_metisSBT",
          "type": "address"
        }
      ],
      "name": "MetisVoteInitialized",
      "type": "event"
    },
    {
      "anonymous": false,
      "inputs": [
        {
          "indexed": true,
          "internalType": "address",
          "name": "previousOwner",
          "type": "address"
        },
        {
          "indexed": true,
          "internalType": "address",
          "name": "newOwner",
          "type": "address"
        }
      ],
      "name": "OwnershipTransferred",
      "type": "event"
    },
    {
      "anonymous": false,
      "inputs": [
        {
          "indexed": true,
          "internalType": "uint256",
          "name": "_electionId",
          "type": "uint256"
        },
        {
          "indexed": true,
          "internalType": "address",
          "name": "_candidate",
          "type": "address"
        }
      ],
      "name": "Vote",
      "type": "event"
    },
    {
      "anonymous": false,
      "inputs": [
        {
          "indexed": true,
          "internalType": "address",
          "name": "voter",
          "type": "address"
        },
        {
          "indexed": false,
          "internalType": "uint256",
          "name": "_tokenId",
          "type": "uint256"
        }
      ],
      "name": "VoterRegistered",
      "type": "event"
    },
    {
      "inputs": [],
      "name": "CANDIDATE_STATUS",
      "outputs": [
        {
          "internalType": "bytes32",
          "name": "",
          "type": "bytes32"
        }
      ],
      "stateMutability": "view",
      "type": "function"
    },
    {
      "inputs": [],
      "name": "ELECTED_STATUS",
      "outputs": [
        {
          "internalType": "bytes32",
          "name": "",
          "type": "bytes32"
        }
      ],
      "stateMutability": "view",
      "type": "function"
    },
    {
      "inputs": [],
      "name": "METIS_SBT",
      "outputs": [
        {
          "internalType": "address",
          "name": "",
          "type": "address"
        }
      ],
      "stateMutability": "view",
      "type": "function"
    },
    {
      "inputs": [],
      "name": "_electionIdCounter",
      "outputs": [
        {
          "internalType": "uint256",
          "name": "_value",
          "type": "uint256"
        }
      ],
      "stateMutability": "view",
      "type": "function"
    },
    {
      "inputs": [
        {
          "internalType": "uint256",
          "name": "_electionId",
          "type": "uint256"
        },
        {
          "internalType": "bytes32",
          "name": "_party",
          "type": "bytes32"
        },
        {
          "internalType": "address",
          "name": "_person",
          "type": "address"
        }
      ],
      "name": "addCandidate",
      "outputs": [],
      "stateMutability": "nonpayable",
      "type": "function"
    },
    {
      "inputs": [
        {
          "internalType": "uint256",
          "name": "_electionId",
          "type": "uint256"
        },
        {
          "internalType": "bytes32[]",
          "name": "_parties",
          "type": "bytes32[]"
        },
        {
          "internalType": "address[]",
          "name": "_candidates",
          "type": "address[]"
        }
      ],
      "name": "addCandidates",
      "outputs": [],
      "stateMutability": "nonpayable",
      "type": "function"
    },
    {
      "inputs": [
        {
          "internalType": "uint256",
          "name": "",
          "type": "uint256"
        },
        {
          "internalType": "address",
          "name": "",
          "type": "address"
        }
      ],
      "name": "candidates",
      "outputs": [
        {
          "internalType": "bytes32",
          "name": "party",
          "type": "bytes32"
        },
        {
          "internalType": "bytes32",
          "name": "status",
          "type": "bytes32"
        },
        {
          "internalType": "uint256",
          "name": "votes",
          "type": "uint256"
        }
      ],
      "stateMutability": "view",
      "type": "function"
    },
    {
      "inputs": [
        {
          "internalType": "uint256",
          "name": "",
          "type": "uint256"
        },
        {
          "internalType": "uint256",
          "name": "",
          "type": "uint256"
        }
      ],
      "name": "candidatesPerElection",
      "outputs": [
        {
          "internalType": "address",
          "name": "",
          "type": "address"
        }
      ],
      "stateMutability": "view",
      "type": "function"
    },
    {
      "inputs": [
        {
          "internalType": "uint256",
          "name": "_electionId",
          "type": "uint256"
        },
        {
          "internalType": "uint256",
          "name": "_endTime",
          "type": "uint256"
        }
      ],
      "name": "changeEndTimeElection",
      "outputs": [],
      "stateMutability": "nonpayable",
      "type": "function"
    },
    {
      "inputs": [
        {
          "internalType": "uint256",
          "name": "_electionId",
          "type": "uint256"
        },
        {
          "internalType": "uint256",
          "name": "_startTime",
          "type": "uint256"
        }
      ],
      "name": "changeStartTimeElection",
      "outputs": [],
      "stateMutability": "nonpayable",
      "type": "function"
    },
    {
      "inputs": [
        {
          "internalType": "uint256",
          "name": "_electionId",
          "type": "uint256"
        },
        {
          "internalType": "address",
          "name": "_candidate",
          "type": "address"
        }
      ],
      "name": "closeElection",
      "outputs": [],
      "stateMutability": "nonpayable",
      "type": "function"
    },
    {
      "inputs": [
        {
          "internalType": "bytes32",
          "name": "_position",
          "type": "bytes32"
        },
        {
          "internalType": "uint256",
          "name": "_startTime",
          "type": "uint256"
        },
        {
          "internalType": "uint256",
          "name": "_endTime",
          "type": "uint256"
        }
      ],
      "name": "createElection",
      "outputs": [],
      "stateMutability": "nonpayable",
      "type": "function"
    },
    {
      "inputs": [
        {
          "internalType": "uint256",
          "name": "",
          "type": "uint256"
        }
      ],
      "name": "elections",
      "outputs": [
        {
          "internalType": "bytes32",
          "name": "position",
          "type": "bytes32"
        },
        {
          "internalType": "uint256",
          "name": "startTime",
          "type": "uint256"
        },
        {
          "internalType": "uint256",
          "name": "endTime",
          "type": "uint256"
        }
      ],
      "stateMutability": "view",
      "type": "function"
    },
    {
      "inputs": [
        {
          "internalType": "uint256",
          "name": "_electionId",
          "type": "uint256"
        },
        {
          "internalType": "address",
          "name": "_candidate",
          "type": "address"
        }
      ],
      "name": "getCandidateVotes",
      "outputs": [
        {
          "internalType": "uint256",
          "name": "",
          "type": "uint256"
        }
      ],
      "stateMutability": "view",
      "type": "function"
    },
    {
      "inputs": [
        {
          "internalType": "uint256",
          "name": "_electionId",
          "type": "uint256"
        }
      ],
      "name": "getCandidatesByElection",
      "outputs": [
        {
          "internalType": "address[]",
          "name": "",
          "type": "address[]"
        }
      ],
      "stateMutability": "view",
      "type": "function"
    },
    {
      "inputs": [
        {
          "internalType": "uint256",
          "name": "_electionId",
          "type": "uint256"
        }
      ],
      "name": "getCandidatesLengthByElection",
      "outputs": [
        {
          "internalType": "uint256",
          "name": "",
          "type": "uint256"
        }
      ],
      "stateMutability": "view",
      "type": "function"
    },
    {
      "inputs": [
        {
          "internalType": "uint256",
          "name": "_electionId",
          "type": "uint256"
        }
      ],
      "name": "isActiveElection",
      "outputs": [
        {
          "internalType": "bool",
          "name": "",
          "type": "bool"
        }
      ],
      "stateMutability": "view",
      "type": "function"
    },
    {
      "inputs": [],
      "name": "owner",
      "outputs": [
        {
          "internalType": "address",
          "name": "",
          "type": "address"
        }
      ],
      "stateMutability": "view",
      "type": "function"
    },
    {
      "inputs": [
        {
          "internalType": "uint256",
          "name": "_tokenId",
          "type": "uint256"
        }
      ],
      "name": "registerVoter",
      "outputs": [],
      "stateMutability": "nonpayable",
      "type": "function"
    },
    {
      "inputs": [],
      "name": "renounceOwnership",
      "outputs": [],
      "stateMutability": "nonpayable",
      "type": "function"
    },
    {
      "inputs": [
        {
          "internalType": "address",
          "name": "newOwner",
          "type": "address"
        }
      ],
      "name": "transferOwnership",
      "outputs": [],
      "stateMutability": "nonpayable",
      "type": "function"
    },
    {
      "inputs": [
        {
          "internalType": "uint256",
          "name": "_electionId",
          "type": "uint256"
        },
        {
          "internalType": "address",
          "name": "_candidate",
          "type": "address"
        }
      ],
      "name": "vote",
      "outputs": [],
      "stateMutability": "nonpayable",
      "type": "function"
    },
    {
      "inputs": [
        {
          "internalType": "address",
          "name": "",
          "type": "address"
        }
      ],
      "name": "voters",
      "outputs": [
        {
          "internalType": "uint256",
          "name": "",
          "type": "uint256"
        }
      ],
      "stateMutability": "view",
      "type": "function"
    }
  ],
  "transactionHash": "0xf3a64ba793534dc314dd133a2445645bb1aa964a3768359238c34538145e357b",
  "args": [
    "0xCB90e296D16Fc6a04fA3d2e1646fDd95b57Ac5c7"
  ],
  "numDeployments": 1,
  "solcInputHash": "91f1daaa8bda8e29b748cf7cfd308cd2",
  "bytecode": "0x60a06040523480156200001157600080fd5b5060405162002f2638038062002f268339818101604052810190620000379190620002ac565b620000576200004b6200016060201b60201c565b6200016860201b60201c565b80600073ffffffffffffffffffffffffffffffffffffffff168173ffffffffffffffffffffffffffffffffffffffff1603620000ca576040517f08c379a0000000000000000000000000000000000000000000000000000000008152600401620000c1906200033f565b60405180910390fd5b8173ffffffffffffffffffffffffffffffffffffffff1660808173ffffffffffffffffffffffffffffffffffffffff16815250506200011560016200022c60201b6200148e1760201c565b8173ffffffffffffffffffffffffffffffffffffffff167f49bdc215204b786c36d309aaf7aeb42d29076c62750300be5fb6537f7a9e50cd60405160405180910390a2505062000361565b600033905090565b60008060009054906101000a900473ffffffffffffffffffffffffffffffffffffffff169050816000806101000a81548173ffffffffffffffffffffffffffffffffffffffff021916908373ffffffffffffffffffffffffffffffffffffffff1602179055508173ffffffffffffffffffffffffffffffffffffffff168173ffffffffffffffffffffffffffffffffffffffff167f8be0079c531659141344cd1fd0a4f28419497f9722a3daafe3b4186f6b6457e060405160405180910390a35050565b6001816000016000828254019250508190555050565b600080fd5b600073ffffffffffffffffffffffffffffffffffffffff82169050919050565b6000620002748262000247565b9050919050565b620002868162000267565b81146200029257600080fd5b50565b600081519050620002a6816200027b565b92915050565b600060208284031215620002c557620002c462000242565b5b6000620002d58482850162000295565b91505092915050565b600082825260208201905092915050565b7f4d65746973566f74653a20496e76616c69642061646472657373000000000000600082015250565b600062000327601a83620002de565b91506200033482620002ef565b602082019050919050565b600060208201905081810360008301526200035a8162000318565b9050919050565b608051612b9462000392600039600081816105770152818161073a0152818161104901526113d70152612b946000f3fe608060405234801561001057600080fd5b506004361061014d5760003560e01c8063715018a6116100c3578063a13f2f8d1161007c578063a13f2f8d146103a0578063a3ec138d146103bc578063c736e294146103ec578063c9d2c45c14610408578063e54c785714610426578063f2fde38b146104565761014d565b8063715018a6146102f05780637a2d2311146102fa5780637f001325146103165780638351af231461033457806386b11d21146103525780638da5cb5b146103825761014d565b806353d0b8dc1161011557806353d0b8dc1461020657806354868d43146102245780635739e842146102565780635e6fef011461027257806365a7175b146102a45780636fa4ddb0146102d45761014d565b806302d947ef1461015257806305ea879c1461016e578063148b30051461019e57806340557d34146101ba5780634921bb86146101d6575b600080fd5b61016c60048036038101906101679190611ad7565b610472565b005b61018860048036038101906101839190611ad7565b61080f565b6040516101959190611b26565b60405180910390f35b6101b860048036038101906101b39190611b77565b610978565b005b6101d460048036038101906101cf9190611de6565b610990565b005b6101f060048036038101906101eb9190611e71565b610a40565b6040516101fd9190611f5c565b60405180910390f35b61020e610ae1565b60405161021b9190611b26565b60405180910390f35b61023e60048036038101906102399190611ad7565b610aed565b60405161024d93929190611f8d565b60405180910390f35b610270600480360381019061026b9190611fc4565b610b24565b005b61028c60048036038101906102879190611e71565b610cb8565b60405161029b93929190612004565b60405180910390f35b6102be60048036038101906102b99190611fc4565b610ce2565b6040516102cb919061204a565b60405180910390f35b6102ee60048036038101906102e99190611fc4565b610d30565b005b6102f8610ed0565b005b610314600480360381019061030f9190612065565b610ee4565b005b61031e610f9f565b60405161032b91906120b8565b60405180910390f35b61033c610fc3565b60405161034991906120b8565b60405180910390f35b61036c60048036038101906103679190611e71565b610fe7565b6040516103799190611b26565b60405180910390f35b61038a611007565b604051610397919061204a565b60405180910390f35b6103ba60048036038101906103b59190611e71565b611030565b005b6103d660048036038101906103d191906120d3565b6111cc565b6040516103e39190611b26565b60405180910390f35b61040660048036038101906104019190611ad7565b6111e4565b005b6104106113d5565b60405161041d919061204a565b60405180910390f35b610440600480360381019061043b9190611e71565b6113f9565b60405161044d919061211b565b60405180910390f35b610470600480360381019061046b91906120d3565b61140b565b005b80600073ffffffffffffffffffffffffffffffffffffffff168173ffffffffffffffffffffffffffffffffffffffff16036104e2576040517f08c379a00000000000000000000000000000000000000000000000000000000081526004016104d990612193565b60405180910390fd5b6104eb836114a4565b61052a576040517f08c379a0000000000000000000000000000000000000000000000000000000008152600401610521906121ff565b60405180910390fd5b61053483836114f9565b610573576040517f08c379a000000000000000000000000000000000000000000000000000000000815260040161056a9061226b565b60405180910390fd5b60017f000000000000000000000000000000000000000000000000000000000000000073ffffffffffffffffffffffffffffffffffffffff166370a08231336040518263ffffffff1660e01b81526004016105ce919061204a565b602060405180830381865afa1580156105eb573d6000803e3d6000fd5b505050506040513d601f19601f8201168201806040525081019061060f91906122a0565b1461064f576040517f08c379a000000000000000000000000000000000000000000000000000000000815260040161064690612319565b60405180910390fd5b6000600560003373ffffffffffffffffffffffffffffffffffffffff1673ffffffffffffffffffffffffffffffffffffffff168152602001908152602001600020549050600081036106cd576040517f6f08c58700000000000000000000000000000000000000000000000000000000815260040160405180910390fd5b60016003600086815260200190815260200160002060008573ffffffffffffffffffffffffffffffffffffffff1673ffffffffffffffffffffffffffffffffffffffff16815260200190815260200160002060020160008282546107319190612368565b925050819055507f000000000000000000000000000000000000000000000000000000000000000073ffffffffffffffffffffffffffffffffffffffff1663fcca991b85836040518363ffffffff1660e01b815260040161079392919061239c565b600060405180830381600087803b1580156107ad57600080fd5b505af11580156107c1573d6000803e3d6000fd5b505050508273ffffffffffffffffffffffffffffffffffffffff16847f10a412bf229fbac2408912cb271b8ff9eb39eb72da91dd0c8accab0fb101113560405160405180910390a350505050565b600081600073ffffffffffffffffffffffffffffffffffffffff168173ffffffffffffffffffffffffffffffffffffffff1603610881576040517f08c379a000000000000000000000000000000000000000000000000000000000815260040161087890612193565b60405180910390fd5b6000801b6003600086815260200190815260200160002060008573ffffffffffffffffffffffffffffffffffffffff1673ffffffffffffffffffffffffffffffffffffffff168152602001908152602001600020600101540361091b57826040517f60e5a405000000000000000000000000000000000000000000000000000000008152600401610912919061204a565b60405180910390fd5b6003600085815260200190815260200160002060008473ffffffffffffffffffffffffffffffffffffffff1673ffffffffffffffffffffffffffffffffffffffff1681526020019081526020016000206002015491505092915050565b61098061156c565b61098b8383836115ea565b505050565b61099861156c565b80518251146109dc576040517f08c379a00000000000000000000000000000000000000000000000000000000081526004016109d390612411565b60405180910390fd5b60005b8151811015610a3a57610a27848483815181106109ff576109fe612431565b5b6020026020010151848481518110610a1a57610a19612431565b5b60200260200101516115ea565b8080610a3290612460565b9150506109df565b50505050565b606060046000838152602001908152602001600020805480602002602001604051908101604052809291908181526020018280548015610ad557602002820191906000526020600020905b8160009054906101000a900473ffffffffffffffffffffffffffffffffffffffff1673ffffffffffffffffffffffffffffffffffffffff1681526020019060010190808311610a8b575b50505050509050919050565b60018060000154905081565b6003602052816000526040600020602052806000526040600020600091509150508060000154908060010154908060020154905083565b610b2c61156c565b60008211610b6f576040517f08c379a0000000000000000000000000000000000000000000000000000000008152600401610b66906124f4565b60405180910390fd5b60006002600084815260200190815260200160002060010154118015610bab575060006002600084815260200190815260200160002060020154115b610bea576040517f08c379a0000000000000000000000000000000000000000000000000000000008152600401610be1906121ff565b60405180910390fd5b60026000838152602001908152602001600020600101548111610c42576040517f08c379a0000000000000000000000000000000000000000000000000000000008152600401610c3990612560565b60405180910390fd5b6000600260008481526020019081526020016000206002015490508160026000858152602001908152602001600020600201819055507fa840cf473c20075448324c2c6fd14bbfd201f60f33db82754138db2c9b32b06f838284604051610cab93929190612580565b60405180910390a1505050565b60026020528060005260406000206000915090508060000154908060010154908060020154905083565b60046020528160005260406000208181548110610cfe57600080fd5b906000526020600020016000915091509054906101000a900473ffffffffffffffffffffffffffffffffffffffff1681565b610d3861156c565b60008211610d7b576040517f08c379a0000000000000000000000000000000000000000000000000000000008152600401610d72906124f4565b60405180910390fd5b60006002600084815260200190815260200160002060010154118015610db7575060006002600084815260200190815260200160002060020154115b610df6576040517f08c379a0000000000000000000000000000000000000000000000000000000008152600401610ded906121ff565b60405180910390fd5b428110158015610e1b5750600260008381526020019081526020016000206002015481105b610e5a576040517f08c379a0000000000000000000000000000000000000000000000000000000008152600401610e5190612629565b60405180910390fd5b6000600260008481526020019081526020016000206001015490508160026000858152602001908152602001600020600101819055507fb9329cfd0a0c68a9e85594b8117007022c6bc52bc6d18acd79a11ac24327a53f838284604051610ec393929190612580565b60405180910390a1505050565b610ed861156c565b610ee2600061187c565b565b610eec61156c565b610ef7838383611940565b600060405180606001604052808581526020018481526020018381525090508060026000610f256001611a19565b8152602001908152602001600020600082015181600001556020820151816001015560408201518160020155905050610f5e600161148e565b7f0c678bc544e0dea7af707a389bef269590eb79358a3fed2d457ff671b188d587848484604051610f9193929190612004565b60405180910390a150505050565b7f40118949c6cba9e12fbf5d8eaee59ab938d3caf473fb213ac9233863f270c3e481565b7ffee2a06006e017d550b5fe2094312a8c4391962e4eb26b60da9a39d8408cd20581565b600060046000838152602001908152602001600020805490509050919050565b60008060009054906101000a900473ffffffffffffffffffffffffffffffffffffffff16905090565b3373ffffffffffffffffffffffffffffffffffffffff167f000000000000000000000000000000000000000000000000000000000000000073ffffffffffffffffffffffffffffffffffffffff16636352211e836040518263ffffffff1660e01b81526004016110a09190611b26565b602060405180830381865afa1580156110bd573d6000803e3d6000fd5b505050506040513d601f19601f820116820180604052508101906110e1919061265e565b73ffffffffffffffffffffffffffffffffffffffff1614611137576040517f08c379a000000000000000000000000000000000000000000000000000000000815260040161112e906126d7565b60405180910390fd5b80600560003373ffffffffffffffffffffffffffffffffffffffff1673ffffffffffffffffffffffffffffffffffffffff168152602001908152602001600020819055503373ffffffffffffffffffffffffffffffffffffffff167ff16ce2c2236e2c6e3df646f80d657bceef4cd7f3a240c47e82adfa17a5f47241826040516111c19190611b26565b60405180910390a250565b60056020528060005260406000206000915090505481565b80600073ffffffffffffffffffffffffffffffffffffffff168173ffffffffffffffffffffffffffffffffffffffff1603611254576040517f08c379a000000000000000000000000000000000000000000000000000000000815260040161124b90612193565b60405180910390fd5b61125c61156c565b60026000848152602001908152602001600020600201544210156112b5576040517f08c379a00000000000000000000000000000000000000000000000000000000081526004016112ac90612743565b60405180910390fd5b7f40118949c6cba9e12fbf5d8eaee59ab938d3caf473fb213ac9233863f270c3e46003600085815260200190815260200160002060008473ffffffffffffffffffffffffffffffffffffffff1673ffffffffffffffffffffffffffffffffffffffff168152602001908152602001600020600101819055508173ffffffffffffffffffffffffffffffffffffffff167f6c26b9313d4c1fb28d48cd360a1385ecd42d5cde22b0d38b6975e9fb875dca69846003600087815260200190815260200160002060008673ffffffffffffffffffffffffffffffffffffffff1673ffffffffffffffffffffffffffffffffffffffff168152602001908152602001600020600201546040516113c892919061239c565b60405180910390a2505050565b7f000000000000000000000000000000000000000000000000000000000000000081565b6000611404826114a4565b9050919050565b61141361156c565b600073ffffffffffffffffffffffffffffffffffffffff168173ffffffffffffffffffffffffffffffffffffffff1603611482576040517f08c379a0000000000000000000000000000000000000000000000000000000008152600401611479906127d5565b60405180910390fd5b61148b8161187c565b50565b6001816000016000828254019250508190555050565b6000600260008381526020019081526020016000206001015442101580156114e15750600260008381526020019081526020016000206002015442105b156114ef57600190506114f4565b600090505b919050565b60008060001b6003600085815260200190815260200160002060008473ffffffffffffffffffffffffffffffffffffffff1673ffffffffffffffffffffffffffffffffffffffff16815260200190815260200160002060010154036115615760009050611566565b600190505b92915050565b611574611a27565b73ffffffffffffffffffffffffffffffffffffffff16611592611007565b73ffffffffffffffffffffffffffffffffffffffff16146115e8576040517f08c379a00000000000000000000000000000000000000000000000000000000081526004016115df90612841565b60405180910390fd5b565b6115f261156c565b6002600084815260200190815260200160002060010154421061164a576040517f08c379a0000000000000000000000000000000000000000000000000000000008152600401611641906128d3565b60405180910390fd5b6000602060ff1611611691576040517f08c379a00000000000000000000000000000000000000000000000000000000081526004016116889061293f565b60405180910390fd5b600073ffffffffffffffffffffffffffffffffffffffff168173ffffffffffffffffffffffffffffffffffffffff1603611700576040517f08c379a00000000000000000000000000000000000000000000000000000000081526004016116f7906129d1565b60405180910390fd5b600060405180606001604052808481526020017ffee2a06006e017d550b5fe2094312a8c4391962e4eb26b60da9a39d8408cd205815260200160008152509050806003600086815260200190815260200160002060008473ffffffffffffffffffffffffffffffffffffffff1673ffffffffffffffffffffffffffffffffffffffff16815260200190815260200160002060008201518160000155602082015181600101556040820151816002015590505060046000858152602001908152602001600020829080600181540180825580915050600190039060005260206000200160009091909190916101000a81548173ffffffffffffffffffffffffffffffffffffffff021916908373ffffffffffffffffffffffffffffffffffffffff1602179055508173ffffffffffffffffffffffffffffffffffffffff167fc77a38df6f2b68b997a23e04f59bb77dffe925adffda65abed99bc2449f81a51858560405161186e9291906129f1565b60405180910390a250505050565b60008060009054906101000a900473ffffffffffffffffffffffffffffffffffffffff169050816000806101000a81548173ffffffffffffffffffffffffffffffffffffffff021916908373ffffffffffffffffffffffffffffffffffffffff1602179055508173ffffffffffffffffffffffffffffffffffffffff168173ffffffffffffffffffffffffffffffffffffffff167f8be0079c531659141344cd1fd0a4f28419497f9722a3daafe3b4186f6b6457e060405160405180910390a35050565b61194861156c565b6000602060ff161161198f576040517f08c379a000000000000000000000000000000000000000000000000000000000815260040161198690612a66565b60405180910390fd5b428210156119d2576040517f08c379a00000000000000000000000000000000000000000000000000000000081526004016119c990612ad2565b60405180910390fd5b818111611a14576040517f08c379a0000000000000000000000000000000000000000000000000000000008152600401611a0b90612b3e565b60405180910390fd5b505050565b600081600001549050919050565b600033905090565b6000604051905090565b600080fd5b600080fd5b6000819050919050565b611a5681611a43565b8114611a6157600080fd5b50565b600081359050611a7381611a4d565b92915050565b600073ffffffffffffffffffffffffffffffffffffffff82169050919050565b6000611aa482611a79565b9050919050565b611ab481611a99565b8114611abf57600080fd5b50565b600081359050611ad181611aab565b92915050565b60008060408385031215611aee57611aed611a39565b5b6000611afc85828601611a64565b9250506020611b0d85828601611ac2565b9150509250929050565b611b2081611a43565b82525050565b6000602082019050611b3b6000830184611b17565b92915050565b6000819050919050565b611b5481611b41565b8114611b5f57600080fd5b50565b600081359050611b7181611b4b565b92915050565b600080600060608486031215611b9057611b8f611a39565b5b6000611b9e86828701611a64565b9350506020611baf86828701611b62565b9250506040611bc086828701611ac2565b9150509250925092565b600080fd5b6000601f19601f8301169050919050565b7f4e487b7100000000000000000000000000000000000000000000000000000000600052604160045260246000fd5b611c1882611bcf565b810181811067ffffffffffffffff82111715611c3757611c36611be0565b5b80604052505050565b6000611c4a611a2f565b9050611c568282611c0f565b919050565b600067ffffffffffffffff821115611c7657611c75611be0565b5b602082029050602081019050919050565b600080fd5b6000611c9f611c9a84611c5b565b611c40565b90508083825260208201905060208402830185811115611cc257611cc1611c87565b5b835b81811015611ceb5780611cd78882611b62565b845260208401935050602081019050611cc4565b5050509392505050565b600082601f830112611d0a57611d09611bca565b5b8135611d1a848260208601611c8c565b91505092915050565b600067ffffffffffffffff821115611d3e57611d3d611be0565b5b602082029050602081019050919050565b6000611d62611d5d84611d23565b611c40565b90508083825260208201905060208402830185811115611d8557611d84611c87565b5b835b81811015611dae5780611d9a8882611ac2565b845260208401935050602081019050611d87565b5050509392505050565b600082601f830112611dcd57611dcc611bca565b5b8135611ddd848260208601611d4f565b91505092915050565b600080600060608486031215611dff57611dfe611a39565b5b6000611e0d86828701611a64565b935050602084013567ffffffffffffffff811115611e2e57611e2d611a3e565b5b611e3a86828701611cf5565b925050604084013567ffffffffffffffff811115611e5b57611e5a611a3e565b5b611e6786828701611db8565b9150509250925092565b600060208284031215611e8757611e86611a39565b5b6000611e9584828501611a64565b91505092915050565b600081519050919050565b600082825260208201905092915050565b6000819050602082019050919050565b611ed381611a99565b82525050565b6000611ee58383611eca565b60208301905092915050565b6000602082019050919050565b6000611f0982611e9e565b611f138185611ea9565b9350611f1e83611eba565b8060005b83811015611f4f578151611f368882611ed9565b9750611f4183611ef1565b925050600181019050611f22565b5085935050505092915050565b60006020820190508181036000830152611f768184611efe565b905092915050565b611f8781611b41565b82525050565b6000606082019050611fa26000830186611f7e565b611faf6020830185611f7e565b611fbc6040830184611b17565b949350505050565b60008060408385031215611fdb57611fda611a39565b5b6000611fe985828601611a64565b9250506020611ffa85828601611a64565b9150509250929050565b60006060820190506120196000830186611f7e565b6120266020830185611b17565b6120336040830184611b17565b949350505050565b61204481611a99565b82525050565b600060208201905061205f600083018461203b565b92915050565b60008060006060848603121561207e5761207d611a39565b5b600061208c86828701611b62565b935050602061209d86828701611a64565b92505060406120ae86828701611a64565b9150509250925092565b60006020820190506120cd6000830184611f7e565b92915050565b6000602082840312156120e9576120e8611a39565b5b60006120f784828501611ac2565b91505092915050565b60008115159050919050565b61211581612100565b82525050565b6000602082019050612130600083018461210c565b92915050565b600082825260208201905092915050565b7f4d65746973566f74653a20496e76616c69642061646472657373000000000000600082015250565b600061217d601a83612136565b915061218882612147565b602082019050919050565b600060208201905081810360008301526121ac81612170565b9050919050565b7f4d65746973566f74653a20496e76616c696420456c656374696f6e0000000000600082015250565b60006121e9601b83612136565b91506121f4826121b3565b602082019050919050565b60006020820190508181036000830152612218816121dc565b9050919050565b7f4d65746973566f74653a20496e76616c69642043616e64696461746500000000600082015250565b6000612255601c83612136565b91506122608261221f565b602082019050919050565b6000602082019050818103600083015261228481612248565b9050919050565b60008151905061229a81611a4d565b92915050565b6000602082840312156122b6576122b5611a39565b5b60006122c48482850161228b565b91505092915050565b7f4d65746973566f74653a204e6f20766f746520616c6c6f776564000000000000600082015250565b6000612303601a83612136565b915061230e826122cd565b602082019050919050565b60006020820190508181036000830152612332816122f6565b9050919050565b7f4e487b7100000000000000000000000000000000000000000000000000000000600052601160045260246000fd5b600061237382611a43565b915061237e83611a43565b925082820190508082111561239657612395612339565b5b92915050565b60006040820190506123b16000830185611b17565b6123be6020830184611b17565b9392505050565b7f4d65746973566f74653a204c656e67746873206d69736d617463680000000000600082015250565b60006123fb601b83612136565b9150612406826123c5565b602082019050919050565b6000602082019050818103600083015261242a816123ee565b9050919050565b7f4e487b7100000000000000000000000000000000000000000000000000000000600052603260045260246000fd5b600061246b82611a43565b91507fffffffffffffffffffffffffffffffffffffffffffffffffffffffffffffffff820361249d5761249c612339565b5b600182019050919050565b7f4d65746973566f74653a20496e76616c696420456c656374696f6e2069640000600082015250565b60006124de601e83612136565b91506124e9826124a8565b602082019050919050565b6000602082019050818103600083015261250d816124d1565b9050919050565b7f4d65746973566f74653a20496e76616c6964206e657720656e642074696d6500600082015250565b600061254a601f83612136565b915061255582612514565b602082019050919050565b600060208201905081810360008301526125798161253d565b9050919050565b60006060820190506125956000830186611b17565b6125a26020830185611b17565b6125af6040830184611b17565b949350505050565b7f4d65746973566f74653a20496e76616c6964206e65772073746172742074696d60008201527f6500000000000000000000000000000000000000000000000000000000000000602082015250565b6000612613602183612136565b915061261e826125b7565b604082019050919050565b6000602082019050818103600083015261264281612606565b9050919050565b60008151905061265881611aab565b92915050565b60006020828403121561267457612673611a39565b5b600061268284828501612649565b91505092915050565b7f4d65746973566f74653a204e6f74206f776e6572206f66205342540000000000600082015250565b60006126c1601b83612136565b91506126cc8261268b565b602082019050919050565b600060208201905081810360008301526126f0816126b4565b9050919050565b7f4d65746973566f74653a20456c656374696f6e206e6f742066696e6973686564600082015250565b600061272d602083612136565b9150612738826126f7565b602082019050919050565b6000602082019050818103600083015261275c81612720565b9050919050565b7f4f776e61626c653a206e6577206f776e657220697320746865207a65726f206160008201527f6464726573730000000000000000000000000000000000000000000000000000602082015250565b60006127bf602683612136565b91506127ca82612763565b604082019050919050565b600060208201905081810360008301526127ee816127b2565b9050919050565b7f4f776e61626c653a2063616c6c6572206973206e6f7420746865206f776e6572600082015250565b600061282b602083612136565b9150612836826127f5565b602082019050919050565b6000602082019050818103600083015261285a8161281e565b9050919050565b7f4d65746973566f74653a20456c656374696f6e20697320616c7265616479207260008201527f756e6e696e670000000000000000000000000000000000000000000000000000602082015250565b60006128bd602683612136565b91506128c882612861565b604082019050919050565b600060208201905081810360008301526128ec816128b0565b9050919050565b7f4d65746973566f74653a20496e76616c69642070617274790000000000000000600082015250565b6000612929601883612136565b9150612934826128f3565b602082019050919050565b600060208201905081810360008301526129588161291c565b9050919050565b7f4d65746973566f74653a20496e76616c69642063616e6469646174652061646460008201527f7265737300000000000000000000000000000000000000000000000000000000602082015250565b60006129bb602483612136565b91506129c68261295f565b604082019050919050565b600060208201905081810360008301526129ea816129ae565b9050919050565b6000604082019050612a066000830185611b17565b612a136020830184611f7e565b9392505050565b7f4d65746973566f74653a20496e76616c696420706f736974696f6e0000000000600082015250565b6000612a50601b83612136565b9150612a5b82612a1a565b602082019050919050565b60006020820190508181036000830152612a7f81612a43565b9050919050565b7f4d65746973566f74653a20496e76616c69642073746172742074696d65000000600082015250565b6000612abc601d83612136565b9150612ac782612a86565b602082019050919050565b60006020820190508181036000830152612aeb81612aaf565b9050919050565b7f4d65746973566f74653a20496e76616c696420656e642074696d650000000000600082015250565b6000612b28601b83612136565b9150612b3382612af2565b602082019050919050565b60006020820190508181036000830152612b5781612b1b565b905091905056fea26469706673582212204688ff04246ddb2f073b821a8601e661e5a9b892500d3c4297ec691e69eea7b264736f6c63430008120033",
  "devdoc": {
    "kind": "dev",
    "methods": {
      "owner()": {
        "details": "Returns the address of the current owner."
      },
      "renounceOwnership()": {
        "details": "Leaves the contract without owner. It will not be possible to call `onlyOwner` functions anymore. Can only be called by the current owner. NOTE: Renouncing ownership will leave the contract without an owner, thereby removing any functionality that is only available to the owner."
      },
      "transferOwnership(address)": {
        "details": "Transfers ownership of the contract to a new account (`newOwner`). Can only be called by the current owner."
      }
    },
    "stateVariables": {
      "candidates": {
        "details": "ElectionId => user => Candidate"
      },
      "elections": {
        "details": "ElectionId => Election"
      },
      "voters": {
        "details": "Voter => MetisSBT"
      }
    },
    "version": 1
  },
  "userdoc": {
    "kind": "user",
    "methods": {},
    "version": 1
  },
  "storageLayout": {
    "storage": [
      {
        "astId": 7,
        "contract": "contracts/MetisVote.sol:MetisVote",
        "label": "_owner",
        "offset": 0,
        "slot": "0",
        "type": "t_address"
      },
      {
        "astId": 356,
        "contract": "contracts/MetisVote.sol:MetisVote",
        "label": "_electionIdCounter",
        "offset": 0,
        "slot": "1",
        "type": "t_struct(Counter)256_storage"
      },
      {
        "astId": 372,
        "contract": "contracts/MetisVote.sol:MetisVote",
        "label": "elections",
        "offset": 0,
        "slot": "2",
        "type": "t_mapping(t_uint256,t_struct(Election)1134_storage)"
      },
      {
        "astId": 380,
        "contract": "contracts/MetisVote.sol:MetisVote",
        "label": "candidates",
        "offset": 0,
        "slot": "3",
        "type": "t_mapping(t_uint256,t_mapping(t_address,t_struct(Candidate)1127_storage))"
      },
      {
        "astId": 385,
        "contract": "contracts/MetisVote.sol:MetisVote",
        "label": "candidatesPerElection",
        "offset": 0,
        "slot": "4",
        "type": "t_mapping(t_uint256,t_array(t_address)dyn_storage)"
      },
      {
        "astId": 390,
        "contract": "contracts/MetisVote.sol:MetisVote",
        "label": "voters",
        "offset": 0,
        "slot": "5",
        "type": "t_mapping(t_address,t_uint256)"
      }
    ],
    "types": {
      "t_address": {
        "encoding": "inplace",
        "label": "address",
        "numberOfBytes": "20"
      },
      "t_array(t_address)dyn_storage": {
        "base": "t_address",
        "encoding": "dynamic_array",
        "label": "address[]",
        "numberOfBytes": "32"
      },
      "t_bytes32": {
        "encoding": "inplace",
        "label": "bytes32",
        "numberOfBytes": "32"
      },
      "t_mapping(t_address,t_struct(Candidate)1127_storage)": {
        "encoding": "mapping",
        "key": "t_address",
        "label": "mapping(address => struct IMetisVote.Candidate)",
        "numberOfBytes": "32",
        "value": "t_struct(Candidate)1127_storage"
      },
      "t_mapping(t_address,t_uint256)": {
        "encoding": "mapping",
        "key": "t_address",
        "label": "mapping(address => uint256)",
        "numberOfBytes": "32",
        "value": "t_uint256"
      },
      "t_mapping(t_uint256,t_array(t_address)dyn_storage)": {
        "encoding": "mapping",
        "key": "t_uint256",
        "label": "mapping(uint256 => address[])",
        "numberOfBytes": "32",
        "value": "t_array(t_address)dyn_storage"
      },
      "t_mapping(t_uint256,t_mapping(t_address,t_struct(Candidate)1127_storage))": {
        "encoding": "mapping",
        "key": "t_uint256",
        "label": "mapping(uint256 => mapping(address => struct IMetisVote.Candidate))",
        "numberOfBytes": "32",
        "value": "t_mapping(t_address,t_struct(Candidate)1127_storage)"
      },
      "t_mapping(t_uint256,t_struct(Election)1134_storage)": {
        "encoding": "mapping",
        "key": "t_uint256",
        "label": "mapping(uint256 => struct IMetisVote.Election)",
        "numberOfBytes": "32",
        "value": "t_struct(Election)1134_storage"
      },
      "t_struct(Candidate)1127_storage": {
        "encoding": "inplace",
        "label": "struct IMetisVote.Candidate",
        "members": [
          {
            "astId": 1122,
            "contract": "contracts/MetisVote.sol:MetisVote",
            "label": "party",
            "offset": 0,
            "slot": "0",
            "type": "t_bytes32"
          },
          {
            "astId": 1124,
            "contract": "contracts/MetisVote.sol:MetisVote",
            "label": "status",
            "offset": 0,
            "slot": "1",
            "type": "t_bytes32"
          },
          {
            "astId": 1126,
            "contract": "contracts/MetisVote.sol:MetisVote",
            "label": "votes",
            "offset": 0,
            "slot": "2",
            "type": "t_uint256"
          }
        ],
        "numberOfBytes": "96"
      },
      "t_struct(Counter)256_storage": {
        "encoding": "inplace",
        "label": "struct Counters.Counter",
        "members": [
          {
            "astId": 255,
            "contract": "contracts/MetisVote.sol:MetisVote",
            "label": "_value",
            "offset": 0,
            "slot": "0",
            "type": "t_uint256"
          }
        ],
        "numberOfBytes": "32"
      },
      "t_struct(Election)1134_storage": {
        "encoding": "inplace",
        "label": "struct IMetisVote.Election",
        "members": [
          {
            "astId": 1129,
            "contract": "contracts/MetisVote.sol:MetisVote",
            "label": "position",
            "offset": 0,
            "slot": "0",
            "type": "t_bytes32"
          },
          {
            "astId": 1131,
            "contract": "contracts/MetisVote.sol:MetisVote",
            "label": "startTime",
            "offset": 0,
            "slot": "1",
            "type": "t_uint256"
          },
          {
            "astId": 1133,
            "contract": "contracts/MetisVote.sol:MetisVote",
            "label": "endTime",
            "offset": 0,
            "slot": "2",
            "type": "t_uint256"
          }
        ],
        "numberOfBytes": "96"
      },
      "t_uint256": {
        "encoding": "inplace",
        "label": "uint256",
        "numberOfBytes": "32"
      }
    }
  }
}