{
  "address": "0xEFc668942BB4116Cb813f4cD94D31C839F584e11",
  "abi": [
    {
      "inputs": [],
      "stateMutability": "nonpayable",
      "type": "constructor"
    },
    {
      "inputs": [
        {
          "internalType": "string",
          "name": "message",
          "type": "string"
        }
      ],
      "name": "TransferForbidden",
      "type": "error"
    },
    {
      "anonymous": false,
      "inputs": [
        {
          "indexed": true,
          "internalType": "address",
          "name": "owner",
          "type": "address"
        },
        {
          "indexed": true,
          "internalType": "address",
          "name": "approved",
          "type": "address"
        },
        {
          "indexed": true,
          "internalType": "uint256",
          "name": "tokenId",
          "type": "uint256"
        }
      ],
      "name": "Approval",
      "type": "event"
    },
    {
      "anonymous": false,
      "inputs": [
        {
          "indexed": true,
          "internalType": "address",
          "name": "owner",
          "type": "address"
        },
        {
          "indexed": true,
          "internalType": "address",
          "name": "operator",
          "type": "address"
        },
        {
          "indexed": false,
          "internalType": "bool",
          "name": "approved",
          "type": "bool"
        }
      ],
      "name": "ApprovalForAll",
      "type": "event"
    },
    {
      "anonymous": false,
      "inputs": [
        {
          "indexed": true,
          "internalType": "address",
          "name": "user",
          "type": "address"
        },
        {
          "indexed": false,
          "internalType": "uint256",
          "name": "tokenId",
          "type": "uint256"
        }
      ],
      "name": "ClaimedSBT",
      "type": "event"
    },
    {
      "anonymous": false,
      "inputs": [
        {
          "indexed": false,
          "internalType": "string",
          "name": "contractUri",
          "type": "string"
        }
      ],
      "name": "ContractURIUpdated",
      "type": "event"
    },
    {
      "anonymous": false,
      "inputs": [
        {
          "indexed": false,
          "internalType": "string",
          "name": "_defaultTokenURI",
          "type": "string"
        }
      ],
      "name": "DefaultTokenURIUpdated",
      "type": "event"
    },
    {
      "anonymous": false,
      "inputs": [
        {
          "indexed": false,
          "internalType": "uint256",
          "name": "tokenId",
          "type": "uint256"
        }
      ],
      "name": "Locked",
      "type": "event"
    },
    {
      "anonymous": false,
      "inputs": [],
      "name": "MetisSBTInitialized",
      "type": "event"
    },
    {
      "anonymous": false,
      "inputs": [
        {
          "indexed": true,
          "internalType": "address",
          "name": "_metisVote",
          "type": "address"
        }
      ],
      "name": "MetisVoteSet",
      "type": "event"
    },
    {
      "anonymous": false,
      "inputs": [
        {
          "indexed": true,
          "internalType": "address",
          "name": "to",
          "type": "address"
        },
        {
          "indexed": false,
          "internalType": "uint256",
          "name": "tokenId",
          "type": "uint256"
        },
        {
          "indexed": false,
          "internalType": "string",
          "name": "uri",
          "type": "string"
        }
      ],
      "name": "MintSBT",
      "type": "event"
    },
    {
      "anonymous": false,
      "inputs": [
        {
          "indexed": true,
          "internalType": "address",
          "name": "previousOwner",
          "type": "address"
        },
        {
          "indexed": true,
          "internalType": "address",
          "name": "newOwner",
          "type": "address"
        }
      ],
      "name": "OwnershipTransferred",
      "type": "event"
    },
    {
      "anonymous": false,
      "inputs": [
        {
          "indexed": true,
          "internalType": "address",
          "name": "from",
          "type": "address"
        },
        {
          "indexed": true,
          "internalType": "address",
          "name": "to",
          "type": "address"
        },
        {
          "indexed": true,
          "internalType": "uint256",
          "name": "tokenId",
          "type": "uint256"
        }
      ],
      "name": "Transfer",
      "type": "event"
    },
    {
      "anonymous": false,
      "inputs": [
        {
          "indexed": false,
          "internalType": "uint256",
          "name": "tokenId",
          "type": "uint256"
        }
      ],
      "name": "Unlocked",
      "type": "event"
    },
    {
      "anonymous": false,
      "inputs": [
        {
          "indexed": false,
          "internalType": "uint256",
          "name": "_tokenId",
          "type": "uint256"
        },
        {
          "indexed": false,
          "internalType": "uint256",
          "name": "_electionId",
          "type": "uint256"
        }
      ],
      "name": "VoteAdded",
      "type": "event"
    },
    {
      "inputs": [],
      "name": "METIS_VOTE",
      "outputs": [
        {
          "internalType": "address",
          "name": "",
          "type": "address"
        }
      ],
      "stateMutability": "view",
      "type": "function"
    },
    {
      "inputs": [],
      "name": "_tokenIdCounter",
      "outputs": [
        {
          "internalType": "uint256",
          "name": "_value",
          "type": "uint256"
        }
      ],
      "stateMutability": "view",
      "type": "function"
    },
    {
      "inputs": [
        {
          "internalType": "uint256",
          "name": "_electionId",
          "type": "uint256"
        },
        {
          "internalType": "uint256",
          "name": "_tokenId",
          "type": "uint256"
        }
      ],
      "name": "addVote",
      "outputs": [],
      "stateMutability": "nonpayable",
      "type": "function"
    },
    {
      "inputs": [
        {
          "internalType": "address",
          "name": "to",
          "type": "address"
        },
        {
          "internalType": "uint256",
          "name": "tokenId",
          "type": "uint256"
        }
      ],
      "name": "approve",
      "outputs": [],
      "stateMutability": "nonpayable",
      "type": "function"
    },
    {
      "inputs": [
        {
          "internalType": "uint256",
          "name": "",
          "type": "uint256"
        }
      ],
      "name": "availableToMint",
      "outputs": [
        {
          "internalType": "bool",
          "name": "",
          "type": "bool"
        }
      ],
      "stateMutability": "view",
      "type": "function"
    },
    {
      "inputs": [
        {
          "internalType": "address",
          "name": "owner",
          "type": "address"
        }
      ],
      "name": "balanceOf",
      "outputs": [
        {
          "internalType": "uint256",
          "name": "",
          "type": "uint256"
        }
      ],
      "stateMutability": "view",
      "type": "function"
    },
    {
      "inputs": [
        {
          "internalType": "uint256",
          "name": "_tokenId",
          "type": "uint256"
        }
      ],
      "name": "claimSBT",
      "outputs": [],
      "stateMutability": "nonpayable",
      "type": "function"
    },
    {
      "inputs": [],
      "name": "contractUri",
      "outputs": [
        {
          "internalType": "string",
          "name": "",
          "type": "string"
        }
      ],
      "stateMutability": "view",
      "type": "function"
    },
    {
      "inputs": [],
      "name": "defaultTokenUri",
      "outputs": [
        {
          "internalType": "string",
          "name": "",
          "type": "string"
        }
      ],
      "stateMutability": "view",
      "type": "function"
    },
    {
      "inputs": [
        {
          "internalType": "uint256",
          "name": "tokenId",
          "type": "uint256"
        }
      ],
      "name": "getApproved",
      "outputs": [
        {
          "internalType": "address",
          "name": "",
          "type": "address"
        }
      ],
      "stateMutability": "view",
      "type": "function"
    },
    {
      "inputs": [
        {
          "internalType": "address",
          "name": "owner",
          "type": "address"
        },
        {
          "internalType": "address",
          "name": "operator",
          "type": "address"
        }
      ],
      "name": "isApprovedForAll",
      "outputs": [
        {
          "internalType": "bool",
          "name": "",
          "type": "bool"
        }
      ],
      "stateMutability": "view",
      "type": "function"
    },
    {
      "inputs": [],
      "name": "lastMintedSBT",
      "outputs": [
        {
          "internalType": "uint256",
          "name": "",
          "type": "uint256"
        }
      ],
      "stateMutability": "view",
      "type": "function"
    },
    {
      "inputs": [
        {
          "internalType": "uint256",
          "name": "tokenId",
          "type": "uint256"
        }
      ],
      "name": "locked",
      "outputs": [
        {
          "internalType": "bool",
          "name": "",
          "type": "bool"
        }
      ],
      "stateMutability": "view",
      "type": "function"
    },
    {
      "inputs": [
        {
          "internalType": "address",
          "name": "_to",
          "type": "address"
        },
        {
          "internalType": "string",
          "name": "_uri",
          "type": "string"
        }
      ],
      "name": "mint",
      "outputs": [
        {
          "internalType": "uint256",
          "name": "",
          "type": "uint256"
        }
      ],
      "stateMutability": "nonpayable",
      "type": "function"
    },
    {
      "inputs": [],
      "name": "name",
      "outputs": [
        {
          "internalType": "string",
          "name": "",
          "type": "string"
        }
      ],
      "stateMutability": "view",
      "type": "function"
    },
    {
      "inputs": [],
      "name": "owner",
      "outputs": [
        {
          "internalType": "address",
          "name": "",
          "type": "address"
        }
      ],
      "stateMutability": "view",
      "type": "function"
    },
    {
      "inputs": [
        {
          "internalType": "uint256",
          "name": "tokenId",
          "type": "uint256"
        }
      ],
      "name": "ownerOf",
      "outputs": [
        {
          "internalType": "address",
          "name": "",
          "type": "address"
        }
      ],
      "stateMutability": "view",
      "type": "function"
    },
    {
      "inputs": [],
      "name": "renounceOwnership",
      "outputs": [],
      "stateMutability": "nonpayable",
      "type": "function"
    },
    {
      "inputs": [],
      "name": "safeLazyMint",
      "outputs": [
        {
          "internalType": "uint256",
          "name": "",
          "type": "uint256"
        }
      ],
      "stateMutability": "nonpayable",
      "type": "function"
    },
    {
      "inputs": [
        {
          "internalType": "uint256",
          "name": "quantity",
          "type": "uint256"
        }
      ],
      "name": "safeLazyMintBatch",
      "outputs": [
        {
          "internalType": "uint256",
          "name": "",
          "type": "uint256"
        }
      ],
      "stateMutability": "nonpayable",
      "type": "function"
    },
    {
      "inputs": [
        {
          "internalType": "address",
          "name": "",
          "type": "address"
        },
        {
          "internalType": "address",
          "name": "",
          "type": "address"
        },
        {
          "internalType": "uint256",
          "name": "",
          "type": "uint256"
        }
      ],
      "name": "safeTransferFrom",
      "outputs": [],
      "stateMutability": "pure",
      "type": "function"
    },
    {
      "inputs": [
        {
          "internalType": "address",
          "name": "",
          "type": "address"
        },
        {
          "internalType": "address",
          "name": "",
          "type": "address"
        },
        {
          "internalType": "uint256",
          "name": "",
          "type": "uint256"
        },
        {
          "internalType": "bytes",
          "name": "",
          "type": "bytes"
        }
      ],
      "name": "safeTransferFrom",
      "outputs": [],
      "stateMutability": "pure",
      "type": "function"
    },
    {
      "inputs": [
        {
          "internalType": "address",
          "name": "operator",
          "type": "address"
        },
        {
          "internalType": "bool",
          "name": "approved",
          "type": "bool"
        }
      ],
      "name": "setApprovalForAll",
      "outputs": [],
      "stateMutability": "nonpayable",
      "type": "function"
    },
    {
      "inputs": [
        {
          "internalType": "string",
          "name": "_contractUri",
          "type": "string"
        }
      ],
      "name": "setContractURI",
      "outputs": [],
      "stateMutability": "nonpayable",
      "type": "function"
    },
    {
      "inputs": [
        {
          "internalType": "string",
          "name": "_defaultTokenURI",
          "type": "string"
        }
      ],
      "name": "setDefaultTokenURI",
      "outputs": [],
      "stateMutability": "nonpayable",
      "type": "function"
    },
    {
      "inputs": [
        {
          "internalType": "address",
          "name": "_metisVote",
          "type": "address"
        }
      ],
      "name": "setMetisVote",
      "outputs": [],
      "stateMutability": "nonpayable",
      "type": "function"
    },
    {
      "inputs": [
        {
          "internalType": "bytes4",
          "name": "interfaceId",
          "type": "bytes4"
        }
      ],
      "name": "supportsInterface",
      "outputs": [
        {
          "internalType": "bool",
          "name": "",
          "type": "bool"
        }
      ],
      "stateMutability": "view",
      "type": "function"
    },
    {
      "inputs": [],
      "name": "symbol",
      "outputs": [
        {
          "internalType": "string",
          "name": "",
          "type": "string"
        }
      ],
      "stateMutability": "view",
      "type": "function"
    },
    {
      "inputs": [
        {
          "internalType": "uint256",
          "name": "tokenId",
          "type": "uint256"
        }
      ],
      "name": "tokenURI",
      "outputs": [
        {
          "internalType": "string",
          "name": "",
          "type": "string"
        }
      ],
      "stateMutability": "view",
      "type": "function"
    },
    {
      "inputs": [
        {
          "internalType": "address",
          "name": "",
          "type": "address"
        },
        {
          "internalType": "address",
          "name": "",
          "type": "address"
        },
        {
          "internalType": "uint256",
          "name": "",
          "type": "uint256"
        }
      ],
      "name": "transferFrom",
      "outputs": [],
      "stateMutability": "pure",
      "type": "function"
    },
    {
      "inputs": [
        {
          "internalType": "address",
          "name": "newOwner",
          "type": "address"
        }
      ],
      "name": "transferOwnership",
      "outputs": [],
      "stateMutability": "nonpayable",
      "type": "function"
    },
    {
      "inputs": [
        {
          "internalType": "uint256",
          "name": "",
          "type": "uint256"
        },
        {
          "internalType": "uint256",
          "name": "",
          "type": "uint256"
        }
      ],
      "name": "votes",
      "outputs": [
        {
          "internalType": "bool",
          "name": "",
          "type": "bool"
        }
      ],
      "stateMutability": "view",
      "type": "function"
    }
  ],
  "transactionHash": "0x7152d766a8cead9d336a0014ee387ce0424ad05a371554dc44281bb124f1dc16",
  "args": [],
  "numDeployments": 1,
  "solcInputHash": "f3e07d716d314935ed984f5067d6465d",
  "bytecode": "0x60806040523480156200001157600080fd5b506040518060400160405280600881526020017f4d657469735342540000000000000000000000000000000000000000000000008152506040518060400160405280600481526020017f4d534254000000000000000000000000000000000000000000000000000000008152506200009e620000926200010d60201b60201c565b6200011560201b60201c565b8160019081620000af919062000469565b508060029081620000c1919062000469565b505050620000db6008620001d960201b620015da1760201c565b7f59c56e1d2c6bccfd4f520889c4e61985f0c8313d3bf5c79be5f8283631dfadcb60405160405180910390a162000550565b600033905090565b60008060009054906101000a900473ffffffffffffffffffffffffffffffffffffffff169050816000806101000a81548173ffffffffffffffffffffffffffffffffffffffff021916908373ffffffffffffffffffffffffffffffffffffffff1602179055508173ffffffffffffffffffffffffffffffffffffffff168173ffffffffffffffffffffffffffffffffffffffff167f8be0079c531659141344cd1fd0a4f28419497f9722a3daafe3b4186f6b6457e060405160405180910390a35050565b6001816000016000828254019250508190555050565b600081519050919050565b7f4e487b7100000000000000000000000000000000000000000000000000000000600052604160045260246000fd5b7f4e487b7100000000000000000000000000000000000000000000000000000000600052602260045260246000fd5b600060028204905060018216806200027157607f821691505b60208210810362000287576200028662000229565b5b50919050565b60008190508160005260206000209050919050565b60006020601f8301049050919050565b600082821b905092915050565b600060088302620002f17fffffffffffffffffffffffffffffffffffffffffffffffffffffffffffffffff82620002b2565b620002fd8683620002b2565b95508019841693508086168417925050509392505050565b6000819050919050565b6000819050919050565b60006200034a620003446200033e8462000315565b6200031f565b62000315565b9050919050565b6000819050919050565b620003668362000329565b6200037e620003758262000351565b848454620002bf565b825550505050565b600090565b6200039562000386565b620003a28184846200035b565b505050565b5b81811015620003ca57620003be6000826200038b565b600181019050620003a8565b5050565b601f8211156200041957620003e3816200028d565b620003ee84620002a2565b81016020851015620003fe578190505b620004166200040d85620002a2565b830182620003a7565b50505b505050565b600082821c905092915050565b60006200043e600019846008026200041e565b1980831691505092915050565b60006200045983836200042b565b9150826002028217905092915050565b6200047482620001ef565b67ffffffffffffffff81111562000490576200048f620001fa565b5b6200049c825462000258565b620004a9828285620003ce565b600060209050601f831160018114620004e15760008415620004cc578287015190505b620004d885826200044b565b86555062000548565b601f198416620004f1866200028d565b60005b828110156200051b57848901518255600182019150602085019450602081019050620004f4565b868310156200053b578489015162000537601f8916826200042b565b8355505b6001600288020188555050505b505050505050565b613d9d80620005606000396000f3fe608060405234801561001057600080fd5b50600436106101f05760003560e01c8063938e3d7b1161010f578063c87b56dd116100a2578063e985e9c511610071578063e985e9c5146105cb578063f2fde38b146105fb578063fcca991b14610617578063fd79cc1614610633576101f0565b8063c87b56dd1461052f578063d0def5211461055f578063d6836d161461058f578063dd5ffa1e146105ad576101f0565b8063b45a3c0e116100de578063b45a3c0e14610495578063b88d4fde146104c5578063c0e24d5e146104e1578063c6e36a32146104ff576101f0565b8063938e3d7b1461042357806395d89b411461043f578063a125c8241461045d578063a22cb46514610479576101f0565b80634e7018ba1161018757806370a082311161015657806370a08231146103ad578063715018a6146103dd57806384c4bd4b146103e75780638da5cb5b14610405576101f0565b80634e7018ba146103155780635bd8c4db146103315780636352211e146103615780636df5bc8314610391576101f0565b8063095ea7b3116101c3578063095ea7b3146102a35780632147afea146102bf57806323b872dd146102dd57806342842e0e146102f9576101f0565b806301ffc9a7146101f557806306779e431461022557806306fdde0314610255578063081812fc14610273575b600080fd5b61020f600480360381019061020a9190612655565b610651565b60405161021c919061269d565b60405180910390f35b61023f600480360381019061023a91906126ee565b610663565b60405161024c919061272a565b60405180910390f35b61025d6106e5565b60405161026a91906127d5565b60405180910390f35b61028d600480360381019061028891906126ee565b610777565b60405161029a9190612838565b60405180910390f35b6102bd60048036038101906102b8919061287f565b6107bd565b005b6102c76108d4565b6040516102d49190612838565b60405180910390f35b6102f760048036038101906102f291906128bf565b6108fa565b005b610313600480360381019061030e91906128bf565b610935565b005b61032f600480360381019061032a9190612912565b610970565b005b61034b600480360381019061034691906126ee565b610a6e565b604051610358919061269d565b60405180910390f35b61037b600480360381019061037691906126ee565b610a8e565b6040516103889190612838565b60405180910390f35b6103ab60048036038101906103a691906126ee565b610b14565b005b6103c760048036038101906103c29190612912565b610da5565b6040516103d4919061272a565b60405180910390f35b6103e5610e5c565b005b6103ef610e70565b6040516103fc919061272a565b60405180910390f35b61040d610e7c565b60405161041a9190612838565b60405180910390f35b61043d60048036038101906104389190612a74565b610ea5565b005b610447610ef8565b60405161045491906127d5565b60405180910390f35b61047760048036038101906104729190612a74565b610f8a565b005b610493600480360381019061048e9190612ae9565b610fdc565b005b6104af60048036038101906104aa91906126ee565b610ff2565b6040516104bc919061269d565b60405180910390f35b6104df60048036038101906104da9190612bca565b61101c565b005b6104e9611057565b6040516104f691906127d5565b60405180910390f35b61051960048036038101906105149190612c4d565b6110e5565b604051610526919061269d565b60405180910390f35b610549600480360381019061054491906126ee565b611114565b60405161055691906127d5565b60405180910390f35b61057960048036038101906105749190612c8d565b611126565b604051610586919061272a565b60405180910390f35b610597611198565b6040516105a4919061272a565b60405180910390f35b6105b56111ed565b6040516105c291906127d5565b60405180910390f35b6105e560048036038101906105e09190612ce9565b61127b565b6040516105f2919061269d565b60405180910390f35b61061560048036038101906106109190612912565b61130f565b005b610631600480360381019061062c9190612c4d565b611392565b005b61063b6115d4565b604051610648919061272a565b60405180910390f35b600061065c826115f0565b9050919050565b600061066d6116d2565b60006106796008611750565b905060005b838110156106db576106906008611750565b91506001600d600084815260200190815260200160002060006101000a81548160ff0219169083151502179055506106c860086115da565b80806106d390612d58565b91505061067e565b5080915050919050565b6060600180546106f490612dcf565b80601f016020809104026020016040519081016040528092919081815260200182805461072090612dcf565b801561076d5780601f106107425761010080835404028352916020019161076d565b820191906000526020600020905b81548152906001019060200180831161075057829003601f168201915b5050505050905090565b60006107828261175e565b6005600083815260200190815260200160002060009054906101000a900473ffffffffffffffffffffffffffffffffffffffff169050919050565b60006107c882610a8e565b90508073ffffffffffffffffffffffffffffffffffffffff168373ffffffffffffffffffffffffffffffffffffffff1603610838576040517f08c379a000000000000000000000000000000000000000000000000000000000815260040161082f90612e72565b60405180910390fd5b8073ffffffffffffffffffffffffffffffffffffffff166108576117a9565b73ffffffffffffffffffffffffffffffffffffffff1614806108865750610885816108806117a9565b61127b565b5b6108c5576040517f08c379a00000000000000000000000000000000000000000000000000000000081526004016108bc90612f04565b60405180910390fd5b6108cf83836117b1565b505050565b600b60009054906101000a900473ffffffffffffffffffffffffffffffffffffffff1681565b6040517fa744719900000000000000000000000000000000000000000000000000000000815260040161092c90612f70565b60405180910390fd5b6040517fa744719900000000000000000000000000000000000000000000000000000000815260040161096790612f70565b60405180910390fd5b6109786116d2565b600073ffffffffffffffffffffffffffffffffffffffff168173ffffffffffffffffffffffffffffffffffffffff16036109e7576040517f08c379a00000000000000000000000000000000000000000000000000000000081526004016109de90612fdc565b60405180910390fd5b80600b60006101000a81548173ffffffffffffffffffffffffffffffffffffffff021916908373ffffffffffffffffffffffffffffffffffffffff1602179055508073ffffffffffffffffffffffffffffffffffffffff167f231d477d54441294893850f1659d67c94a6b4135121d64aedf9ec4e7342a6e5c60405160405180910390a250565b600d6020528060005260406000206000915054906101000a900460ff1681565b600080610a9a8361186a565b9050600073ffffffffffffffffffffffffffffffffffffffff168173ffffffffffffffffffffffffffffffffffffffff1603610b0b576040517f08c379a0000000000000000000000000000000000000000000000000000000008152600401610b0290613048565b60405180910390fd5b80915050919050565b6000610b1f33610da5565b14610b5f576040517f08c379a0000000000000000000000000000000000000000000000000000000008152600401610b56906130b4565b60405180910390fd5b600d600082815260200190815260200160002060009054906101000a900460ff16610bbf576040517f08c379a0000000000000000000000000000000000000000000000000000000008152600401610bb690613146565b60405180910390fd5b600c600082815260200190815260200160002060009054906101000a900460ff1615610c20576040517f08c379a0000000000000000000000000000000000000000000000000000000008152600401610c17906131b2565b60405180910390fd5b6000600d600083815260200190815260200160002060006101000a81548160ff0219169083151502179055506001600c600083815260200190815260200160002060006101000a81548160ff021916908315150217905550610c8233826118a7565b80600e81905550610d1d81600a8054610c9a90612dcf565b80601f0160208091040260200160405190810160405280929190818152602001828054610cc690612dcf565b8015610d135780601f10610ce857610100808354040283529160200191610d13565b820191906000526020600020905b815481529060010190602001808311610cf657829003601f168201915b50505050506118c5565b7f032bc66be43dbccb7487781d168eb7bda224628a3b2c3388bdf69b532a3a161181604051610d4c919061272a565b60405180910390a13373ffffffffffffffffffffffffffffffffffffffff167f5fb46cbb0a8c3d663d6513c20033986830d071462486d78fddce8699b360542d82604051610d9a919061272a565b60405180910390a250565b60008073ffffffffffffffffffffffffffffffffffffffff168273ffffffffffffffffffffffffffffffffffffffff1603610e15576040517f08c379a0000000000000000000000000000000000000000000000000000000008152600401610e0c90613244565b60405180910390fd5b600460008373ffffffffffffffffffffffffffffffffffffffff1673ffffffffffffffffffffffffffffffffffffffff168152602001908152602001600020549050919050565b610e646116d2565b610e6e6000611932565b565b60088060000154905081565b60008060009054906101000a900473ffffffffffffffffffffffffffffffffffffffff16905090565b610ead6116d2565b8060099081610ebc9190613410565b507f905d981207a7d0b6c62cc46ab0be2a076d0298e4a86d0ab79882dbd01ac373786009604051610eed9190613566565b60405180910390a150565b606060028054610f0790612dcf565b80601f0160208091040260200160405190810160405280929190818152602001828054610f3390612dcf565b8015610f805780601f10610f5557610100808354040283529160200191610f80565b820191906000526020600020905b815481529060010190602001808311610f6357829003601f168201915b5050505050905090565b610f926116d2565b80600a9081610fa19190613410565b507f1b1b4769b1db894fd6850dcd99a0f574534d3b16b5cc0cee72af296ad192fdfb81604051610fd191906127d5565b60405180910390a150565b610fee610fe76117a9565b83836119f6565b5050565b6000600c600083815260200190815260200160002060009054906101000a900460ff169050919050565b6040517fa744719900000000000000000000000000000000000000000000000000000000815260040161104e90612f70565b60405180910390fd5b6009805461106490612dcf565b80601f016020809104026020016040519081016040528092919081815260200182805461109090612dcf565b80156110dd5780601f106110b2576101008083540402835291602001916110dd565b820191906000526020600020905b8154815290600101906020018083116110c057829003601f168201915b505050505081565b600f6020528160005260406000206020528060005260406000206000915091509054906101000a900460ff1681565b606061111f82611b62565b9050919050565b60006111306116d2565b600061113c8484611c74565b90508373ffffffffffffffffffffffffffffffffffffffff167f408e6700c8c8bf1093a9f3dad1e45f50c0ef36787da829f31d76ad2861ad05128285604051611186929190613588565b60405180910390a28091505092915050565b60006111a26116d2565b60006111ae6008611750565b90506001600d600083815260200190815260200160002060006101000a81548160ff0219169083151502179055506111e660086115da565b8091505090565b600a80546111fa90612dcf565b80601f016020809104026020016040519081016040528092919081815260200182805461122690612dcf565b80156112735780601f1061124857610100808354040283529160200191611273565b820191906000526020600020905b81548152906001019060200180831161125657829003601f168201915b505050505081565b6000600660008473ffffffffffffffffffffffffffffffffffffffff1673ffffffffffffffffffffffffffffffffffffffff16815260200190815260200160002060008373ffffffffffffffffffffffffffffffffffffffff1673ffffffffffffffffffffffffffffffffffffffff16815260200190815260200160002060009054906101000a900460ff16905092915050565b6113176116d2565b600073ffffffffffffffffffffffffffffffffffffffff168173ffffffffffffffffffffffffffffffffffffffff1603611386576040517f08c379a000000000000000000000000000000000000000000000000000000000815260040161137d9061362a565b60405180910390fd5b61138f81611932565b50565b600b60009054906101000a900473ffffffffffffffffffffffffffffffffffffffff1673ffffffffffffffffffffffffffffffffffffffff163373ffffffffffffffffffffffffffffffffffffffff1614611422576040517f08c379a0000000000000000000000000000000000000000000000000000000008152600401611419906136bc565b60405180910390fd5b600d600082815260200190815260200160002060009054906101000a900460ff1615611483576040517f08c379a000000000000000000000000000000000000000000000000000000000815260040161147a90613728565b60405180910390fd5b600c600082815260200190815260200160002060009054906101000a900460ff166114e3576040517f08c379a00000000000000000000000000000000000000000000000000000000081526004016114da90613794565b60405180910390fd5b600073ffffffffffffffffffffffffffffffffffffffff1661150482610a8e565b73ffffffffffffffffffffffffffffffffffffffff160361155a576040517f08c379a000000000000000000000000000000000000000000000000000000000815260040161155190613800565b60405180910390fd5b6001600f6000848152602001908152602001600020600083815260200190815260200160002060006101000a81548160ff0219169083151502179055507fd4d383f8ed189d1368006d33d0ae7bf1e4fe9f3f86f205ae60d7a50bbba58b3881836040516115c8929190613820565b60405180910390a15050565b600e5481565b6001816000016000828254019250508190555050565b60007f80ac58cd000000000000000000000000000000000000000000000000000000007bffffffffffffffffffffffffffffffffffffffffffffffffffffffff1916827bffffffffffffffffffffffffffffffffffffffffffffffffffffffff191614806116bb57507f5b5e139f000000000000000000000000000000000000000000000000000000007bffffffffffffffffffffffffffffffffffffffffffffffffffffffff1916827bffffffffffffffffffffffffffffffffffffffffffffffffffffffff1916145b806116cb57506116ca82611d54565b5b9050919050565b6116da6117a9565b73ffffffffffffffffffffffffffffffffffffffff166116f8610e7c565b73ffffffffffffffffffffffffffffffffffffffff161461174e576040517f08c379a000000000000000000000000000000000000000000000000000000000815260040161174590613895565b60405180910390fd5b565b600081600001549050919050565b61176781611dbe565b6117a6576040517f08c379a000000000000000000000000000000000000000000000000000000000815260040161179d90613048565b60405180910390fd5b50565b600033905090565b816005600083815260200190815260200160002060006101000a81548173ffffffffffffffffffffffffffffffffffffffff021916908373ffffffffffffffffffffffffffffffffffffffff160217905550808273ffffffffffffffffffffffffffffffffffffffff1661182483610a8e565b73ffffffffffffffffffffffffffffffffffffffff167f8c5be1e5ebec7d5bd14f71427d1e84f3dd0314c0f7b2291e5b200ac8c7c3b92560405160405180910390a45050565b60006003600083815260200190815260200160002060009054906101000a900473ffffffffffffffffffffffffffffffffffffffff169050919050565b6118c1828260405180602001604052806000815250611dff565b5050565b6118ce82611dbe565b61190d576040517f08c379a000000000000000000000000000000000000000000000000000000000815260040161190490613927565b60405180910390fd5b8060076000848152602001908152602001600020908161192d9190613410565b505050565b60008060009054906101000a900473ffffffffffffffffffffffffffffffffffffffff169050816000806101000a81548173ffffffffffffffffffffffffffffffffffffffff021916908373ffffffffffffffffffffffffffffffffffffffff1602179055508173ffffffffffffffffffffffffffffffffffffffff168173ffffffffffffffffffffffffffffffffffffffff167f8be0079c531659141344cd1fd0a4f28419497f9722a3daafe3b4186f6b6457e060405160405180910390a35050565b8173ffffffffffffffffffffffffffffffffffffffff168373ffffffffffffffffffffffffffffffffffffffff1603611a64576040517f08c379a0000000000000000000000000000000000000000000000000000000008152600401611a5b90613993565b60405180910390fd5b80600660008573ffffffffffffffffffffffffffffffffffffffff1673ffffffffffffffffffffffffffffffffffffffff16815260200190815260200160002060008473ffffffffffffffffffffffffffffffffffffffff1673ffffffffffffffffffffffffffffffffffffffff16815260200190815260200160002060006101000a81548160ff0219169083151502179055508173ffffffffffffffffffffffffffffffffffffffff168373ffffffffffffffffffffffffffffffffffffffff167f17307eab39ab6107e8899845ad3d59bd9653f200f220920489ca2b5937696c3183604051611b55919061269d565b60405180910390a3505050565b6060611b6d8261175e565b6000600760008481526020019081526020016000208054611b8d90612dcf565b80601f0160208091040260200160405190810160405280929190818152602001828054611bb990612dcf565b8015611c065780601f10611bdb57610100808354040283529160200191611c06565b820191906000526020600020905b815481529060010190602001808311611be957829003601f168201915b505050505090506000611c17611e5a565b90506000815103611c2c578192505050611c6f565b600082511115611c61578082604051602001611c499291906139ef565b60405160208183030381529060405292505050611c6f565b611c6a84611e71565b925050505b919050565b6000611c7e6116d2565b611c888383611ed9565b6000611c946008611750565b90506001600c600083815260200190815260200160002060006101000a81548160ff0219169083151502179055506000600d600083815260200190815260200160002060006101000a81548160ff021916908315150217905550611cf884826118a7565b611d0281846118c5565b80600e81905550611d1360086115da565b7f032bc66be43dbccb7487781d168eb7bda224628a3b2c3388bdf69b532a3a161181604051611d42919061272a565b60405180910390a18091505092915050565b60007f01ffc9a7000000000000000000000000000000000000000000000000000000007bffffffffffffffffffffffffffffffffffffffffffffffffffffffff1916827bffffffffffffffffffffffffffffffffffffffffffffffffffffffff1916149050919050565b60008073ffffffffffffffffffffffffffffffffffffffff16611de08361186a565b73ffffffffffffffffffffffffffffffffffffffff1614159050919050565b611e098383611fe3565b611e166000848484612200565b611e55576040517f08c379a0000000000000000000000000000000000000000000000000000000008152600401611e4c90613a85565b60405180910390fd5b505050565b606060405180602001604052806000815250905090565b6060611e7c8261175e565b6000611e86611e5a565b90506000815111611ea65760405180602001604052806000815250611ed1565b80611eb084612387565b604051602001611ec19291906139ef565b6040516020818303038152906040525b915050919050565b611ee16116d2565b600073ffffffffffffffffffffffffffffffffffffffff168273ffffffffffffffffffffffffffffffffffffffff1603611f50576040517f08c379a0000000000000000000000000000000000000000000000000000000008152600401611f4790613af1565b60405180910390fd5b6000611f5b83610da5565b14611f9b576040517f08c379a0000000000000000000000000000000000000000000000000000000008152600401611f92906130b4565b60405180910390fd5b6000815111611fdf576040517f08c379a0000000000000000000000000000000000000000000000000000000008152600401611fd690613b5d565b60405180910390fd5b5050565b600073ffffffffffffffffffffffffffffffffffffffff168273ffffffffffffffffffffffffffffffffffffffff1603612052576040517f08c379a000000000000000000000000000000000000000000000000000000000815260040161204990613bc9565b60405180910390fd5b61205b81611dbe565b1561209b576040517f08c379a000000000000000000000000000000000000000000000000000000000815260040161209290613c35565b60405180910390fd5b6120a9600083836001612455565b6120b281611dbe565b156120f2576040517f08c379a00000000000000000000000000000000000000000000000000000000081526004016120e990613c35565b60405180910390fd5b6001600460008473ffffffffffffffffffffffffffffffffffffffff1673ffffffffffffffffffffffffffffffffffffffff16815260200190815260200160002060008282540192505081905550816003600083815260200190815260200160002060006101000a81548173ffffffffffffffffffffffffffffffffffffffff021916908373ffffffffffffffffffffffffffffffffffffffff160217905550808273ffffffffffffffffffffffffffffffffffffffff16600073ffffffffffffffffffffffffffffffffffffffff167fddf252ad1be2c89b69c2b068fc378daa952ba7f163c4a11628f55a4df523b3ef60405160405180910390a46121fc600083836001612467565b5050565b60006122218473ffffffffffffffffffffffffffffffffffffffff1661246d565b1561237a578373ffffffffffffffffffffffffffffffffffffffff1663150b7a0261224a6117a9565b8786866040518563ffffffff1660e01b815260040161226c9493929190613caa565b6020604051808303816000875af19250505080156122a857506040513d601f19601f820116820180604052508101906122a59190613d0b565b60015b61232a573d80600081146122d8576040519150601f19603f3d011682016040523d82523d6000602084013e6122dd565b606091505b506000815103612322576040517f08c379a000000000000000000000000000000000000000000000000000000000815260040161231990613a85565b60405180910390fd5b805181602001fd5b63150b7a0260e01b7bffffffffffffffffffffffffffffffffffffffffffffffffffffffff1916817bffffffffffffffffffffffffffffffffffffffffffffffffffffffff19161491505061237f565b600190505b949350505050565b60606000600161239684612490565b01905060008167ffffffffffffffff8111156123b5576123b4612949565b5b6040519080825280601f01601f1916602001820160405280156123e75781602001600182028036833780820191505090505b509050600082602001820190505b60011561244a578080600190039150507f3031323334353637383961626364656600000000000000000000000000000000600a86061a8153600a858161243e5761243d613d38565b5b049450600085036123f5575b819350505050919050565b612461848484846125e3565b50505050565b50505050565b6000808273ffffffffffffffffffffffffffffffffffffffff163b119050919050565b600080600090507a184f03e93ff9f4daa797ed6e38ed64bf6a1f01000000000000000083106124ee577a184f03e93ff9f4daa797ed6e38ed64bf6a1f01000000000000000083816124e4576124e3613d38565b5b0492506040810190505b6d04ee2d6d415b85acef8100000000831061252b576d04ee2d6d415b85acef8100000000838161252157612520613d38565b5b0492506020810190505b662386f26fc10000831061255a57662386f26fc1000083816125505761254f613d38565b5b0492506010810190505b6305f5e1008310612583576305f5e100838161257957612578613d38565b5b0492506008810190505b61271083106125a857612710838161259e5761259d613d38565b5b0492506004810190505b606483106125cb57606483816125c1576125c0613d38565b5b0492506002810190505b600a83106125da576001810190505b80915050919050565b50505050565b6000604051905090565b600080fd5b600080fd5b60007fffffffff0000000000000000000000000000000000000000000000000000000082169050919050565b612632816125fd565b811461263d57600080fd5b50565b60008135905061264f81612629565b92915050565b60006020828403121561266b5761266a6125f3565b5b600061267984828501612640565b91505092915050565b60008115159050919050565b61269781612682565b82525050565b60006020820190506126b2600083018461268e565b92915050565b6000819050919050565b6126cb816126b8565b81146126d657600080fd5b50565b6000813590506126e8816126c2565b92915050565b600060208284031215612704576127036125f3565b5b6000612712848285016126d9565b91505092915050565b612724816126b8565b82525050565b600060208201905061273f600083018461271b565b92915050565b600081519050919050565b600082825260208201905092915050565b60005b8381101561277f578082015181840152602081019050612764565b60008484015250505050565b6000601f19601f8301169050919050565b60006127a782612745565b6127b18185612750565b93506127c1818560208601612761565b6127ca8161278b565b840191505092915050565b600060208201905081810360008301526127ef818461279c565b905092915050565b600073ffffffffffffffffffffffffffffffffffffffff82169050919050565b6000612822826127f7565b9050919050565b61283281612817565b82525050565b600060208201905061284d6000830184612829565b92915050565b61285c81612817565b811461286757600080fd5b50565b60008135905061287981612853565b92915050565b60008060408385031215612896576128956125f3565b5b60006128a48582860161286a565b92505060206128b5858286016126d9565b9150509250929050565b6000806000606084860312156128d8576128d76125f3565b5b60006128e68682870161286a565b93505060206128f78682870161286a565b9250506040612908868287016126d9565b9150509250925092565b600060208284031215612928576129276125f3565b5b60006129368482850161286a565b91505092915050565b600080fd5b600080fd5b7f4e487b7100000000000000000000000000000000000000000000000000000000600052604160045260246000fd5b6129818261278b565b810181811067ffffffffffffffff821117156129a05761299f612949565b5b80604052505050565b60006129b36125e9565b90506129bf8282612978565b919050565b600067ffffffffffffffff8211156129df576129de612949565b5b6129e88261278b565b9050602081019050919050565b82818337600083830152505050565b6000612a17612a12846129c4565b6129a9565b905082815260208101848484011115612a3357612a32612944565b5b612a3e8482856129f5565b509392505050565b600082601f830112612a5b57612a5a61293f565b5b8135612a6b848260208601612a04565b91505092915050565b600060208284031215612a8a57612a896125f3565b5b600082013567ffffffffffffffff811115612aa857612aa76125f8565b5b612ab484828501612a46565b91505092915050565b612ac681612682565b8114612ad157600080fd5b50565b600081359050612ae381612abd565b92915050565b60008060408385031215612b0057612aff6125f3565b5b6000612b0e8582860161286a565b9250506020612b1f85828601612ad4565b9150509250929050565b600067ffffffffffffffff821115612b4457612b43612949565b5b612b4d8261278b565b9050602081019050919050565b6000612b6d612b6884612b29565b6129a9565b905082815260208101848484011115612b8957612b88612944565b5b612b948482856129f5565b509392505050565b600082601f830112612bb157612bb061293f565b5b8135612bc1848260208601612b5a565b91505092915050565b60008060008060808587031215612be457612be36125f3565b5b6000612bf28782880161286a565b9450506020612c038782880161286a565b9350506040612c14878288016126d9565b925050606085013567ffffffffffffffff811115612c3557612c346125f8565b5b612c4187828801612b9c565b91505092959194509250565b60008060408385031215612c6457612c636125f3565b5b6000612c72858286016126d9565b9250506020612c83858286016126d9565b9150509250929050565b60008060408385031215612ca457612ca36125f3565b5b6000612cb28582860161286a565b925050602083013567ffffffffffffffff811115612cd357612cd26125f8565b5b612cdf85828601612a46565b9150509250929050565b60008060408385031215612d0057612cff6125f3565b5b6000612d0e8582860161286a565b9250506020612d1f8582860161286a565b9150509250929050565b7f4e487b7100000000000000000000000000000000000000000000000000000000600052601160045260246000fd5b6000612d63826126b8565b91507fffffffffffffffffffffffffffffffffffffffffffffffffffffffffffffffff8203612d9557612d94612d29565b5b600182019050919050565b7f4e487b7100000000000000000000000000000000000000000000000000000000600052602260045260246000fd5b60006002820490506001821680612de757607f821691505b602082108103612dfa57612df9612da0565b5b50919050565b7f4552433732313a20617070726f76616c20746f2063757272656e74206f776e6560008201527f7200000000000000000000000000000000000000000000000000000000000000602082015250565b6000612e5c602183612750565b9150612e6782612e00565b604082019050919050565b60006020820190508181036000830152612e8b81612e4f565b9050919050565b7f4552433732313a20617070726f76652063616c6c6572206973206e6f7420746f60008201527f6b656e206f776e6572206f7220617070726f76656420666f7220616c6c000000602082015250565b6000612eee603d83612750565b9150612ef982612e92565b604082019050919050565b60006020820190508181036000830152612f1d81612ee1565b9050919050565b7f4e4f205452414e534645522046524f4d20414c4c4f5745440000000000000000600082015250565b6000612f5a601883612750565b9150612f6582612f24565b602082019050919050565b60006020820190508181036000830152612f8981612f4d565b9050919050565b7f4d657469735342543a20494e56414c4944204144445245535300000000000000600082015250565b6000612fc6601983612750565b9150612fd182612f90565b602082019050919050565b60006020820190508181036000830152612ff581612fb9565b9050919050565b7f4552433732313a20696e76616c696420746f6b656e2049440000000000000000600082015250565b6000613032601883612750565b915061303d82612ffc565b602082019050919050565b6000602082019050818103600083015261306181613025565b9050919050565b7f4d657469735342543a205573657220616c726561647920686173205342540000600082015250565b600061309e601e83612750565b91506130a982613068565b602082019050919050565b600060208201905081810360008301526130cd81613091565b9050919050565b7f4d657469735342543a20546f6b656e206e6f7420617661696c61626c6520746f60008201527f206d696e74000000000000000000000000000000000000000000000000000000602082015250565b6000613130602583612750565b915061313b826130d4565b604082019050919050565b6000602082019050818103600083015261315f81613123565b9050919050565b7f4d657469735342543a20546f6b656e206c6f636b656400000000000000000000600082015250565b600061319c601683612750565b91506131a782613166565b602082019050919050565b600060208201905081810360008301526131cb8161318f565b9050919050565b7f4552433732313a2061646472657373207a65726f206973206e6f74206120766160008201527f6c6964206f776e65720000000000000000000000000000000000000000000000602082015250565b600061322e602983612750565b9150613239826131d2565b604082019050919050565b6000602082019050818103600083015261325d81613221565b9050919050565b60008190508160005260206000209050919050565b60006020601f8301049050919050565b600082821b905092915050565b6000600883026132c67fffffffffffffffffffffffffffffffffffffffffffffffffffffffffffffffff82613289565b6132d08683613289565b95508019841693508086168417925050509392505050565b6000819050919050565b600061330d613308613303846126b8565b6132e8565b6126b8565b9050919050565b6000819050919050565b613327836132f2565b61333b61333382613314565b848454613296565b825550505050565b600090565b613350613343565b61335b81848461331e565b505050565b5b8181101561337f57613374600082613348565b600181019050613361565b5050565b601f8211156133c45761339581613264565b61339e84613279565b810160208510156133ad578190505b6133c16133b985613279565b830182613360565b50505b505050565b600082821c905092915050565b60006133e7600019846008026133c9565b1980831691505092915050565b600061340083836133d6565b9150826002028217905092915050565b61341982612745565b67ffffffffffffffff81111561343257613431612949565b5b61343c8254612dcf565b613447828285613383565b600060209050601f83116001811461347a5760008415613468578287015190505b61347285826133f4565b8655506134da565b601f19841661348886613264565b60005b828110156134b05784890151825560018201915060208501945060208101905061348b565b868310156134cd57848901516134c9601f8916826133d6565b8355505b6001600288020188555050505b505050505050565b600081546134ef81612dcf565b6134f98186612750565b94506001821660008114613514576001811461352a5761355d565b60ff19831686528115156020028601935061355d565b61353385613264565b60005b8381101561355557815481890152600182019150602081019050613536565b808801955050505b50505092915050565b6000602082019050818103600083015261358081846134e2565b905092915050565b600060408201905061359d600083018561271b565b81810360208301526135af818461279c565b90509392505050565b7f4f776e61626c653a206e6577206f776e657220697320746865207a65726f206160008201527f6464726573730000000000000000000000000000000000000000000000000000602082015250565b6000613614602683612750565b915061361f826135b8565b604082019050919050565b6000602082019050818103600083015261364381613607565b9050919050565b7f4d657469735342543a204f4e4c59204d4554495320564f544520434f4e54524160008201527f4354000000000000000000000000000000000000000000000000000000000000602082015250565b60006136a6602283612750565b91506136b18261364a565b604082019050919050565b600060208201905081810360008301526136d581613699565b9050919050565b7f4d657469735342543a20546f6b656e206973206672656520746f206d696e7400600082015250565b6000613712601f83612750565b915061371d826136dc565b602082019050919050565b6000602082019050818103600083015261374181613705565b9050919050565b7f4d657469735342543a20746f6b656e206973206672656520746f206d696e7400600082015250565b600061377e601f83612750565b915061378982613748565b602082019050919050565b600060208201905081810360008301526137ad81613771565b9050919050565b7f4d657469735342543a20746f6b656e20686173206e6f206f776e657200000000600082015250565b60006137ea601c83612750565b91506137f5826137b4565b602082019050919050565b60006020820190508181036000830152613819816137dd565b9050919050565b6000604082019050613835600083018561271b565b613842602083018461271b565b9392505050565b7f4f776e61626c653a2063616c6c6572206973206e6f7420746865206f776e6572600082015250565b600061387f602083612750565b915061388a82613849565b602082019050919050565b600060208201905081810360008301526138ae81613872565b9050919050565b7f45524337323155524953746f726167653a2055524920736574206f66206e6f6e60008201527f6578697374656e7420746f6b656e000000000000000000000000000000000000602082015250565b6000613911602e83612750565b915061391c826138b5565b604082019050919050565b6000602082019050818103600083015261394081613904565b9050919050565b7f4552433732313a20617070726f766520746f2063616c6c657200000000000000600082015250565b600061397d601983612750565b915061398882613947565b602082019050919050565b600060208201905081810360008301526139ac81613970565b9050919050565b600081905092915050565b60006139c982612745565b6139d381856139b3565b93506139e3818560208601612761565b80840191505092915050565b60006139fb82856139be565b9150613a0782846139be565b91508190509392505050565b7f4552433732313a207472616e7366657220746f206e6f6e20455243373231526560008201527f63656976657220696d706c656d656e7465720000000000000000000000000000602082015250565b6000613a6f603283612750565b9150613a7a82613a13565b604082019050919050565b60006020820190508181036000830152613a9e81613a62565b9050919050565b7f4d657469735342543a20496e76616c6964206164647265737300000000000000600082015250565b6000613adb601983612750565b9150613ae682613aa5565b602082019050919050565b60006020820190508181036000830152613b0a81613ace565b9050919050565b7f4d657469735342543a20456d7074792055524900000000000000000000000000600082015250565b6000613b47601383612750565b9150613b5282613b11565b602082019050919050565b60006020820190508181036000830152613b7681613b3a565b9050919050565b7f4552433732313a206d696e7420746f20746865207a65726f2061646472657373600082015250565b6000613bb3602083612750565b9150613bbe82613b7d565b602082019050919050565b60006020820190508181036000830152613be281613ba6565b9050919050565b7f4552433732313a20746f6b656e20616c7265616479206d696e74656400000000600082015250565b6000613c1f601c83612750565b9150613c2a82613be9565b602082019050919050565b60006020820190508181036000830152613c4e81613c12565b9050919050565b600081519050919050565b600082825260208201905092915050565b6000613c7c82613c55565b613c868185613c60565b9350613c96818560208601612761565b613c9f8161278b565b840191505092915050565b6000608082019050613cbf6000830187612829565b613ccc6020830186612829565b613cd9604083018561271b565b8181036060830152613ceb8184613c71565b905095945050505050565b600081519050613d0581612629565b92915050565b600060208284031215613d2157613d206125f3565b5b6000613d2f84828501613cf6565b91505092915050565b7f4e487b7100000000000000000000000000000000000000000000000000000000600052601260045260246000fdfea2646970667358221220e03c19e70d00c07eaa990395615b7b3525fedb94aaf2001210ee90c80c8bd22064736f6c63430008120033",
  "devdoc": {
    "events": {
      "Approval(address,address,uint256)": {
        "details": "Emitted when `owner` enables `approved` to manage the `tokenId` token."
      },
      "ApprovalForAll(address,address,bool)": {
        "details": "Emitted when `owner` enables or disables (`approved`) `operator` to manage all of its assets."
      },
      "Locked(uint256)": {
        "details": "If a token is minted and the status is locked, this event should be emitted.",
        "params": {
          "tokenId": "The identifier for a token."
        }
      },
      "Transfer(address,address,uint256)": {
        "details": "Emitted when `tokenId` token is transferred from `from` to `to`."
      },
      "Unlocked(uint256)": {
        "details": "If a token is minted and the status is unlocked, this event should be emitted.",
        "params": {
          "tokenId": "The identifier for a token."
        }
      }
    },
    "kind": "dev",
    "methods": {
      "approve(address,uint256)": {
        "details": "See {IERC721-approve}."
      },
      "balanceOf(address)": {
        "details": "See {IERC721-balanceOf}."
      },
      "getApproved(uint256)": {
        "details": "See {IERC721-getApproved}."
      },
      "isApprovedForAll(address,address)": {
        "details": "See {IERC721-isApprovedForAll}."
      },
      "locked(uint256)": {
        "details": "SBTs assigned to zero address are considered invalid, and queries about them do throw.",
        "params": {
          "tokenId": "The identifier for an SBT."
        }
      },
      "name()": {
        "details": "See {IERC721Metadata-name}."
      },
      "owner()": {
        "details": "Returns the address of the current owner."
      },
      "ownerOf(uint256)": {
        "details": "See {IERC721-ownerOf}."
      },
      "renounceOwnership()": {
        "details": "Leaves the contract without owner. It will not be possible to call `onlyOwner` functions anymore. Can only be called by the current owner. NOTE: Renouncing ownership will leave the contract without an owner, thereby removing any functionality that is only available to the owner."
      },
      "safeLazyMint()": {
        "returns": {
          "_0": "id of the next NFT to be minted"
        }
      },
      "safeLazyMintBatch(uint256)": {
        "params": {
          "quantity": "amount of NFTs to be minted"
        },
        "returns": {
          "_0": "id of the next NFT to be minted"
        }
      },
      "setApprovalForAll(address,bool)": {
        "details": "See {IERC721-setApprovalForAll}."
      },
      "setContractURI(string)": {
        "params": {
          "_contractUri": "contractUri"
        }
      },
      "supportsInterface(bytes4)": {
        "details": "See {IERC165-supportsInterface}."
      },
      "symbol()": {
        "details": "See {IERC721Metadata-symbol}."
      },
      "tokenURI(uint256)": {
        "custom:notice": "The following function is override required by Solidity."
      },
      "transferOwnership(address)": {
        "details": "Transfers ownership of the contract to a new account (`newOwner`). Can only be called by the current owner."
      }
    },
    "stateVariables": {
      "_tokenIdCounter": {
        "details": "Public counter to make internal security checks"
      },
      "contractUri": {
        "details": "ContractUri"
      }
    },
    "version": 1
  },
  "userdoc": {
    "events": {
      "Locked(uint256)": {
        "notice": "Emitted when the locking status is changed to locked."
      },
      "Unlocked(uint256)": {
        "notice": "Emitted when the locking status is changed to unlocked."
      }
    },
    "kind": "user",
    "methods": {
      "locked(uint256)": {
        "notice": "Returns the locking status of an Soulbound Token"
      },
      "safeLazyMint()": {
        "notice": "Lazy Mint NFTs"
      },
      "safeLazyMintBatch(uint256)": {
        "notice": "Laxy Batch Mint NFTs"
      },
      "setContractURI(string)": {
        "notice": "Modify contractUri for NFT collection"
      }
    },
    "version": 1
  },
  "storageLayout": {
    "storage": [
      {
        "astId": 7,
        "contract": "contracts/MetisSBT.sol:MetisSBT",
        "label": "_owner",
        "offset": 0,
        "slot": "0",
        "type": "t_address"
      },
      {
        "astId": 138,
        "contract": "contracts/MetisSBT.sol:MetisSBT",
        "label": "_name",
        "offset": 0,
        "slot": "1",
        "type": "t_string_storage"
      },
      {
        "astId": 140,
        "contract": "contracts/MetisSBT.sol:MetisSBT",
        "label": "_symbol",
        "offset": 0,
        "slot": "2",
        "type": "t_string_storage"
      },
      {
        "astId": 144,
        "contract": "contracts/MetisSBT.sol:MetisSBT",
        "label": "_owners",
        "offset": 0,
        "slot": "3",
        "type": "t_mapping(t_uint256,t_address)"
      },
      {
        "astId": 148,
        "contract": "contracts/MetisSBT.sol:MetisSBT",
        "label": "_balances",
        "offset": 0,
        "slot": "4",
        "type": "t_mapping(t_address,t_uint256)"
      },
      {
        "astId": 152,
        "contract": "contracts/MetisSBT.sol:MetisSBT",
        "label": "_tokenApprovals",
        "offset": 0,
        "slot": "5",
        "type": "t_mapping(t_uint256,t_address)"
      },
      {
        "astId": 158,
        "contract": "contracts/MetisSBT.sol:MetisSBT",
        "label": "_operatorApprovals",
        "offset": 0,
        "slot": "6",
        "type": "t_mapping(t_address,t_mapping(t_address,t_bool))"
      },
      {
        "astId": 1186,
        "contract": "contracts/MetisSBT.sol:MetisSBT",
        "label": "_tokenURIs",
        "offset": 0,
        "slot": "7",
        "type": "t_mapping(t_uint256,t_string_storage)"
      },
      {
        "astId": 2850,
        "contract": "contracts/MetisSBT.sol:MetisSBT",
        "label": "_tokenIdCounter",
        "offset": 0,
        "slot": "8",
        "type": "t_struct(Counter)1683_storage"
      },
      {
        "astId": 2853,
        "contract": "contracts/MetisSBT.sol:MetisSBT",
        "label": "contractUri",
        "offset": 0,
        "slot": "9",
        "type": "t_string_storage"
      },
      {
        "astId": 2855,
        "contract": "contracts/MetisSBT.sol:MetisSBT",
        "label": "defaultTokenUri",
        "offset": 0,
        "slot": "10",
        "type": "t_string_storage"
      },
      {
        "astId": 2857,
        "contract": "contracts/MetisSBT.sol:MetisSBT",
        "label": "METIS_VOTE",
        "offset": 0,
        "slot": "11",
        "type": "t_address"
      },
      {
        "astId": 2861,
        "contract": "contracts/MetisSBT.sol:MetisSBT",
        "label": "lockedSBTs",
        "offset": 0,
        "slot": "12",
        "type": "t_mapping(t_uint256,t_bool)"
      },
      {
        "astId": 2865,
        "contract": "contracts/MetisSBT.sol:MetisSBT",
        "label": "availableToMint",
        "offset": 0,
        "slot": "13",
        "type": "t_mapping(t_uint256,t_bool)"
      },
      {
        "astId": 2867,
        "contract": "contracts/MetisSBT.sol:MetisSBT",
        "label": "lastMintedSBT",
        "offset": 0,
        "slot": "14",
        "type": "t_uint256"
      },
      {
        "astId": 2873,
        "contract": "contracts/MetisSBT.sol:MetisSBT",
        "label": "votes",
        "offset": 0,
        "slot": "15",
        "type": "t_mapping(t_uint256,t_mapping(t_uint256,t_bool))"
      }
    ],
    "types": {
      "t_address": {
        "encoding": "inplace",
        "label": "address",
        "numberOfBytes": "20"
      },
      "t_bool": {
        "encoding": "inplace",
        "label": "bool",
        "numberOfBytes": "1"
      },
      "t_mapping(t_address,t_bool)": {
        "encoding": "mapping",
        "key": "t_address",
        "label": "mapping(address => bool)",
        "numberOfBytes": "32",
        "value": "t_bool"
      },
      "t_mapping(t_address,t_mapping(t_address,t_bool))": {
        "encoding": "mapping",
        "key": "t_address",
        "label": "mapping(address => mapping(address => bool))",
        "numberOfBytes": "32",
        "value": "t_mapping(t_address,t_bool)"
      },
      "t_mapping(t_address,t_uint256)": {
        "encoding": "mapping",
        "key": "t_address",
        "label": "mapping(address => uint256)",
        "numberOfBytes": "32",
        "value": "t_uint256"
      },
      "t_mapping(t_uint256,t_address)": {
        "encoding": "mapping",
        "key": "t_uint256",
        "label": "mapping(uint256 => address)",
        "numberOfBytes": "32",
        "value": "t_address"
      },
      "t_mapping(t_uint256,t_bool)": {
        "encoding": "mapping",
        "key": "t_uint256",
        "label": "mapping(uint256 => bool)",
        "numberOfBytes": "32",
        "value": "t_bool"
      },
      "t_mapping(t_uint256,t_mapping(t_uint256,t_bool))": {
        "encoding": "mapping",
        "key": "t_uint256",
        "label": "mapping(uint256 => mapping(uint256 => bool))",
        "numberOfBytes": "32",
        "value": "t_mapping(t_uint256,t_bool)"
      },
      "t_mapping(t_uint256,t_string_storage)": {
        "encoding": "mapping",
        "key": "t_uint256",
        "label": "mapping(uint256 => string)",
        "numberOfBytes": "32",
        "value": "t_string_storage"
      },
      "t_string_storage": {
        "encoding": "bytes",
        "label": "string",
        "numberOfBytes": "32"
      },
      "t_struct(Counter)1683_storage": {
        "encoding": "inplace",
        "label": "struct Counters.Counter",
        "members": [
          {
            "astId": 1682,
            "contract": "contracts/MetisSBT.sol:MetisSBT",
            "label": "_value",
            "offset": 0,
            "slot": "0",
            "type": "t_uint256"
          }
        ],
        "numberOfBytes": "32"
      },
      "t_uint256": {
        "encoding": "inplace",
        "label": "uint256",
        "numberOfBytes": "32"
      }
    }
  }
}