{
  "address": "0x72b957E4eF406b02D18EC0C4607236dC84e21b94",
  "abi": [
    {
      "inputs": [],
      "stateMutability": "nonpayable",
      "type": "constructor"
    },
    {
      "inputs": [
        {
          "internalType": "string",
          "name": "message",
          "type": "string"
        }
      ],
      "name": "TransferForbidden",
      "type": "error"
    },
    {
      "anonymous": false,
      "inputs": [
        {
          "indexed": true,
          "internalType": "address",
          "name": "owner",
          "type": "address"
        },
        {
          "indexed": true,
          "internalType": "address",
          "name": "approved",
          "type": "address"
        },
        {
          "indexed": true,
          "internalType": "uint256",
          "name": "tokenId",
          "type": "uint256"
        }
      ],
      "name": "Approval",
      "type": "event"
    },
    {
      "anonymous": false,
      "inputs": [
        {
          "indexed": true,
          "internalType": "address",
          "name": "owner",
          "type": "address"
        },
        {
          "indexed": true,
          "internalType": "address",
          "name": "operator",
          "type": "address"
        },
        {
          "indexed": false,
          "internalType": "bool",
          "name": "approved",
          "type": "bool"
        }
      ],
      "name": "ApprovalForAll",
      "type": "event"
    },
    {
      "anonymous": false,
      "inputs": [
        {
          "indexed": true,
          "internalType": "address",
          "name": "user",
          "type": "address"
        },
        {
          "indexed": false,
          "internalType": "uint256",
          "name": "tokenId",
          "type": "uint256"
        }
      ],
      "name": "ClaimedSBT",
      "type": "event"
    },
    {
      "anonymous": false,
      "inputs": [
        {
          "indexed": false,
          "internalType": "string",
          "name": "contractUri",
          "type": "string"
        }
      ],
      "name": "ContractURIUpdated",
      "type": "event"
    },
    {
      "anonymous": false,
      "inputs": [
        {
          "indexed": false,
          "internalType": "string",
          "name": "_defaultTokenURI",
          "type": "string"
        }
      ],
      "name": "DefaultTokenURIUpdated",
      "type": "event"
    },
    {
      "anonymous": false,
      "inputs": [
        {
          "indexed": false,
          "internalType": "uint256",
          "name": "tokenId",
          "type": "uint256"
        }
      ],
      "name": "Locked",
      "type": "event"
    },
    {
      "anonymous": false,
      "inputs": [],
      "name": "MetisSBTInitialized",
      "type": "event"
    },
    {
      "anonymous": false,
      "inputs": [
        {
          "indexed": true,
          "internalType": "address",
          "name": "_metisVote",
          "type": "address"
        }
      ],
      "name": "MetisVoteSet",
      "type": "event"
    },
    {
      "anonymous": false,
      "inputs": [
        {
          "indexed": true,
          "internalType": "address",
          "name": "to",
          "type": "address"
        },
        {
          "indexed": false,
          "internalType": "uint256",
          "name": "tokenId",
          "type": "uint256"
        },
        {
          "indexed": false,
          "internalType": "string",
          "name": "uri",
          "type": "string"
        }
      ],
      "name": "MintSBT",
      "type": "event"
    },
    {
      "anonymous": false,
      "inputs": [
        {
          "indexed": true,
          "internalType": "address",
          "name": "previousOwner",
          "type": "address"
        },
        {
          "indexed": true,
          "internalType": "address",
          "name": "newOwner",
          "type": "address"
        }
      ],
      "name": "OwnershipTransferred",
      "type": "event"
    },
    {
      "anonymous": false,
      "inputs": [
        {
          "indexed": true,
          "internalType": "address",
          "name": "from",
          "type": "address"
        },
        {
          "indexed": true,
          "internalType": "address",
          "name": "to",
          "type": "address"
        },
        {
          "indexed": true,
          "internalType": "uint256",
          "name": "tokenId",
          "type": "uint256"
        }
      ],
      "name": "Transfer",
      "type": "event"
    },
    {
      "anonymous": false,
      "inputs": [
        {
          "indexed": false,
          "internalType": "uint256",
          "name": "tokenId",
          "type": "uint256"
        }
      ],
      "name": "Unlocked",
      "type": "event"
    },
    {
      "anonymous": false,
      "inputs": [
        {
          "indexed": false,
          "internalType": "uint256",
          "name": "_tokenId",
          "type": "uint256"
        },
        {
          "indexed": false,
          "internalType": "uint256",
          "name": "_electionId",
          "type": "uint256"
        }
      ],
      "name": "VoteAdded",
      "type": "event"
    },
    {
      "inputs": [],
      "name": "METIS_VOTE",
      "outputs": [
        {
          "internalType": "address",
          "name": "",
          "type": "address"
        }
      ],
      "stateMutability": "view",
      "type": "function"
    },
    {
      "inputs": [
        {
          "internalType": "uint256",
          "name": "_electionId",
          "type": "uint256"
        },
        {
          "internalType": "uint256",
          "name": "_tokenId",
          "type": "uint256"
        }
      ],
      "name": "addVote",
      "outputs": [],
      "stateMutability": "nonpayable",
      "type": "function"
    },
    {
      "inputs": [
        {
          "internalType": "address",
          "name": "to",
          "type": "address"
        },
        {
          "internalType": "uint256",
          "name": "tokenId",
          "type": "uint256"
        }
      ],
      "name": "approve",
      "outputs": [],
      "stateMutability": "nonpayable",
      "type": "function"
    },
    {
      "inputs": [
        {
          "internalType": "uint256",
          "name": "",
          "type": "uint256"
        }
      ],
      "name": "availableToMint",
      "outputs": [
        {
          "internalType": "bool",
          "name": "",
          "type": "bool"
        }
      ],
      "stateMutability": "view",
      "type": "function"
    },
    {
      "inputs": [
        {
          "internalType": "address",
          "name": "owner",
          "type": "address"
        }
      ],
      "name": "balanceOf",
      "outputs": [
        {
          "internalType": "uint256",
          "name": "",
          "type": "uint256"
        }
      ],
      "stateMutability": "view",
      "type": "function"
    },
    {
      "inputs": [
        {
          "internalType": "uint256",
          "name": "_tokenId",
          "type": "uint256"
        }
      ],
      "name": "claimSBT",
      "outputs": [],
      "stateMutability": "nonpayable",
      "type": "function"
    },
    {
      "inputs": [],
      "name": "contractUri",
      "outputs": [
        {
          "internalType": "string",
          "name": "",
          "type": "string"
        }
      ],
      "stateMutability": "view",
      "type": "function"
    },
    {
      "inputs": [],
      "name": "defaultTokenUri",
      "outputs": [
        {
          "internalType": "string",
          "name": "",
          "type": "string"
        }
      ],
      "stateMutability": "view",
      "type": "function"
    },
    {
      "inputs": [
        {
          "internalType": "uint256",
          "name": "tokenId",
          "type": "uint256"
        }
      ],
      "name": "getApproved",
      "outputs": [
        {
          "internalType": "address",
          "name": "",
          "type": "address"
        }
      ],
      "stateMutability": "view",
      "type": "function"
    },
    {
      "inputs": [
        {
          "internalType": "address",
          "name": "owner",
          "type": "address"
        },
        {
          "internalType": "address",
          "name": "operator",
          "type": "address"
        }
      ],
      "name": "isApprovedForAll",
      "outputs": [
        {
          "internalType": "bool",
          "name": "",
          "type": "bool"
        }
      ],
      "stateMutability": "view",
      "type": "function"
    },
    {
      "inputs": [
        {
          "internalType": "uint256",
          "name": "tokenId",
          "type": "uint256"
        }
      ],
      "name": "locked",
      "outputs": [
        {
          "internalType": "bool",
          "name": "",
          "type": "bool"
        }
      ],
      "stateMutability": "view",
      "type": "function"
    },
    {
      "inputs": [
        {
          "internalType": "address",
          "name": "_to",
          "type": "address"
        },
        {
          "internalType": "string",
          "name": "_uri",
          "type": "string"
        }
      ],
      "name": "mint",
      "outputs": [
        {
          "internalType": "uint256",
          "name": "",
          "type": "uint256"
        }
      ],
      "stateMutability": "nonpayable",
      "type": "function"
    },
    {
      "inputs": [],
      "name": "name",
      "outputs": [
        {
          "internalType": "string",
          "name": "",
          "type": "string"
        }
      ],
      "stateMutability": "view",
      "type": "function"
    },
    {
      "inputs": [],
      "name": "owner",
      "outputs": [
        {
          "internalType": "address",
          "name": "",
          "type": "address"
        }
      ],
      "stateMutability": "view",
      "type": "function"
    },
    {
      "inputs": [
        {
          "internalType": "uint256",
          "name": "tokenId",
          "type": "uint256"
        }
      ],
      "name": "ownerOf",
      "outputs": [
        {
          "internalType": "address",
          "name": "",
          "type": "address"
        }
      ],
      "stateMutability": "view",
      "type": "function"
    },
    {
      "inputs": [],
      "name": "renounceOwnership",
      "outputs": [],
      "stateMutability": "nonpayable",
      "type": "function"
    },
    {
      "inputs": [],
      "name": "safeLazyMint",
      "outputs": [
        {
          "internalType": "uint256",
          "name": "",
          "type": "uint256"
        }
      ],
      "stateMutability": "nonpayable",
      "type": "function"
    },
    {
      "inputs": [
        {
          "internalType": "uint256",
          "name": "quantity",
          "type": "uint256"
        }
      ],
      "name": "safeLazyMintBatch",
      "outputs": [
        {
          "internalType": "uint256",
          "name": "",
          "type": "uint256"
        }
      ],
      "stateMutability": "nonpayable",
      "type": "function"
    },
    {
      "inputs": [
        {
          "internalType": "address",
          "name": "",
          "type": "address"
        },
        {
          "internalType": "address",
          "name": "",
          "type": "address"
        },
        {
          "internalType": "uint256",
          "name": "",
          "type": "uint256"
        }
      ],
      "name": "safeTransferFrom",
      "outputs": [],
      "stateMutability": "pure",
      "type": "function"
    },
    {
      "inputs": [
        {
          "internalType": "address",
          "name": "",
          "type": "address"
        },
        {
          "internalType": "address",
          "name": "",
          "type": "address"
        },
        {
          "internalType": "uint256",
          "name": "",
          "type": "uint256"
        },
        {
          "internalType": "bytes",
          "name": "",
          "type": "bytes"
        }
      ],
      "name": "safeTransferFrom",
      "outputs": [],
      "stateMutability": "pure",
      "type": "function"
    },
    {
      "inputs": [
        {
          "internalType": "address",
          "name": "operator",
          "type": "address"
        },
        {
          "internalType": "bool",
          "name": "approved",
          "type": "bool"
        }
      ],
      "name": "setApprovalForAll",
      "outputs": [],
      "stateMutability": "nonpayable",
      "type": "function"
    },
    {
      "inputs": [
        {
          "internalType": "string",
          "name": "_contractUri",
          "type": "string"
        }
      ],
      "name": "setContractURI",
      "outputs": [],
      "stateMutability": "nonpayable",
      "type": "function"
    },
    {
      "inputs": [
        {
          "internalType": "string",
          "name": "_defaultTokenURI",
          "type": "string"
        }
      ],
      "name": "setDefaultTokenURI",
      "outputs": [],
      "stateMutability": "nonpayable",
      "type": "function"
    },
    {
      "inputs": [
        {
          "internalType": "address",
          "name": "_metisVote",
          "type": "address"
        }
      ],
      "name": "setMetisVote",
      "outputs": [],
      "stateMutability": "nonpayable",
      "type": "function"
    },
    {
      "inputs": [
        {
          "internalType": "bytes4",
          "name": "interfaceId",
          "type": "bytes4"
        }
      ],
      "name": "supportsInterface",
      "outputs": [
        {
          "internalType": "bool",
          "name": "",
          "type": "bool"
        }
      ],
      "stateMutability": "view",
      "type": "function"
    },
    {
      "inputs": [],
      "name": "symbol",
      "outputs": [
        {
          "internalType": "string",
          "name": "",
          "type": "string"
        }
      ],
      "stateMutability": "view",
      "type": "function"
    },
    {
      "inputs": [
        {
          "internalType": "uint256",
          "name": "tokenId",
          "type": "uint256"
        }
      ],
      "name": "tokenURI",
      "outputs": [
        {
          "internalType": "string",
          "name": "",
          "type": "string"
        }
      ],
      "stateMutability": "view",
      "type": "function"
    },
    {
      "inputs": [
        {
          "internalType": "address",
          "name": "",
          "type": "address"
        },
        {
          "internalType": "address",
          "name": "",
          "type": "address"
        },
        {
          "internalType": "uint256",
          "name": "",
          "type": "uint256"
        }
      ],
      "name": "transferFrom",
      "outputs": [],
      "stateMutability": "pure",
      "type": "function"
    },
    {
      "inputs": [
        {
          "internalType": "address",
          "name": "newOwner",
          "type": "address"
        }
      ],
      "name": "transferOwnership",
      "outputs": [],
      "stateMutability": "nonpayable",
      "type": "function"
    },
    {
      "inputs": [
        {
          "internalType": "uint256",
          "name": "",
          "type": "uint256"
        },
        {
          "internalType": "uint256",
          "name": "",
          "type": "uint256"
        }
      ],
      "name": "votes",
      "outputs": [
        {
          "internalType": "bool",
          "name": "",
          "type": "bool"
        }
      ],
      "stateMutability": "view",
      "type": "function"
    }
  ],
  "transactionHash": "0xc13d301f0ea5642d72c153bc40d703b9aab30ddbaf0f8016b1f47513784545da",
  "args": [],
  "numDeployments": 1,
  "solcInputHash": "4cfb88c07cf186296746977f4da6eabc",
  "bytecode": "0x60806040523480156200001157600080fd5b506040518060400160405280600881526020017f4d657469735342540000000000000000000000000000000000000000000000008152506040518060400160405280600481526020017f4d534254000000000000000000000000000000000000000000000000000000008152506200009e62000092620000f660201b60201c565b620000fe60201b60201c565b8160019081620000af91906200043c565b508060029081620000c191906200043c565b5050507f59c56e1d2c6bccfd4f520889c4e61985f0c8313d3bf5c79be5f8283631dfadcb60405160405180910390a162000523565b600033905090565b60008060009054906101000a900473ffffffffffffffffffffffffffffffffffffffff169050816000806101000a81548173ffffffffffffffffffffffffffffffffffffffff021916908373ffffffffffffffffffffffffffffffffffffffff1602179055508173ffffffffffffffffffffffffffffffffffffffff168173ffffffffffffffffffffffffffffffffffffffff167f8be0079c531659141344cd1fd0a4f28419497f9722a3daafe3b4186f6b6457e060405160405180910390a35050565b600081519050919050565b7f4e487b7100000000000000000000000000000000000000000000000000000000600052604160045260246000fd5b7f4e487b7100000000000000000000000000000000000000000000000000000000600052602260045260246000fd5b600060028204905060018216806200024457607f821691505b6020821081036200025a5762000259620001fc565b5b50919050565b60008190508160005260206000209050919050565b60006020601f8301049050919050565b600082821b905092915050565b600060088302620002c47fffffffffffffffffffffffffffffffffffffffffffffffffffffffffffffffff8262000285565b620002d0868362000285565b95508019841693508086168417925050509392505050565b6000819050919050565b6000819050919050565b60006200031d620003176200031184620002e8565b620002f2565b620002e8565b9050919050565b6000819050919050565b6200033983620002fc565b62000351620003488262000324565b84845462000292565b825550505050565b600090565b6200036862000359565b620003758184846200032e565b505050565b5b818110156200039d57620003916000826200035e565b6001810190506200037b565b5050565b601f821115620003ec57620003b68162000260565b620003c18462000275565b81016020851015620003d1578190505b620003e9620003e08562000275565b8301826200037a565b50505b505050565b600082821c905092915050565b60006200041160001984600802620003f1565b1980831691505092915050565b60006200042c8383620003fe565b9150826002028217905092915050565b6200044782620001c2565b67ffffffffffffffff811115620004635762000462620001cd565b5b6200046f82546200022b565b6200047c828285620003a1565b600060209050601f831160018114620004b457600084156200049f578287015190505b620004ab85826200041e565b8655506200051b565b601f198416620004c48662000260565b60005b82811015620004ee57848901518255600182019150602085019450602081019050620004c7565b868310156200050e57848901516200050a601f891682620003fe565b8355505b6001600288020188555050505b505050505050565b613d2b80620005336000396000f3fe608060405234801561001057600080fd5b50600436106101da5760003560e01c8063938e3d7b11610104578063c6e36a32116100a2578063dd5ffa1e11610071578063dd5ffa1e14610579578063e985e9c514610597578063f2fde38b146105c7578063fcca991b146105e3576101da565b8063c6e36a32146104cb578063c87b56dd146104fb578063d0def5211461052b578063d6836d161461055b576101da565b8063a22cb465116100de578063a22cb46514610445578063b45a3c0e14610461578063b88d4fde14610491578063c0e24d5e146104ad576101da565b8063938e3d7b146103ef57806395d89b411461040b578063a125c82414610429576101da565b806342842e0e1161017c5780636df5bc831161014b5780636df5bc831461037b57806370a0823114610397578063715018a6146103c75780638da5cb5b146103d1576101da565b806342842e0e146102e35780634e7018ba146102ff5780635bd8c4db1461031b5780636352211e1461034b576101da565b8063081812fc116101b8578063081812fc1461025d578063095ea7b31461028d5780632147afea146102a957806323b872dd146102c7576101da565b806301ffc9a7146101df57806306779e431461020f57806306fdde031461023f575b600080fd5b6101f960048036038101906101f491906125e3565b6105ff565b604051610206919061262b565b60405180910390f35b6102296004803603810190610224919061267c565b610611565b60405161023691906126b8565b60405180910390f35b610247610693565b6040516102549190612763565b60405180910390f35b6102776004803603810190610272919061267c565b610725565b60405161028491906127c6565b60405180910390f35b6102a760048036038101906102a2919061280d565b61076b565b005b6102b1610882565b6040516102be91906127c6565b60405180910390f35b6102e160048036038101906102dc919061284d565b6108a8565b005b6102fd60048036038101906102f8919061284d565b6108e3565b005b610319600480360381019061031491906128a0565b61091e565b005b6103356004803603810190610330919061267c565b610a1c565b604051610342919061262b565b60405180910390f35b6103656004803603810190610360919061267c565b610a3c565b60405161037291906127c6565b60405180910390f35b6103956004803603810190610390919061267c565b610ac2565b005b6103b160048036038101906103ac91906128a0565b610d4c565b6040516103be91906126b8565b60405180910390f35b6103cf610e03565b005b6103d9610e17565b6040516103e691906127c6565b60405180910390f35b61040960048036038101906104049190612a02565b610e40565b005b610413610e93565b6040516104209190612763565b60405180910390f35b610443600480360381019061043e9190612a02565b610f25565b005b61045f600480360381019061045a9190612a77565b610f77565b005b61047b6004803603810190610476919061267c565b610f8d565b604051610488919061262b565b60405180910390f35b6104ab60048036038101906104a69190612b58565b610fb7565b005b6104b5610ff2565b6040516104c29190612763565b60405180910390f35b6104e560048036038101906104e09190612bdb565b611080565b6040516104f2919061262b565b60405180910390f35b6105156004803603810190610510919061267c565b6110af565b6040516105229190612763565b60405180910390f35b61054560048036038101906105409190612c1b565b6110c1565b60405161055291906126b8565b60405180910390f35b610563611133565b60405161057091906126b8565b60405180910390f35b610581611188565b60405161058e9190612763565b60405180910390f35b6105b160048036038101906105ac9190612c77565b611216565b6040516105be919061262b565b60405180910390f35b6105e160048036038101906105dc91906128a0565b6112aa565b005b6105fd60048036038101906105f89190612bdb565b61132d565b005b600061060a8261156f565b9050919050565b600061061b611651565b600061062760086116cf565b905060005b838110156106895761063e60086116dd565b61064860086116cf565b91506001600d600084815260200190815260200160002060006101000a81548160ff021916908315150217905550808061068190612ce6565b91505061062c565b5080915050919050565b6060600180546106a290612d5d565b80601f01602080910402602001604051908101604052809291908181526020018280546106ce90612d5d565b801561071b5780601f106106f05761010080835404028352916020019161071b565b820191906000526020600020905b8154815290600101906020018083116106fe57829003601f168201915b5050505050905090565b6000610730826116f3565b6005600083815260200190815260200160002060009054906101000a900473ffffffffffffffffffffffffffffffffffffffff169050919050565b600061077682610a3c565b90508073ffffffffffffffffffffffffffffffffffffffff168373ffffffffffffffffffffffffffffffffffffffff16036107e6576040517f08c379a00000000000000000000000000000000000000000000000000000000081526004016107dd90612e00565b60405180910390fd5b8073ffffffffffffffffffffffffffffffffffffffff1661080561173e565b73ffffffffffffffffffffffffffffffffffffffff16148061083457506108338161082e61173e565b611216565b5b610873576040517f08c379a000000000000000000000000000000000000000000000000000000000815260040161086a90612e92565b60405180910390fd5b61087d8383611746565b505050565b600b60009054906101000a900473ffffffffffffffffffffffffffffffffffffffff1681565b6040517fa74471990000000000000000000000000000000000000000000000000000000081526004016108da90612efe565b60405180910390fd5b6040517fa744719900000000000000000000000000000000000000000000000000000000815260040161091590612efe565b60405180910390fd5b610926611651565b600073ffffffffffffffffffffffffffffffffffffffff168173ffffffffffffffffffffffffffffffffffffffff1603610995576040517f08c379a000000000000000000000000000000000000000000000000000000000815260040161098c90612f6a565b60405180910390fd5b80600b60006101000a81548173ffffffffffffffffffffffffffffffffffffffff021916908373ffffffffffffffffffffffffffffffffffffffff1602179055508073ffffffffffffffffffffffffffffffffffffffff167f231d477d54441294893850f1659d67c94a6b4135121d64aedf9ec4e7342a6e5c60405160405180910390a250565b600d6020528060005260406000206000915054906101000a900460ff1681565b600080610a48836117ff565b9050600073ffffffffffffffffffffffffffffffffffffffff168173ffffffffffffffffffffffffffffffffffffffff1603610ab9576040517f08c379a0000000000000000000000000000000000000000000000000000000008152600401610ab090612fd6565b60405180910390fd5b80915050919050565b6000610acd33610d4c565b14610b0d576040517f08c379a0000000000000000000000000000000000000000000000000000000008152600401610b0490613042565b60405180910390fd5b600d600082815260200190815260200160002060009054906101000a900460ff16610b6d576040517f08c379a0000000000000000000000000000000000000000000000000000000008152600401610b64906130d4565b60405180910390fd5b600c600082815260200190815260200160002060009054906101000a900460ff1615610bce576040517f08c379a0000000000000000000000000000000000000000000000000000000008152600401610bc590613140565b60405180910390fd5b6000600d600083815260200190815260200160002060006101000a81548160ff0219169083151502179055506001600c600083815260200190815260200160002060006101000a81548160ff021916908315150217905550610c30338261183c565b610cc481600a8054610c4190612d5d565b80601f0160208091040260200160405190810160405280929190818152602001828054610c6d90612d5d565b8015610cba5780601f10610c8f57610100808354040283529160200191610cba565b820191906000526020600020905b815481529060010190602001808311610c9d57829003601f168201915b505050505061185a565b7f032bc66be43dbccb7487781d168eb7bda224628a3b2c3388bdf69b532a3a161181604051610cf391906126b8565b60405180910390a13373ffffffffffffffffffffffffffffffffffffffff167f5fb46cbb0a8c3d663d6513c20033986830d071462486d78fddce8699b360542d82604051610d4191906126b8565b60405180910390a250565b60008073ffffffffffffffffffffffffffffffffffffffff168273ffffffffffffffffffffffffffffffffffffffff1603610dbc576040517f08c379a0000000000000000000000000000000000000000000000000000000008152600401610db3906131d2565b60405180910390fd5b600460008373ffffffffffffffffffffffffffffffffffffffff1673ffffffffffffffffffffffffffffffffffffffff168152602001908152602001600020549050919050565b610e0b611651565b610e1560006118c7565b565b60008060009054906101000a900473ffffffffffffffffffffffffffffffffffffffff16905090565b610e48611651565b8060099081610e57919061339e565b507f905d981207a7d0b6c62cc46ab0be2a076d0298e4a86d0ab79882dbd01ac373786009604051610e8891906134f4565b60405180910390a150565b606060028054610ea290612d5d565b80601f0160208091040260200160405190810160405280929190818152602001828054610ece90612d5d565b8015610f1b5780601f10610ef057610100808354040283529160200191610f1b565b820191906000526020600020905b815481529060010190602001808311610efe57829003601f168201915b5050505050905090565b610f2d611651565b80600a9081610f3c919061339e565b507f1b1b4769b1db894fd6850dcd99a0f574534d3b16b5cc0cee72af296ad192fdfb81604051610f6c9190612763565b60405180910390a150565b610f89610f8261173e565b838361198b565b5050565b6000600c600083815260200190815260200160002060009054906101000a900460ff169050919050565b6040517fa7447199000000000000000000000000000000000000000000000000000000008152600401610fe990612efe565b60405180910390fd5b60098054610fff90612d5d565b80601f016020809104026020016040519081016040528092919081815260200182805461102b90612d5d565b80156110785780601f1061104d57610100808354040283529160200191611078565b820191906000526020600020905b81548152906001019060200180831161105b57829003601f168201915b505050505081565b600e6020528160005260406000206020528060005260406000206000915091509054906101000a900460ff1681565b60606110ba82611af7565b9050919050565b60006110cb611651565b60006110d78484611c09565b90508373ffffffffffffffffffffffffffffffffffffffff167f408e6700c8c8bf1093a9f3dad1e45f50c0ef36787da829f31d76ad2861ad05128285604051611121929190613516565b60405180910390a28091505092915050565b600061113d611651565b61114760086116dd565b600061115360086116cf565b90506001600d600083815260200190815260200160002060006101000a81548160ff0219169083151502179055508091505090565b600a805461119590612d5d565b80601f01602080910402602001604051908101604052809291908181526020018280546111c190612d5d565b801561120e5780601f106111e35761010080835404028352916020019161120e565b820191906000526020600020905b8154815290600101906020018083116111f157829003601f168201915b505050505081565b6000600660008473ffffffffffffffffffffffffffffffffffffffff1673ffffffffffffffffffffffffffffffffffffffff16815260200190815260200160002060008373ffffffffffffffffffffffffffffffffffffffff1673ffffffffffffffffffffffffffffffffffffffff16815260200190815260200160002060009054906101000a900460ff16905092915050565b6112b2611651565b600073ffffffffffffffffffffffffffffffffffffffff168173ffffffffffffffffffffffffffffffffffffffff1603611321576040517f08c379a0000000000000000000000000000000000000000000000000000000008152600401611318906135b8565b60405180910390fd5b61132a816118c7565b50565b600b60009054906101000a900473ffffffffffffffffffffffffffffffffffffffff1673ffffffffffffffffffffffffffffffffffffffff163373ffffffffffffffffffffffffffffffffffffffff16146113bd576040517f08c379a00000000000000000000000000000000000000000000000000000000081526004016113b49061364a565b60405180910390fd5b600d600082815260200190815260200160002060009054906101000a900460ff161561141e576040517f08c379a0000000000000000000000000000000000000000000000000000000008152600401611415906136b6565b60405180910390fd5b600c600082815260200190815260200160002060009054906101000a900460ff1661147e576040517f08c379a000000000000000000000000000000000000000000000000000000000815260040161147590613722565b60405180910390fd5b600073ffffffffffffffffffffffffffffffffffffffff1661149f82610a3c565b73ffffffffffffffffffffffffffffffffffffffff16036114f5576040517f08c379a00000000000000000000000000000000000000000000000000000000081526004016114ec9061378e565b60405180910390fd5b6001600e6000848152602001908152602001600020600083815260200190815260200160002060006101000a81548160ff0219169083151502179055507fd4d383f8ed189d1368006d33d0ae7bf1e4fe9f3f86f205ae60d7a50bbba58b3881836040516115639291906137ae565b60405180910390a15050565b60007f80ac58cd000000000000000000000000000000000000000000000000000000007bffffffffffffffffffffffffffffffffffffffffffffffffffffffff1916827bffffffffffffffffffffffffffffffffffffffffffffffffffffffff1916148061163a57507f5b5e139f000000000000000000000000000000000000000000000000000000007bffffffffffffffffffffffffffffffffffffffffffffffffffffffff1916827bffffffffffffffffffffffffffffffffffffffffffffffffffffffff1916145b8061164a575061164982611ce2565b5b9050919050565b61165961173e565b73ffffffffffffffffffffffffffffffffffffffff16611677610e17565b73ffffffffffffffffffffffffffffffffffffffff16146116cd576040517f08c379a00000000000000000000000000000000000000000000000000000000081526004016116c490613823565b60405180910390fd5b565b600081600001549050919050565b6001816000016000828254019250508190555050565b6116fc81611d4c565b61173b576040517f08c379a000000000000000000000000000000000000000000000000000000000815260040161173290612fd6565b60405180910390fd5b50565b600033905090565b816005600083815260200190815260200160002060006101000a81548173ffffffffffffffffffffffffffffffffffffffff021916908373ffffffffffffffffffffffffffffffffffffffff160217905550808273ffffffffffffffffffffffffffffffffffffffff166117b983610a3c565b73ffffffffffffffffffffffffffffffffffffffff167f8c5be1e5ebec7d5bd14f71427d1e84f3dd0314c0f7b2291e5b200ac8c7c3b92560405160405180910390a45050565b60006003600083815260200190815260200160002060009054906101000a900473ffffffffffffffffffffffffffffffffffffffff169050919050565b611856828260405180602001604052806000815250611d8d565b5050565b61186382611d4c565b6118a2576040517f08c379a0000000000000000000000000000000000000000000000000000000008152600401611899906138b5565b60405180910390fd5b806007600084815260200190815260200160002090816118c2919061339e565b505050565b60008060009054906101000a900473ffffffffffffffffffffffffffffffffffffffff169050816000806101000a81548173ffffffffffffffffffffffffffffffffffffffff021916908373ffffffffffffffffffffffffffffffffffffffff1602179055508173ffffffffffffffffffffffffffffffffffffffff168173ffffffffffffffffffffffffffffffffffffffff167f8be0079c531659141344cd1fd0a4f28419497f9722a3daafe3b4186f6b6457e060405160405180910390a35050565b8173ffffffffffffffffffffffffffffffffffffffff168373ffffffffffffffffffffffffffffffffffffffff16036119f9576040517f08c379a00000000000000000000000000000000000000000000000000000000081526004016119f090613921565b60405180910390fd5b80600660008573ffffffffffffffffffffffffffffffffffffffff1673ffffffffffffffffffffffffffffffffffffffff16815260200190815260200160002060008473ffffffffffffffffffffffffffffffffffffffff1673ffffffffffffffffffffffffffffffffffffffff16815260200190815260200160002060006101000a81548160ff0219169083151502179055508173ffffffffffffffffffffffffffffffffffffffff168373ffffffffffffffffffffffffffffffffffffffff167f17307eab39ab6107e8899845ad3d59bd9653f200f220920489ca2b5937696c3183604051611aea919061262b565b60405180910390a3505050565b6060611b02826116f3565b6000600760008481526020019081526020016000208054611b2290612d5d565b80601f0160208091040260200160405190810160405280929190818152602001828054611b4e90612d5d565b8015611b9b5780601f10611b7057610100808354040283529160200191611b9b565b820191906000526020600020905b815481529060010190602001808311611b7e57829003601f168201915b505050505090506000611bac611de8565b90506000815103611bc1578192505050611c04565b600082511115611bf6578082604051602001611bde92919061397d565b60405160208183030381529060405292505050611c04565b611bff84611dff565b925050505b919050565b6000611c13611651565b611c1d8383611e67565b6000611c2960086116cf565b90506001600c600083815260200190815260200160002060006101000a81548160ff0219169083151502179055506000600d600083815260200190815260200160002060006101000a81548160ff021916908315150217905550611c8d848261183c565b611c97818461185a565b611ca160086116dd565b7f032bc66be43dbccb7487781d168eb7bda224628a3b2c3388bdf69b532a3a161181604051611cd091906126b8565b60405180910390a18091505092915050565b60007f01ffc9a7000000000000000000000000000000000000000000000000000000007bffffffffffffffffffffffffffffffffffffffffffffffffffffffff1916827bffffffffffffffffffffffffffffffffffffffffffffffffffffffff1916149050919050565b60008073ffffffffffffffffffffffffffffffffffffffff16611d6e836117ff565b73ffffffffffffffffffffffffffffffffffffffff1614159050919050565b611d978383611f71565b611da4600084848461218e565b611de3576040517f08c379a0000000000000000000000000000000000000000000000000000000008152600401611dda90613a13565b60405180910390fd5b505050565b606060405180602001604052806000815250905090565b6060611e0a826116f3565b6000611e14611de8565b90506000815111611e345760405180602001604052806000815250611e5f565b80611e3e84612315565b604051602001611e4f92919061397d565b6040516020818303038152906040525b915050919050565b611e6f611651565b600073ffffffffffffffffffffffffffffffffffffffff168273ffffffffffffffffffffffffffffffffffffffff1603611ede576040517f08c379a0000000000000000000000000000000000000000000000000000000008152600401611ed590613a7f565b60405180910390fd5b6000611ee983610d4c565b14611f29576040517f08c379a0000000000000000000000000000000000000000000000000000000008152600401611f2090613042565b60405180910390fd5b6000815111611f6d576040517f08c379a0000000000000000000000000000000000000000000000000000000008152600401611f6490613aeb565b60405180910390fd5b5050565b600073ffffffffffffffffffffffffffffffffffffffff168273ffffffffffffffffffffffffffffffffffffffff1603611fe0576040517f08c379a0000000000000000000000000000000000000000000000000000000008152600401611fd790613b57565b60405180910390fd5b611fe981611d4c565b15612029576040517f08c379a000000000000000000000000000000000000000000000000000000000815260040161202090613bc3565b60405180910390fd5b6120376000838360016123e3565b61204081611d4c565b15612080576040517f08c379a000000000000000000000000000000000000000000000000000000000815260040161207790613bc3565b60405180910390fd5b6001600460008473ffffffffffffffffffffffffffffffffffffffff1673ffffffffffffffffffffffffffffffffffffffff16815260200190815260200160002060008282540192505081905550816003600083815260200190815260200160002060006101000a81548173ffffffffffffffffffffffffffffffffffffffff021916908373ffffffffffffffffffffffffffffffffffffffff160217905550808273ffffffffffffffffffffffffffffffffffffffff16600073ffffffffffffffffffffffffffffffffffffffff167fddf252ad1be2c89b69c2b068fc378daa952ba7f163c4a11628f55a4df523b3ef60405160405180910390a461218a6000838360016123f5565b5050565b60006121af8473ffffffffffffffffffffffffffffffffffffffff166123fb565b15612308578373ffffffffffffffffffffffffffffffffffffffff1663150b7a026121d861173e565b8786866040518563ffffffff1660e01b81526004016121fa9493929190613c38565b6020604051808303816000875af192505050801561223657506040513d601f19601f820116820180604052508101906122339190613c99565b60015b6122b8573d8060008114612266576040519150601f19603f3d011682016040523d82523d6000602084013e61226b565b606091505b5060008151036122b0576040517f08c379a00000000000000000000000000000000000000000000000000000000081526004016122a790613a13565b60405180910390fd5b805181602001fd5b63150b7a0260e01b7bffffffffffffffffffffffffffffffffffffffffffffffffffffffff1916817bffffffffffffffffffffffffffffffffffffffffffffffffffffffff19161491505061230d565b600190505b949350505050565b6060600060016123248461241e565b01905060008167ffffffffffffffff811115612343576123426128d7565b5b6040519080825280601f01601f1916602001820160405280156123755781602001600182028036833780820191505090505b509050600082602001820190505b6001156123d8578080600190039150507f3031323334353637383961626364656600000000000000000000000000000000600a86061a8153600a85816123cc576123cb613cc6565b5b04945060008503612383575b819350505050919050565b6123ef84848484612571565b50505050565b50505050565b6000808273ffffffffffffffffffffffffffffffffffffffff163b119050919050565b600080600090507a184f03e93ff9f4daa797ed6e38ed64bf6a1f010000000000000000831061247c577a184f03e93ff9f4daa797ed6e38ed64bf6a1f010000000000000000838161247257612471613cc6565b5b0492506040810190505b6d04ee2d6d415b85acef810000000083106124b9576d04ee2d6d415b85acef810000000083816124af576124ae613cc6565b5b0492506020810190505b662386f26fc1000083106124e857662386f26fc1000083816124de576124dd613cc6565b5b0492506010810190505b6305f5e1008310612511576305f5e100838161250757612506613cc6565b5b0492506008810190505b612710831061253657612710838161252c5761252b613cc6565b5b0492506004810190505b60648310612559576064838161254f5761254e613cc6565b5b0492506002810190505b600a8310612568576001810190505b80915050919050565b50505050565b6000604051905090565b600080fd5b600080fd5b60007fffffffff0000000000000000000000000000000000000000000000000000000082169050919050565b6125c08161258b565b81146125cb57600080fd5b50565b6000813590506125dd816125b7565b92915050565b6000602082840312156125f9576125f8612581565b5b6000612607848285016125ce565b91505092915050565b60008115159050919050565b61262581612610565b82525050565b6000602082019050612640600083018461261c565b92915050565b6000819050919050565b61265981612646565b811461266457600080fd5b50565b60008135905061267681612650565b92915050565b60006020828403121561269257612691612581565b5b60006126a084828501612667565b91505092915050565b6126b281612646565b82525050565b60006020820190506126cd60008301846126a9565b92915050565b600081519050919050565b600082825260208201905092915050565b60005b8381101561270d5780820151818401526020810190506126f2565b60008484015250505050565b6000601f19601f8301169050919050565b6000612735826126d3565b61273f81856126de565b935061274f8185602086016126ef565b61275881612719565b840191505092915050565b6000602082019050818103600083015261277d818461272a565b905092915050565b600073ffffffffffffffffffffffffffffffffffffffff82169050919050565b60006127b082612785565b9050919050565b6127c0816127a5565b82525050565b60006020820190506127db60008301846127b7565b92915050565b6127ea816127a5565b81146127f557600080fd5b50565b600081359050612807816127e1565b92915050565b6000806040838503121561282457612823612581565b5b6000612832858286016127f8565b925050602061284385828601612667565b9150509250929050565b60008060006060848603121561286657612865612581565b5b6000612874868287016127f8565b9350506020612885868287016127f8565b925050604061289686828701612667565b9150509250925092565b6000602082840312156128b6576128b5612581565b5b60006128c4848285016127f8565b91505092915050565b600080fd5b600080fd5b7f4e487b7100000000000000000000000000000000000000000000000000000000600052604160045260246000fd5b61290f82612719565b810181811067ffffffffffffffff8211171561292e5761292d6128d7565b5b80604052505050565b6000612941612577565b905061294d8282612906565b919050565b600067ffffffffffffffff82111561296d5761296c6128d7565b5b61297682612719565b9050602081019050919050565b82818337600083830152505050565b60006129a56129a084612952565b612937565b9050828152602081018484840111156129c1576129c06128d2565b5b6129cc848285612983565b509392505050565b600082601f8301126129e9576129e86128cd565b5b81356129f9848260208601612992565b91505092915050565b600060208284031215612a1857612a17612581565b5b600082013567ffffffffffffffff811115612a3657612a35612586565b5b612a42848285016129d4565b91505092915050565b612a5481612610565b8114612a5f57600080fd5b50565b600081359050612a7181612a4b565b92915050565b60008060408385031215612a8e57612a8d612581565b5b6000612a9c858286016127f8565b9250506020612aad85828601612a62565b9150509250929050565b600067ffffffffffffffff821115612ad257612ad16128d7565b5b612adb82612719565b9050602081019050919050565b6000612afb612af684612ab7565b612937565b905082815260208101848484011115612b1757612b166128d2565b5b612b22848285612983565b509392505050565b600082601f830112612b3f57612b3e6128cd565b5b8135612b4f848260208601612ae8565b91505092915050565b60008060008060808587031215612b7257612b71612581565b5b6000612b80878288016127f8565b9450506020612b91878288016127f8565b9350506040612ba287828801612667565b925050606085013567ffffffffffffffff811115612bc357612bc2612586565b5b612bcf87828801612b2a565b91505092959194509250565b60008060408385031215612bf257612bf1612581565b5b6000612c0085828601612667565b9250506020612c1185828601612667565b9150509250929050565b60008060408385031215612c3257612c31612581565b5b6000612c40858286016127f8565b925050602083013567ffffffffffffffff811115612c6157612c60612586565b5b612c6d858286016129d4565b9150509250929050565b60008060408385031215612c8e57612c8d612581565b5b6000612c9c858286016127f8565b9250506020612cad858286016127f8565b9150509250929050565b7f4e487b7100000000000000000000000000000000000000000000000000000000600052601160045260246000fd5b6000612cf182612646565b91507fffffffffffffffffffffffffffffffffffffffffffffffffffffffffffffffff8203612d2357612d22612cb7565b5b600182019050919050565b7f4e487b7100000000000000000000000000000000000000000000000000000000600052602260045260246000fd5b60006002820490506001821680612d7557607f821691505b602082108103612d8857612d87612d2e565b5b50919050565b7f4552433732313a20617070726f76616c20746f2063757272656e74206f776e6560008201527f7200000000000000000000000000000000000000000000000000000000000000602082015250565b6000612dea6021836126de565b9150612df582612d8e565b604082019050919050565b60006020820190508181036000830152612e1981612ddd565b9050919050565b7f4552433732313a20617070726f76652063616c6c6572206973206e6f7420746f60008201527f6b656e206f776e6572206f7220617070726f76656420666f7220616c6c000000602082015250565b6000612e7c603d836126de565b9150612e8782612e20565b604082019050919050565b60006020820190508181036000830152612eab81612e6f565b9050919050565b7f4e4f205452414e534645522046524f4d20414c4c4f5745440000000000000000600082015250565b6000612ee86018836126de565b9150612ef382612eb2565b602082019050919050565b60006020820190508181036000830152612f1781612edb565b9050919050565b7f4d657469735342543a20494e56414c4944204144445245535300000000000000600082015250565b6000612f546019836126de565b9150612f5f82612f1e565b602082019050919050565b60006020820190508181036000830152612f8381612f47565b9050919050565b7f4552433732313a20696e76616c696420746f6b656e2049440000000000000000600082015250565b6000612fc06018836126de565b9150612fcb82612f8a565b602082019050919050565b60006020820190508181036000830152612fef81612fb3565b9050919050565b7f4d657469735342543a205573657220616c726561647920686173205342540000600082015250565b600061302c601e836126de565b915061303782612ff6565b602082019050919050565b6000602082019050818103600083015261305b8161301f565b9050919050565b7f4d657469735342543a20546f6b656e206e6f7420617661696c61626c6520746f60008201527f206d696e74000000000000000000000000000000000000000000000000000000602082015250565b60006130be6025836126de565b91506130c982613062565b604082019050919050565b600060208201905081810360008301526130ed816130b1565b9050919050565b7f4d657469735342543a20546f6b656e206c6f636b656400000000000000000000600082015250565b600061312a6016836126de565b9150613135826130f4565b602082019050919050565b600060208201905081810360008301526131598161311d565b9050919050565b7f4552433732313a2061646472657373207a65726f206973206e6f74206120766160008201527f6c6964206f776e65720000000000000000000000000000000000000000000000602082015250565b60006131bc6029836126de565b91506131c782613160565b604082019050919050565b600060208201905081810360008301526131eb816131af565b9050919050565b60008190508160005260206000209050919050565b60006020601f8301049050919050565b600082821b905092915050565b6000600883026132547fffffffffffffffffffffffffffffffffffffffffffffffffffffffffffffffff82613217565b61325e8683613217565b95508019841693508086168417925050509392505050565b6000819050919050565b600061329b61329661329184612646565b613276565b612646565b9050919050565b6000819050919050565b6132b583613280565b6132c96132c1826132a2565b848454613224565b825550505050565b600090565b6132de6132d1565b6132e98184846132ac565b505050565b5b8181101561330d576133026000826132d6565b6001810190506132ef565b5050565b601f82111561335257613323816131f2565b61332c84613207565b8101602085101561333b578190505b61334f61334785613207565b8301826132ee565b50505b505050565b600082821c905092915050565b600061337560001984600802613357565b1980831691505092915050565b600061338e8383613364565b9150826002028217905092915050565b6133a7826126d3565b67ffffffffffffffff8111156133c0576133bf6128d7565b5b6133ca8254612d5d565b6133d5828285613311565b600060209050601f83116001811461340857600084156133f6578287015190505b6134008582613382565b865550613468565b601f198416613416866131f2565b60005b8281101561343e57848901518255600182019150602085019450602081019050613419565b8683101561345b5784890151613457601f891682613364565b8355505b6001600288020188555050505b505050505050565b6000815461347d81612d5d565b61348781866126de565b945060018216600081146134a257600181146134b8576134eb565b60ff1983168652811515602002860193506134eb565b6134c1856131f2565b60005b838110156134e3578154818901526001820191506020810190506134c4565b808801955050505b50505092915050565b6000602082019050818103600083015261350e8184613470565b905092915050565b600060408201905061352b60008301856126a9565b818103602083015261353d818461272a565b90509392505050565b7f4f776e61626c653a206e6577206f776e657220697320746865207a65726f206160008201527f6464726573730000000000000000000000000000000000000000000000000000602082015250565b60006135a26026836126de565b91506135ad82613546565b604082019050919050565b600060208201905081810360008301526135d181613595565b9050919050565b7f4d657469735342543a204f4e4c59204d4554495320564f544520434f4e54524160008201527f4354000000000000000000000000000000000000000000000000000000000000602082015250565b60006136346022836126de565b915061363f826135d8565b604082019050919050565b6000602082019050818103600083015261366381613627565b9050919050565b7f4d657469735342543a20546f6b656e206973206672656520746f206d696e7400600082015250565b60006136a0601f836126de565b91506136ab8261366a565b602082019050919050565b600060208201905081810360008301526136cf81613693565b9050919050565b7f4d657469735342543a20746f6b656e206973206672656520746f206d696e7400600082015250565b600061370c601f836126de565b9150613717826136d6565b602082019050919050565b6000602082019050818103600083015261373b816136ff565b9050919050565b7f4d657469735342543a20746f6b656e20686173206e6f206f776e657200000000600082015250565b6000613778601c836126de565b915061378382613742565b602082019050919050565b600060208201905081810360008301526137a78161376b565b9050919050565b60006040820190506137c360008301856126a9565b6137d060208301846126a9565b9392505050565b7f4f776e61626c653a2063616c6c6572206973206e6f7420746865206f776e6572600082015250565b600061380d6020836126de565b9150613818826137d7565b602082019050919050565b6000602082019050818103600083015261383c81613800565b9050919050565b7f45524337323155524953746f726167653a2055524920736574206f66206e6f6e60008201527f6578697374656e7420746f6b656e000000000000000000000000000000000000602082015250565b600061389f602e836126de565b91506138aa82613843565b604082019050919050565b600060208201905081810360008301526138ce81613892565b9050919050565b7f4552433732313a20617070726f766520746f2063616c6c657200000000000000600082015250565b600061390b6019836126de565b9150613916826138d5565b602082019050919050565b6000602082019050818103600083015261393a816138fe565b9050919050565b600081905092915050565b6000613957826126d3565b6139618185613941565b93506139718185602086016126ef565b80840191505092915050565b6000613989828561394c565b9150613995828461394c565b91508190509392505050565b7f4552433732313a207472616e7366657220746f206e6f6e20455243373231526560008201527f63656976657220696d706c656d656e7465720000000000000000000000000000602082015250565b60006139fd6032836126de565b9150613a08826139a1565b604082019050919050565b60006020820190508181036000830152613a2c816139f0565b9050919050565b7f4d657469735342543a20496e76616c6964206164647265737300000000000000600082015250565b6000613a696019836126de565b9150613a7482613a33565b602082019050919050565b60006020820190508181036000830152613a9881613a5c565b9050919050565b7f4d657469735342543a20456d7074792055524900000000000000000000000000600082015250565b6000613ad56013836126de565b9150613ae082613a9f565b602082019050919050565b60006020820190508181036000830152613b0481613ac8565b9050919050565b7f4552433732313a206d696e7420746f20746865207a65726f2061646472657373600082015250565b6000613b416020836126de565b9150613b4c82613b0b565b602082019050919050565b60006020820190508181036000830152613b7081613b34565b9050919050565b7f4552433732313a20746f6b656e20616c7265616479206d696e74656400000000600082015250565b6000613bad601c836126de565b9150613bb882613b77565b602082019050919050565b60006020820190508181036000830152613bdc81613ba0565b9050919050565b600081519050919050565b600082825260208201905092915050565b6000613c0a82613be3565b613c148185613bee565b9350613c248185602086016126ef565b613c2d81612719565b840191505092915050565b6000608082019050613c4d60008301876127b7565b613c5a60208301866127b7565b613c6760408301856126a9565b8181036060830152613c798184613bff565b905095945050505050565b600081519050613c93816125b7565b92915050565b600060208284031215613caf57613cae612581565b5b6000613cbd84828501613c84565b91505092915050565b7f4e487b7100000000000000000000000000000000000000000000000000000000600052601260045260246000fdfea264697066735822122028185f61764378fad8d356064853088411f320cf4007202f357b0e918fcd624464736f6c63430008120033",
  "devdoc": {
    "events": {
      "Approval(address,address,uint256)": {
        "details": "Emitted when `owner` enables `approved` to manage the `tokenId` token."
      },
      "ApprovalForAll(address,address,bool)": {
        "details": "Emitted when `owner` enables or disables (`approved`) `operator` to manage all of its assets."
      },
      "Locked(uint256)": {
        "details": "If a token is minted and the status is locked, this event should be emitted.",
        "params": {
          "tokenId": "The identifier for a token."
        }
      },
      "Transfer(address,address,uint256)": {
        "details": "Emitted when `tokenId` token is transferred from `from` to `to`."
      },
      "Unlocked(uint256)": {
        "details": "If a token is minted and the status is unlocked, this event should be emitted.",
        "params": {
          "tokenId": "The identifier for a token."
        }
      }
    },
    "kind": "dev",
    "methods": {
      "approve(address,uint256)": {
        "details": "See {IERC721-approve}."
      },
      "balanceOf(address)": {
        "details": "See {IERC721-balanceOf}."
      },
      "getApproved(uint256)": {
        "details": "See {IERC721-getApproved}."
      },
      "isApprovedForAll(address,address)": {
        "details": "See {IERC721-isApprovedForAll}."
      },
      "locked(uint256)": {
        "details": "SBTs assigned to zero address are considered invalid, and queries about them do throw.",
        "params": {
          "tokenId": "The identifier for an SBT."
        }
      },
      "name()": {
        "details": "See {IERC721Metadata-name}."
      },
      "owner()": {
        "details": "Returns the address of the current owner."
      },
      "ownerOf(uint256)": {
        "details": "See {IERC721-ownerOf}."
      },
      "renounceOwnership()": {
        "details": "Leaves the contract without owner. It will not be possible to call `onlyOwner` functions anymore. Can only be called by the current owner. NOTE: Renouncing ownership will leave the contract without an owner, thereby removing any functionality that is only available to the owner."
      },
      "safeLazyMint()": {
        "returns": {
          "_0": "id of the next NFT to be minted"
        }
      },
      "safeLazyMintBatch(uint256)": {
        "params": {
          "quantity": "amount of NFTs to be minted"
        },
        "returns": {
          "_0": "id of the next NFT to be minted"
        }
      },
      "setApprovalForAll(address,bool)": {
        "details": "See {IERC721-setApprovalForAll}."
      },
      "setContractURI(string)": {
        "params": {
          "_contractUri": "contractUri"
        }
      },
      "supportsInterface(bytes4)": {
        "details": "See {IERC165-supportsInterface}."
      },
      "symbol()": {
        "details": "See {IERC721Metadata-symbol}."
      },
      "tokenURI(uint256)": {
        "custom:notice": "The following function is override required by Solidity."
      },
      "transferOwnership(address)": {
        "details": "Transfers ownership of the contract to a new account (`newOwner`). Can only be called by the current owner."
      }
    },
    "stateVariables": {
      "_tokenIdCounter": {
        "details": "Private counter to make internal security checks"
      },
      "contractUri": {
        "details": "ContractUri"
      }
    },
    "version": 1
  },
  "userdoc": {
    "events": {
      "Locked(uint256)": {
        "notice": "Emitted when the locking status is changed to locked."
      },
      "Unlocked(uint256)": {
        "notice": "Emitted when the locking status is changed to unlocked."
      }
    },
    "kind": "user",
    "methods": {
      "locked(uint256)": {
        "notice": "Returns the locking status of an Soulbound Token"
      },
      "safeLazyMint()": {
        "notice": "Lazy Mint NFTs"
      },
      "safeLazyMintBatch(uint256)": {
        "notice": "Laxy Batch Mint NFTs"
      },
      "setContractURI(string)": {
        "notice": "Modify contractUri for NFT collection"
      }
    },
    "version": 1
  },
  "storageLayout": {
    "storage": [
      {
        "astId": 7,
        "contract": "contracts/MetisSBT.sol:MetisSBT",
        "label": "_owner",
        "offset": 0,
        "slot": "0",
        "type": "t_address"
      },
      {
        "astId": 138,
        "contract": "contracts/MetisSBT.sol:MetisSBT",
        "label": "_name",
        "offset": 0,
        "slot": "1",
        "type": "t_string_storage"
      },
      {
        "astId": 140,
        "contract": "contracts/MetisSBT.sol:MetisSBT",
        "label": "_symbol",
        "offset": 0,
        "slot": "2",
        "type": "t_string_storage"
      },
      {
        "astId": 144,
        "contract": "contracts/MetisSBT.sol:MetisSBT",
        "label": "_owners",
        "offset": 0,
        "slot": "3",
        "type": "t_mapping(t_uint256,t_address)"
      },
      {
        "astId": 148,
        "contract": "contracts/MetisSBT.sol:MetisSBT",
        "label": "_balances",
        "offset": 0,
        "slot": "4",
        "type": "t_mapping(t_address,t_uint256)"
      },
      {
        "astId": 152,
        "contract": "contracts/MetisSBT.sol:MetisSBT",
        "label": "_tokenApprovals",
        "offset": 0,
        "slot": "5",
        "type": "t_mapping(t_uint256,t_address)"
      },
      {
        "astId": 158,
        "contract": "contracts/MetisSBT.sol:MetisSBT",
        "label": "_operatorApprovals",
        "offset": 0,
        "slot": "6",
        "type": "t_mapping(t_address,t_mapping(t_address,t_bool))"
      },
      {
        "astId": 1186,
        "contract": "contracts/MetisSBT.sol:MetisSBT",
        "label": "_tokenURIs",
        "offset": 0,
        "slot": "7",
        "type": "t_mapping(t_uint256,t_string_storage)"
      },
      {
        "astId": 2850,
        "contract": "contracts/MetisSBT.sol:MetisSBT",
        "label": "_tokenIdCounter",
        "offset": 0,
        "slot": "8",
        "type": "t_struct(Counter)1683_storage"
      },
      {
        "astId": 2853,
        "contract": "contracts/MetisSBT.sol:MetisSBT",
        "label": "contractUri",
        "offset": 0,
        "slot": "9",
        "type": "t_string_storage"
      },
      {
        "astId": 2855,
        "contract": "contracts/MetisSBT.sol:MetisSBT",
        "label": "defaultTokenUri",
        "offset": 0,
        "slot": "10",
        "type": "t_string_storage"
      },
      {
        "astId": 2857,
        "contract": "contracts/MetisSBT.sol:MetisSBT",
        "label": "METIS_VOTE",
        "offset": 0,
        "slot": "11",
        "type": "t_address"
      },
      {
        "astId": 2861,
        "contract": "contracts/MetisSBT.sol:MetisSBT",
        "label": "lockedSBTs",
        "offset": 0,
        "slot": "12",
        "type": "t_mapping(t_uint256,t_bool)"
      },
      {
        "astId": 2865,
        "contract": "contracts/MetisSBT.sol:MetisSBT",
        "label": "availableToMint",
        "offset": 0,
        "slot": "13",
        "type": "t_mapping(t_uint256,t_bool)"
      },
      {
        "astId": 2871,
        "contract": "contracts/MetisSBT.sol:MetisSBT",
        "label": "votes",
        "offset": 0,
        "slot": "14",
        "type": "t_mapping(t_uint256,t_mapping(t_uint256,t_bool))"
      }
    ],
    "types": {
      "t_address": {
        "encoding": "inplace",
        "label": "address",
        "numberOfBytes": "20"
      },
      "t_bool": {
        "encoding": "inplace",
        "label": "bool",
        "numberOfBytes": "1"
      },
      "t_mapping(t_address,t_bool)": {
        "encoding": "mapping",
        "key": "t_address",
        "label": "mapping(address => bool)",
        "numberOfBytes": "32",
        "value": "t_bool"
      },
      "t_mapping(t_address,t_mapping(t_address,t_bool))": {
        "encoding": "mapping",
        "key": "t_address",
        "label": "mapping(address => mapping(address => bool))",
        "numberOfBytes": "32",
        "value": "t_mapping(t_address,t_bool)"
      },
      "t_mapping(t_address,t_uint256)": {
        "encoding": "mapping",
        "key": "t_address",
        "label": "mapping(address => uint256)",
        "numberOfBytes": "32",
        "value": "t_uint256"
      },
      "t_mapping(t_uint256,t_address)": {
        "encoding": "mapping",
        "key": "t_uint256",
        "label": "mapping(uint256 => address)",
        "numberOfBytes": "32",
        "value": "t_address"
      },
      "t_mapping(t_uint256,t_bool)": {
        "encoding": "mapping",
        "key": "t_uint256",
        "label": "mapping(uint256 => bool)",
        "numberOfBytes": "32",
        "value": "t_bool"
      },
      "t_mapping(t_uint256,t_mapping(t_uint256,t_bool))": {
        "encoding": "mapping",
        "key": "t_uint256",
        "label": "mapping(uint256 => mapping(uint256 => bool))",
        "numberOfBytes": "32",
        "value": "t_mapping(t_uint256,t_bool)"
      },
      "t_mapping(t_uint256,t_string_storage)": {
        "encoding": "mapping",
        "key": "t_uint256",
        "label": "mapping(uint256 => string)",
        "numberOfBytes": "32",
        "value": "t_string_storage"
      },
      "t_string_storage": {
        "encoding": "bytes",
        "label": "string",
        "numberOfBytes": "32"
      },
      "t_struct(Counter)1683_storage": {
        "encoding": "inplace",
        "label": "struct Counters.Counter",
        "members": [
          {
            "astId": 1682,
            "contract": "contracts/MetisSBT.sol:MetisSBT",
            "label": "_value",
            "offset": 0,
            "slot": "0",
            "type": "t_uint256"
          }
        ],
        "numberOfBytes": "32"
      },
      "t_uint256": {
        "encoding": "inplace",
        "label": "uint256",
        "numberOfBytes": "32"
      }
    }
  }
}